{
  "contractName": "Voting",
  "abi": [
    {
      "inputs": [
        {
          "internalType": "address",
          "name": "_electionCommission",
          "type": "address"
        },
        {
          "internalType": "string",
          "name": "_title",
          "type": "string"
        },
        {
          "internalType": "string[]",
          "name": "_proposals",
          "type": "string[]"
        },
        {
          "internalType": "address[]",
          "name": "_whiteList",
          "type": "address[]"
        },
        {
          "internalType": "uint256",
          "name": "duration",
          "type": "uint256"
        }
      ],
      "stateMutability": "nonpayable",
      "type": "constructor"
    },
    {
      "inputs": [],
      "name": "electionCommission",
      "outputs": [
        {
          "internalType": "address",
          "name": "",
          "type": "address"
        }
      ],
      "stateMutability": "view",
      "type": "function"
    },
    {
      "inputs": [
        {
          "internalType": "uint256",
          "name": "",
          "type": "uint256"
        }
      ],
      "name": "proposals",
      "outputs": [
        {
          "internalType": "string",
          "name": "name",
          "type": "string"
        },
        {
          "internalType": "uint256",
          "name": "voteCount",
          "type": "uint256"
        }
      ],
      "stateMutability": "view",
      "type": "function"
    },
    {
      "inputs": [],
      "name": "title",
      "outputs": [
        {
          "internalType": "string",
          "name": "",
          "type": "string"
        }
      ],
      "stateMutability": "view",
      "type": "function"
    },
    {
      "inputs": [],
      "name": "votingCancelled",
      "outputs": [
        {
          "internalType": "bool",
          "name": "",
          "type": "bool"
        }
      ],
      "stateMutability": "view",
      "type": "function"
    },
    {
      "inputs": [],
      "name": "votingDuration",
      "outputs": [
        {
          "internalType": "uint256",
          "name": "",
          "type": "uint256"
        }
      ],
      "stateMutability": "view",
      "type": "function"
    },
    {
      "inputs": [],
      "name": "votingEnded",
      "outputs": [
        {
          "internalType": "bool",
          "name": "",
          "type": "bool"
        }
      ],
      "stateMutability": "view",
      "type": "function"
    },
    {
      "inputs": [],
      "name": "votingStartTime",
      "outputs": [
        {
          "internalType": "uint256",
          "name": "",
          "type": "uint256"
        }
      ],
      "stateMutability": "view",
      "type": "function"
    },
    {
      "inputs": [],
      "name": "votingStarted",
      "outputs": [
        {
          "internalType": "bool",
          "name": "",
          "type": "bool"
        }
      ],
      "stateMutability": "view",
      "type": "function"
    },
    {
      "inputs": [
        {
          "internalType": "uint256",
          "name": "",
          "type": "uint256"
        }
      ],
      "name": "whiteListedAddresses",
      "outputs": [
        {
          "internalType": "address",
          "name": "",
          "type": "address"
        }
      ],
      "stateMutability": "view",
      "type": "function"
    },
    {
      "inputs": [
        {
          "internalType": "address",
          "name": "key",
          "type": "address"
        }
      ],
      "name": "getExists",
      "outputs": [
        {
          "internalType": "bool",
          "name": "",
          "type": "bool"
        }
      ],
      "stateMutability": "view",
      "type": "function"
    },
    {
      "inputs": [
        {
          "internalType": "address",
          "name": "voter",
          "type": "address"
        }
      ],
      "name": "addToWhiteList",
      "outputs": [],
      "stateMutability": "nonpayable",
      "type": "function"
    },
    {
      "inputs": [
        {
          "internalType": "address",
          "name": "voter",
          "type": "address"
        }
      ],
      "name": "removeFromWhiteList",
      "outputs": [],
      "stateMutability": "nonpayable",
      "type": "function"
    },
    {
      "inputs": [],
      "name": "getProposals",
      "outputs": [
        {
          "internalType": "string[]",
          "name": "",
          "type": "string[]"
        }
      ],
      "stateMutability": "view",
      "type": "function"
    },
    {
      "inputs": [],
      "name": "getWhiteListedAddresses",
      "outputs": [
        {
          "internalType": "address[]",
          "name": "",
          "type": "address[]"
        }
      ],
      "stateMutability": "view",
      "type": "function"
    },
    {
      "inputs": [
        {
          "internalType": "string",
          "name": "newTitle",
          "type": "string"
        },
        {
          "internalType": "string[]",
          "name": "newProposals",
          "type": "string[]"
        },
        {
          "internalType": "address[]",
          "name": "newWhiteList",
          "type": "address[]"
        },
        {
          "internalType": "uint256",
          "name": "newDuration",
          "type": "uint256"
        }
      ],
      "name": "editVoting",
      "outputs": [],
      "stateMutability": "nonpayable",
      "type": "function"
    },
    {
      "inputs": [
        {
          "internalType": "uint256",
          "name": "proposal",
          "type": "uint256"
        },
        {
          "internalType": "string",
          "name": "newName",
          "type": "string"
        }
      ],
      "name": "editProposal",
      "outputs": [],
      "stateMutability": "nonpayable",
      "type": "function"
    },
    {
      "inputs": [
        {
          "internalType": "string",
          "name": "newName",
          "type": "string"
        }
      ],
      "name": "addProposal",
      "outputs": [],
      "stateMutability": "nonpayable",
      "type": "function"
    },
    {
      "inputs": [
        {
          "internalType": "string",
          "name": "newTitle",
          "type": "string"
        }
      ],
      "name": "editTitle",
      "outputs": [],
      "stateMutability": "nonpayable",
      "type": "function"
    },
    {
      "inputs": [
        {
          "internalType": "uint256",
          "name": "newDeadline",
          "type": "uint256"
        }
      ],
      "name": "editDeadline",
      "outputs": [],
      "stateMutability": "nonpayable",
      "type": "function"
    },
    {
      "inputs": [
        {
          "internalType": "uint256",
          "name": "proposal",
          "type": "uint256"
        }
      ],
      "name": "vote",
      "outputs": [],
      "stateMutability": "nonpayable",
      "type": "function"
    },
    {
      "inputs": [
        {
          "internalType": "address",
          "name": "key",
          "type": "address"
        }
      ],
      "name": "getIsWhiteListed",
      "outputs": [
        {
          "internalType": "bool",
          "name": "",
          "type": "bool"
        }
      ],
      "stateMutability": "view",
      "type": "function"
    },
    {
      "inputs": [],
      "name": "startVoting",
      "outputs": [],
      "stateMutability": "nonpayable",
      "type": "function"
    },
    {
      "inputs": [],
      "name": "endVoting",
      "outputs": [],
      "stateMutability": "nonpayable",
      "type": "function"
    },
    {
      "inputs": [],
      "name": "getIsOpen",
      "outputs": [
        {
          "internalType": "bool",
          "name": "",
          "type": "bool"
        }
      ],
      "stateMutability": "view",
      "type": "function"
    },
    {
      "inputs": [],
      "name": "cancelVoting",
      "outputs": [],
      "stateMutability": "nonpayable",
      "type": "function"
    },
    {
      "inputs": [],
      "name": "getResult",
      "outputs": [
        {
          "internalType": "uint256[]",
          "name": "",
          "type": "uint256[]"
        }
      ],
      "stateMutability": "view",
      "type": "function"
    }
  ],
  "bytecode": "0x60806040523480156200001157600080fd5b5060405162003a9e38038062003a9e8339818101604052810190620000379190620007e7565b84600760036101000a81548173ffffffffffffffffffffffffffffffffffffffff021916908373ffffffffffffffffffffffffffffffffffffffff16021790555083600090805190602001906200009092919062000299565b50806005819055506000600760006101000a81548160ff0219169083151502179055506000600760016101000a81548160ff02191690831515021790555060005b83518110156200017a5760046040518060400160405280868481518110620000fe57620000fd620008cc565b5b602002602001015181526020016000815250908060018154018082558091505060019003906000526020600020906002020160009091909190915060008201518160000190805190602001906200015792919062000299565b50602082015181600101555050808062000171906200092a565b915050620000d1565b5060005b825181101562000274576001806000858481518110620001a357620001a2620008cc565b5b602002602001015173ffffffffffffffffffffffffffffffffffffffff1673ffffffffffffffffffffffffffffffffffffffff16815260200190815260200160002081905550600160026000858481518110620002055762000204620008cc565b5b602002602001015173ffffffffffffffffffffffffffffffffffffffff1673ffffffffffffffffffffffffffffffffffffffff16815260200190815260200160002060006101000a81548160ff02191690831515021790555080806200026b906200092a565b9150506200017e565b5081600390805190602001906200028d9291906200032a565b505050505050620009db565b828054620002a790620009a6565b90600052602060002090601f016020900481019282620002cb576000855562000317565b82601f10620002e657805160ff191683800117855562000317565b8280016001018555821562000317579182015b8281111562000316578251825591602001919060010190620002f9565b5b509050620003269190620003b9565b5090565b828054828255906000526020600020908101928215620003a6579160200282015b82811115620003a55782518260006101000a81548173ffffffffffffffffffffffffffffffffffffffff021916908373ffffffffffffffffffffffffffffffffffffffff160217905550916020019190600101906200034b565b5b509050620003b59190620003b9565b5090565b5b80821115620003d4576000816000905550600101620003ba565b5090565b6000604051905090565b600080fd5b600080fd5b600073ffffffffffffffffffffffffffffffffffffffff82169050919050565b60006200041982620003ec565b9050919050565b6200042b816200040c565b81146200043757600080fd5b50565b6000815190506200044b8162000420565b92915050565b600080fd5b600080fd5b6000601f19601f8301169050919050565b7f4e487b7100000000000000000000000000000000000000000000000000000000600052604160045260246000fd5b620004a6826200045b565b810181811067ffffffffffffffff82111715620004c857620004c76200046c565b5b80604052505050565b6000620004dd620003d8565b9050620004eb82826200049b565b919050565b600067ffffffffffffffff8211156200050e576200050d6200046c565b5b62000519826200045b565b9050602081019050919050565b60005b838110156200054657808201518184015260208101905062000529565b8381111562000556576000848401525b50505050565b6000620005736200056d84620004f0565b620004d1565b90508281526020810184848401111562000592576200059162000456565b5b6200059f84828562000526565b509392505050565b600082601f830112620005bf57620005be62000451565b5b8151620005d18482602086016200055c565b91505092915050565b600067ffffffffffffffff821115620005f857620005f76200046c565b5b602082029050602081019050919050565b600080fd5b6000620006256200061f84620005da565b620004d1565b905080838252602082019050602084028301858111156200064b576200064a62000609565b5b835b818110156200069957805167ffffffffffffffff81111562000674576200067362000451565b5b808601620006838982620005a7565b855260208501945050506020810190506200064d565b5050509392505050565b600082601f830112620006bb57620006ba62000451565b5b8151620006cd8482602086016200060e565b91505092915050565b600067ffffffffffffffff821115620006f457620006f36200046c565b5b602082029050602081019050919050565b60006200071c6200071684620006d6565b620004d1565b9050808382526020820190506020840283018581111562000742576200074162000609565b5b835b818110156200076f57806200075a88826200043a565b84526020840193505060208101905062000744565b5050509392505050565b600082601f83011262000791576200079062000451565b5b8151620007a384826020860162000705565b91505092915050565b6000819050919050565b620007c181620007ac565b8114620007cd57600080fd5b50565b600081519050620007e181620007b6565b92915050565b600080600080600060a08688031215620008065762000805620003e2565b5b600062000816888289016200043a565b955050602086015167ffffffffffffffff8111156200083a5762000839620003e7565b5b6200084888828901620005a7565b945050604086015167ffffffffffffffff8111156200086c576200086b620003e7565b5b6200087a88828901620006a3565b935050606086015167ffffffffffffffff8111156200089e576200089d620003e7565b5b620008ac8882890162000779565b9250506080620008bf88828901620007d0565b9150509295509295909350565b7f4e487b7100000000000000000000000000000000000000000000000000000000600052603260045260246000fd5b7f4e487b7100000000000000000000000000000000000000000000000000000000600052601160045260246000fd5b60006200093782620007ac565b91507fffffffffffffffffffffffffffffffffffffffffffffffffffffffffffffffff82036200096c576200096b620008fb565b5b600182019050919050565b7f4e487b7100000000000000000000000000000000000000000000000000000000600052602260045260246000fd5b60006002820490506001821680620009bf57607f821691505b602082108103620009d557620009d462000977565b5b50919050565b6130b380620009eb6000396000f3fe608060405234801561001057600080fd5b506004361061018e5760003560e01c80634aed3c3a116100de5780639d5a052911610097578063bfae217211610071578063bfae217214610428578063c3403ddf14610444578063d7d4e6311461044e578063de2927891461047e5761018e565b80639d5a0529146103ce578063aab46b7f146103ec578063b1b0be2f1461040a5761018e565b80634aed3c3a1461033457806362564c48146103505780636eb836891461036e57806381f4b2321461038a57806383d948b7146103945780639bd4dd3c146103b25761018e565b80632019a6081161014b5780632fdae3c5116101255780632fdae3c5146102ae57806337b7b9b8146102ca57806347ee0394146102fa5780634a79d50c146103165761018e565b80632019a608146102425780632c69953b146102605780632d9c73d9146102905761018e565b80630121b93f14610193578063013cf08b146101af57806301bf6648146101e05780630b226036146101fc578063132002fc1461021a5780631ec6b60a14610238575b600080fd5b6101ad60048036038101906101a89190612164565b61049c565b005b6101c960048036038101906101c49190612164565b6107d3565b6040516101d7929190612239565b60405180910390f35b6101fa60048036038101906101f591906122c7565b61088f565b005b610204610ab9565b604051610211919061230f565b60405180910390f35b610222610acc565b60405161022f919061232a565b60405180910390f35b610240610ad2565b005b61024a610c83565b604051610257919061232a565b60405180910390f35b61027a60048036038101906102759190612164565b610c89565b6040516102879190612354565b60405180910390f35b610298610cc8565b6040516102a5919061242d565b60405180910390f35b6102c860048036038101906102c39190612584565b610dd4565b005b6102e460048036038101906102df91906122c7565b610f78565b6040516102f1919061230f565b60405180910390f35b610314600480360381019061030f91906122c7565b610fce565b005b61031e611259565b60405161032b91906125cd565b60405180910390f35b61034e60048036038101906103499190612798565b6112e7565b005b6103586115aa565b604051610365919061295f565b60405180910390f35b61038860048036038101906103839190612584565b6116fb565b005b61039261184c565b005b61039c6119a0565b6040516103a9919061230f565b60405180910390f35b6103cc60048036038101906103c79190612164565b6119b3565b005b6103d6611af4565b6040516103e3919061230f565b60405180910390f35b6103f4611b07565b6040516104019190612354565b60405180910390f35b610412611b2d565b60405161041f919061230f565b60405180910390f35b610442600480360381019061043d9190612981565b611b88565b005b61044c611cfd565b005b610468600480360381019061046391906122c7565b611dfb565b604051610475919061230f565b60405180910390f35b610486611e51565b6040516104939190612a9b565b60405180910390f35b60011515600760019054906101000a900460ff161515146104f2576040517f08c379a00000000000000000000000000000000000000000000000000000000081526004016104e990612b09565b60405180910390fd5b60001515600760009054906101000a900460ff16151514610548576040517f08c379a000000000000000000000000000000000000000000000000000000000815260040161053f90612b75565b60405180910390fd5b60001515600760029054906101000a900460ff1615151461059e576040517f08c379a000000000000000000000000000000000000000000000000000000000815260040161059590612be1565b60405180910390fd5b60011515600260003373ffffffffffffffffffffffffffffffffffffffff1673ffffffffffffffffffffffffffffffffffffffff16815260200190815260200160002060009054906101000a900460ff16151514610631576040517f08c379a000000000000000000000000000000000000000000000000000000000815260040161062890612c73565b60405180910390fd5b6005546006546106419190612cc2565b4210610682576040517f08c379a000000000000000000000000000000000000000000000000000000000815260040161067990612b75565b60405180910390fd5b6000600160003373ffffffffffffffffffffffffffffffffffffffff1673ffffffffffffffffffffffffffffffffffffffff1681526020019081526020016000205411610704576040517f08c379a00000000000000000000000000000000000000000000000000000000081526004016106fb90612d8a565b60405180910390fd5b60003390506000600160008373ffffffffffffffffffffffffffffffffffffffff1673ffffffffffffffffffffffffffffffffffffffff168152602001908152602001600020549050806004848154811061076257610761612daa565b5b906000526020600020906002020160010160008282546107829190612cc2565b925050819055506000600160008473ffffffffffffffffffffffffffffffffffffffff1673ffffffffffffffffffffffffffffffffffffffff16815260200190815260200160002081905550505050565b600481815481106107e357600080fd5b906000526020600020906002020160009150905080600001805461080690612e08565b80601f016020809104026020016040519081016040528092919081815260200182805461083290612e08565b801561087f5780601f106108545761010080835404028352916020019161087f565b820191906000526020600020905b81548152906001019060200180831161086257829003601f168201915b5050505050908060010154905082565b600760039054906101000a900473ffffffffffffffffffffffffffffffffffffffff1673ffffffffffffffffffffffffffffffffffffffff163373ffffffffffffffffffffffffffffffffffffffff161461091f576040517f08c379a000000000000000000000000000000000000000000000000000000000815260040161091690612eab565b60405180910390fd5b60001515600760019054906101000a900460ff16151514610975576040517f08c379a000000000000000000000000000000000000000000000000000000000815260040161096c90612f17565b60405180910390fd5b6005546006546109859190612cc2565b42106109c6576040517f08c379a00000000000000000000000000000000000000000000000000000000081526004016109bd90612b75565b60405180910390fd5b600260008273ffffffffffffffffffffffffffffffffffffffff1673ffffffffffffffffffffffffffffffffffffffff16815260200190815260200160002060009054906101000a900460ff1615610ab6576000600160008373ffffffffffffffffffffffffffffffffffffffff1673ffffffffffffffffffffffffffffffffffffffff168152602001908152602001600020819055506000600260008373ffffffffffffffffffffffffffffffffffffffff1673ffffffffffffffffffffffffffffffffffffffff16815260200190815260200160002060006101000a81548160ff0219169083151502179055505b50565b600760029054906101000a900460ff1681565b60055481565b60001515600760019054906101000a900460ff16151514610b28576040517f08c379a0000000000000000000000000000000000000000000000000000000008152600401610b1f90612f17565b60405180910390fd5b600760039054906101000a900473ffffffffffffffffffffffffffffffffffffffff1673ffffffffffffffffffffffffffffffffffffffff163373ffffffffffffffffffffffffffffffffffffffff1614610bb8576040517f08c379a0000000000000000000000000000000000000000000000000000000008152600401610baf90612eab565b60405180910390fd5b600554600654610bc89190612cc2565b4210610c09576040517f08c379a0000000000000000000000000000000000000000000000000000000008152600401610c0090612b75565b60405180910390fd5b60001515600760029054906101000a900460ff16151514610c5f576040517f08c379a0000000000000000000000000000000000000000000000000000000008152600401610c5690612be1565b60405180910390fd5b426006819055506001600760016101000a81548160ff021916908315150217905550565b60065481565b60038181548110610c9957600080fd5b906000526020600020016000915054906101000a900473ffffffffffffffffffffffffffffffffffffffff1681565b60606000600380549050905060008167ffffffffffffffff811115610cf057610cef612459565b5b604051908082528060200260200182016040528015610d1e5781602001602082028036833780820191505090505b50905060005b82811015610dcb5760038181548110610d4057610d3f612daa565b5b9060005260206000200160009054906101000a900473ffffffffffffffffffffffffffffffffffffffff16828281518110610d7e57610d7d612daa565b5b602002602001019073ffffffffffffffffffffffffffffffffffffffff16908173ffffffffffffffffffffffffffffffffffffffff16815250508080610dc390612f37565b915050610d24565b50809250505090565b600760039054906101000a900473ffffffffffffffffffffffffffffffffffffffff1673ffffffffffffffffffffffffffffffffffffffff163373ffffffffffffffffffffffffffffffffffffffff1614610e64576040517f08c379a0000000000000000000000000000000000000000000000000000000008152600401610e5b90612eab565b60405180910390fd5b60001515600760019054906101000a900460ff16151514610eba576040517f08c379a0000000000000000000000000000000000000000000000000000000008152600401610eb190612f17565b60405180910390fd5b600554600654610eca9190612cc2565b4210610f0b576040517f08c379a0000000000000000000000000000000000000000000000000000000008152600401610f0290612b75565b60405180910390fd5b60046040518060400160405280838152602001600081525090806001815401808255809150506001900390600052602060002090600202016000909190919091506000820151816000019080519060200190610f68929190611f5a565b5060208201518160010155505050565b6000600260008373ffffffffffffffffffffffffffffffffffffffff1673ffffffffffffffffffffffffffffffffffffffff16815260200190815260200160002060009054906101000a900460ff169050919050565b600760039054906101000a900473ffffffffffffffffffffffffffffffffffffffff1673ffffffffffffffffffffffffffffffffffffffff163373ffffffffffffffffffffffffffffffffffffffff161461105e576040517f08c379a000000000000000000000000000000000000000000000000000000000815260040161105590612eab565b60405180910390fd5b60001515600760019054906101000a900460ff161515146110b4576040517f08c379a00000000000000000000000000000000000000000000000000000000081526004016110ab90612f17565b60405180910390fd5b6005546006546110c49190612cc2565b4210611105576040517f08c379a00000000000000000000000000000000000000000000000000000000081526004016110fc90612b75565b60405180910390fd5b600260008273ffffffffffffffffffffffffffffffffffffffff1673ffffffffffffffffffffffffffffffffffffffff16815260200190815260200160002060009054906101000a900460ff166112565760018060008373ffffffffffffffffffffffffffffffffffffffff1673ffffffffffffffffffffffffffffffffffffffff168152602001908152602001600020819055506003819080600181540180825580915050600190039060005260206000200160009091909190916101000a81548173ffffffffffffffffffffffffffffffffffffffff021916908373ffffffffffffffffffffffffffffffffffffffff1602179055506001600260008373ffffffffffffffffffffffffffffffffffffffff1673ffffffffffffffffffffffffffffffffffffffff16815260200190815260200160002060006101000a81548160ff0219169083151502179055505b50565b6000805461126690612e08565b80601f016020809104026020016040519081016040528092919081815260200182805461129290612e08565b80156112df5780601f106112b4576101008083540402835291602001916112df565b820191906000526020600020905b8154815290600101906020018083116112c257829003601f168201915b505050505081565b600760039054906101000a900473ffffffffffffffffffffffffffffffffffffffff1673ffffffffffffffffffffffffffffffffffffffff163373ffffffffffffffffffffffffffffffffffffffff1614611377576040517f08c379a000000000000000000000000000000000000000000000000000000000815260040161136e90612eab565b60405180910390fd5b60001515600760019054906101000a900460ff161515146113cd576040517f08c379a00000000000000000000000000000000000000000000000000000000081526004016113c490612f17565b60405180910390fd5b83600090805190602001906113e3929190611f5a565b5080600581905550600460006113f99190611fe0565b60005b835181101561149c576004604051806040016040528086848151811061142557611424612daa565b5b6020026020010151815260200160008152509080600181540180825580915050600190039060005260206000209060020201600090919091909150600082015181600001908051906020019061147c929190611f5a565b50602082015181600101555050808061149490612f37565b9150506113fc565b5060005b825181101561158c5760018060008584815181106114c1576114c0612daa565b5b602002602001015173ffffffffffffffffffffffffffffffffffffffff1673ffffffffffffffffffffffffffffffffffffffff168152602001908152602001600020819055506001600260008584815181106115205761151f612daa565b5b602002602001015173ffffffffffffffffffffffffffffffffffffffff1673ffffffffffffffffffffffffffffffffffffffff16815260200190815260200160002060006101000a81548160ff021916908315150217905550808061158490612f37565b9150506114a0565b5081600390805190602001906115a3929190612004565b5050505050565b60606000600480549050905060008167ffffffffffffffff8111156115d2576115d1612459565b5b60405190808252806020026020018201604052801561160557816020015b60608152602001906001900390816115f05790505b50905060005b828110156116f2576004818154811061162757611626612daa565b5b9060005260206000209060020201600001805461164390612e08565b80601f016020809104026020016040519081016040528092919081815260200182805461166f90612e08565b80156116bc5780601f10611691576101008083540402835291602001916116bc565b820191906000526020600020905b81548152906001019060200180831161169f57829003601f168201915b50505050508282815181106116d4576116d3612daa565b5b602002602001018190525080806116ea90612f37565b91505061160b565b50809250505090565b600760039054906101000a900473ffffffffffffffffffffffffffffffffffffffff1673ffffffffffffffffffffffffffffffffffffffff163373ffffffffffffffffffffffffffffffffffffffff161461178b576040517f08c379a000000000000000000000000000000000000000000000000000000000815260040161178290612eab565b60405180910390fd5b60001515600760019054906101000a900460ff161515146117e1576040517f08c379a00000000000000000000000000000000000000000000000000000000081526004016117d890612f17565b60405180910390fd5b6005546006546117f19190612cc2565b4210611832576040517f08c379a000000000000000000000000000000000000000000000000000000000815260040161182990612b75565b60405180910390fd5b8060009080519060200190611848929190611f5a565b5050565b600760039054906101000a900473ffffffffffffffffffffffffffffffffffffffff1673ffffffffffffffffffffffffffffffffffffffff163373ffffffffffffffffffffffffffffffffffffffff16146118dc576040517f08c379a00000000000000000000000000000000000000000000000000000000081526004016118d390612eab565b60405180910390fd5b6005546006546118ec9190612cc2565b421061192d576040517f08c379a000000000000000000000000000000000000000000000000000000000815260040161192490612b75565b60405180910390fd5b60001515600760029054906101000a900460ff16151514611983576040517f08c379a000000000000000000000000000000000000000000000000000000000815260040161197a90612ff1565b60405180910390fd5b6001600760026101000a81548160ff021916908315150217905550565b600760019054906101000a900460ff1681565b600760039054906101000a900473ffffffffffffffffffffffffffffffffffffffff1673ffffffffffffffffffffffffffffffffffffffff163373ffffffffffffffffffffffffffffffffffffffff1614611a43576040517f08c379a0000000000000000000000000000000000000000000000000000000008152600401611a3a90612eab565b60405180910390fd5b60001515600760019054906101000a900460ff16151514611a99576040517f08c379a0000000000000000000000000000000000000000000000000000000008152600401611a9090612f17565b60405180910390fd5b600554600654611aa99190612cc2565b4210611aea576040517f08c379a0000000000000000000000000000000000000000000000000000000008152600401611ae190612b75565b60405180910390fd5b8060058190555050565b600760009054906101000a900460ff1681565b600760039054906101000a900473ffffffffffffffffffffffffffffffffffffffff1681565b6000801515600760009054906101000a900460ff161515148015611b64575060011515600760019054906101000a900460ff161515145b8015611b83575060001515600760029054906101000a900460ff161515145b905090565b600760039054906101000a900473ffffffffffffffffffffffffffffffffffffffff1673ffffffffffffffffffffffffffffffffffffffff163373ffffffffffffffffffffffffffffffffffffffff1614611c18576040517f08c379a0000000000000000000000000000000000000000000000000000000008152600401611c0f90612eab565b60405180910390fd5b60001515600760019054906101000a900460ff16151514611c6e576040517f08c379a0000000000000000000000000000000000000000000000000000000008152600401611c6590612f17565b60405180910390fd5b600554600654611c7e9190612cc2565b4210611cbf576040517f08c379a0000000000000000000000000000000000000000000000000000000008152600401611cb690612b75565b60405180910390fd5b8060048381548110611cd457611cd3612daa565b5b90600052602060002090600202016000019080519060200190611cf8929190611f5a565b505050565b600760039054906101000a900473ffffffffffffffffffffffffffffffffffffffff1673ffffffffffffffffffffffffffffffffffffffff163373ffffffffffffffffffffffffffffffffffffffff1614611d8d576040517f08c379a0000000000000000000000000000000000000000000000000000000008152600401611d8490612eab565b60405180910390fd5b600554600654611d9d9190612cc2565b4210611dde576040517f08c379a0000000000000000000000000000000000000000000000000000000008152600401611dd590612b75565b60405180910390fd5b6001600760006101000a81548160ff021916908315150217905550565b6000600260008373ffffffffffffffffffffffffffffffffffffffff1673ffffffffffffffffffffffffffffffffffffffff16815260200190815260200160002060009054906101000a900460ff169050919050565b60606005544211611e97576040517f08c379a0000000000000000000000000000000000000000000000000000000008152600401611e8e9061305d565b60405180910390fd5b6000600480549050905060008167ffffffffffffffff811115611ebd57611ebc612459565b5b604051908082528060200260200182016040528015611eeb5781602001602082028036833780820191505090505b50905060005b82811015611f515760048181548110611f0d57611f0c612daa565b5b906000526020600020906002020160010154828281518110611f3257611f31612daa565b5b6020026020010181815250508080611f4990612f37565b915050611ef1565b50809250505090565b828054611f6690612e08565b90600052602060002090601f016020900481019282611f885760008555611fcf565b82601f10611fa157805160ff1916838001178555611fcf565b82800160010185558215611fcf579182015b82811115611fce578251825591602001919060010190611fb3565b5b509050611fdc919061208e565b5090565b508054600082556002029060005260206000209081019061200191906120ab565b50565b82805482825590600052602060002090810192821561207d579160200282015b8281111561207c5782518260006101000a81548173ffffffffffffffffffffffffffffffffffffffff021916908373ffffffffffffffffffffffffffffffffffffffff16021790555091602001919060010190612024565b5b50905061208a919061208e565b5090565b5b808211156120a757600081600090555060010161208f565b5090565b5b808211156120d657600080820160006120c591906120da565b6001820160009055506002016120ac565b5090565b5080546120e690612e08565b6000825580601f106120f85750612117565b601f016020900490600052602060002090810190612116919061208e565b5b50565b6000604051905090565b600080fd5b600080fd5b6000819050919050565b6121418161212e565b811461214c57600080fd5b50565b60008135905061215e81612138565b92915050565b60006020828403121561217a57612179612124565b5b60006121888482850161214f565b91505092915050565b600081519050919050565b600082825260208201905092915050565b60005b838110156121cb5780820151818401526020810190506121b0565b838111156121da576000848401525b50505050565b6000601f19601f8301169050919050565b60006121fc82612191565b612206818561219c565b93506122168185602086016121ad565b61221f816121e0565b840191505092915050565b6122338161212e565b82525050565b6000604082019050818103600083015261225381856121f1565b9050612262602083018461222a565b9392505050565b600073ffffffffffffffffffffffffffffffffffffffff82169050919050565b600061229482612269565b9050919050565b6122a481612289565b81146122af57600080fd5b50565b6000813590506122c18161229b565b92915050565b6000602082840312156122dd576122dc612124565b5b60006122eb848285016122b2565b91505092915050565b60008115159050919050565b612309816122f4565b82525050565b60006020820190506123246000830184612300565b92915050565b600060208201905061233f600083018461222a565b92915050565b61234e81612289565b82525050565b60006020820190506123696000830184612345565b92915050565b600081519050919050565b600082825260208201905092915050565b6000819050602082019050919050565b6123a481612289565b82525050565b60006123b6838361239b565b60208301905092915050565b6000602082019050919050565b60006123da8261236f565b6123e4818561237a565b93506123ef8361238b565b8060005b8381101561242057815161240788826123aa565b9750612412836123c2565b9250506001810190506123f3565b5085935050505092915050565b6000602082019050818103600083015261244781846123cf565b905092915050565b600080fd5b600080fd5b7f4e487b7100000000000000000000000000000000000000000000000000000000600052604160045260246000fd5b612491826121e0565b810181811067ffffffffffffffff821117156124b0576124af612459565b5b80604052505050565b60006124c361211a565b90506124cf8282612488565b919050565b600067ffffffffffffffff8211156124ef576124ee612459565b5b6124f8826121e0565b9050602081019050919050565b82818337600083830152505050565b6000612527612522846124d4565b6124b9565b90508281526020810184848401111561254357612542612454565b5b61254e848285612505565b509392505050565b600082601f83011261256b5761256a61244f565b5b813561257b848260208601612514565b91505092915050565b60006020828403121561259a57612599612124565b5b600082013567ffffffffffffffff8111156125b8576125b7612129565b5b6125c484828501612556565b91505092915050565b600060208201905081810360008301526125e781846121f1565b905092915050565b600067ffffffffffffffff82111561260a57612609612459565b5b602082029050602081019050919050565b600080fd5b600061263361262e846125ef565b6124b9565b905080838252602082019050602084028301858111156126565761265561261b565b5b835b8181101561269d57803567ffffffffffffffff81111561267b5761267a61244f565b5b8086016126888982612556565b85526020850194505050602081019050612658565b5050509392505050565b600082601f8301126126bc576126bb61244f565b5b81356126cc848260208601612620565b91505092915050565b600067ffffffffffffffff8211156126f0576126ef612459565b5b602082029050602081019050919050565b600061271461270f846126d5565b6124b9565b905080838252602082019050602084028301858111156127375761273661261b565b5b835b81811015612760578061274c88826122b2565b845260208401935050602081019050612739565b5050509392505050565b600082601f83011261277f5761277e61244f565b5b813561278f848260208601612701565b91505092915050565b600080600080608085870312156127b2576127b1612124565b5b600085013567ffffffffffffffff8111156127d0576127cf612129565b5b6127dc87828801612556565b945050602085013567ffffffffffffffff8111156127fd576127fc612129565b5b612809878288016126a7565b935050604085013567ffffffffffffffff81111561282a57612829612129565b5b6128368782880161276a565b92505060606128478782880161214f565b91505092959194509250565b600081519050919050565b600082825260208201905092915050565b6000819050602082019050919050565b600082825260208201905092915050565b600061289b82612191565b6128a5818561287f565b93506128b58185602086016121ad565b6128be816121e0565b840191505092915050565b60006128d58383612890565b905092915050565b6000602082019050919050565b60006128f582612853565b6128ff818561285e565b9350836020820285016129118561286f565b8060005b8581101561294d578484038952815161292e85826128c9565b9450612939836128dd565b925060208a01995050600181019050612915565b50829750879550505050505092915050565b6000602082019050818103600083015261297981846128ea565b905092915050565b6000806040838503121561299857612997612124565b5b60006129a68582860161214f565b925050602083013567ffffffffffffffff8111156129c7576129c6612129565b5b6129d385828601612556565b9150509250929050565b600081519050919050565b600082825260208201905092915050565b6000819050602082019050919050565b612a128161212e565b82525050565b6000612a248383612a09565b60208301905092915050565b6000602082019050919050565b6000612a48826129dd565b612a5281856129e8565b9350612a5d836129f9565b8060005b83811015612a8e578151612a758882612a18565b9750612a8083612a30565b925050600181019050612a61565b5085935050505092915050565b60006020820190508181036000830152612ab58184612a3d565b905092915050565b7f566f74696e6720686173206e6f742073746172746564207965742e0000000000600082015250565b6000612af3601b8361219c565b9150612afe82612abd565b602082019050919050565b60006020820190508181036000830152612b2281612ae6565b9050919050565b7f566f74696e672068617320616c726561647920656e6465642e00000000000000600082015250565b6000612b5f60198361219c565b9150612b6a82612b29565b602082019050919050565b60006020820190508181036000830152612b8e81612b52565b9050919050565b7f566f74696e6720686173206265656e2063616e63656c6c65642e000000000000600082015250565b6000612bcb601a8361219c565b9150612bd682612b95565b602082019050919050565b60006020820190508181036000830152612bfa81612bbe565b9050919050565b7f596f7520617265206e6f7420616c6c6f77656420746f20766f746520696e207460008201527f68697320656c656374696f6e2e00000000000000000000000000000000000000602082015250565b6000612c5d602d8361219c565b9150612c6882612c01565b604082019050919050565b60006020820190508181036000830152612c8c81612c50565b9050919050565b7f4e487b7100000000000000000000000000000000000000000000000000000000600052601160045260246000fd5b6000612ccd8261212e565b9150612cd88361212e565b9250827fffffffffffffffffffffffffffffffffffffffffffffffffffffffffffffffff03821115612d0d57612d0c612c93565b5b828201905092915050565b7f596f75206861766520616c726561647920766f74656420696e2074686973206560008201527f6c656374696f6e2e000000000000000000000000000000000000000000000000602082015250565b6000612d7460288361219c565b9150612d7f82612d18565b604082019050919050565b60006020820190508181036000830152612da381612d67565b9050919050565b7f4e487b7100000000000000000000000000000000000000000000000000000000600052603260045260246000fd5b7f4e487b7100000000000000000000000000000000000000000000000000000000600052602260045260246000fd5b60006002820490506001821680612e2057607f821691505b602082108103612e3357612e32612dd9565b5b50919050565b7f4f6e6c7920456c656374696f6e20436f6d6d697373696f6e2063616e2067697660008201527f6520726967687420746f20766f74652e00000000000000000000000000000000602082015250565b6000612e9560308361219c565b9150612ea082612e39565b604082019050919050565b60006020820190508181036000830152612ec481612e88565b9050919050565b7f566f74696e672068617320616c726561647920737461727465642e0000000000600082015250565b6000612f01601b8361219c565b9150612f0c82612ecb565b602082019050919050565b60006020820190508181036000830152612f3081612ef4565b9050919050565b6000612f428261212e565b91507fffffffffffffffffffffffffffffffffffffffffffffffffffffffffffffffff8203612f7457612f73612c93565b5b600182019050919050565b7f566f74696e672068617320616c7265616479206265656e2063616e63656c6c6560008201527f642e000000000000000000000000000000000000000000000000000000000000602082015250565b6000612fdb60228361219c565b9150612fe682612f7f565b604082019050919050565b6000602082019050818103600083015261300a81612fce565b9050919050565b7f566f74696e6720686173206e6f7420656e646564207965742e00000000000000600082015250565b600061304760198361219c565b915061305282613011565b602082019050919050565b600060208201905081810360008301526130768161303a565b905091905056fea26469706673582212202d201c9b11c149b53a38c9c848d0d66f2467de37cbfb10c28821d384376bda8564736f6c634300080d0033",
  "immutableReferences": {},
  "source": "// SPDX-License-Identifier: MIT\n// Tells the Solidity compiler to compile only from v0.8.0 to v0.9.0\npragma solidity ^0.8.0;\n\ncontract Voting {\n    string public title;\n\n    mapping(address => uint) whiteList;\n    mapping(address => bool) exists;\n\n    address[] public whiteListedAddresses;\n\n    struct Proposal {\n        string name;\n        uint voteCount;\n    }\n    Proposal[] public proposals;\n\n    uint256 public votingDuration;\n    uint256 public votingStartTime;\n    bool public votingEnded; // Stores whether the voting has ended or not\n    bool public votingStarted; // Stores whether the voting has started or not\n    bool public votingCancelled; // Stores whether the voting has been cancelled or not\n\n    address public electionCommission;\n\n    constructor(\n        address _electionCommission,\n        string memory _title,\n        string[] memory _proposals,\n        address[] memory _whiteList,\n        uint256 duration\n    ) {\n        electionCommission = _electionCommission;\n        title = _title;\n        votingDuration = duration;\n        votingEnded = false;\n        votingStarted = false;\n\n        for (uint i = 0; i < _proposals.length; i++) {\n            proposals.push(Proposal({name: _proposals[i], voteCount: 0}));\n        }\n\n        for (uint i = 0; i < _whiteList.length; i++) {\n            whiteList[_whiteList[i]] = 1;\n            exists[_whiteList[i]] = true;\n        }\n        whiteListedAddresses = _whiteList;\n    }\n\n    modifier onlyElectionCommission() {\n        require(\n            msg.sender == electionCommission,\n            \"Only Election Commission can give right to vote.\"\n        );\n        _;\n    }\n\n    modifier onlyBeforeStart() {\n        require(votingStarted == false, \"Voting has already started.\");\n        _;\n    }\n\n    modifier onlyBeforeVotingEnd() {\n        require(\n            block.timestamp < (votingStartTime + votingDuration),\n            \"Voting has already ended.\"\n        );\n        _;\n    }\n\n    modifier onlyAfterVotingEnd() {\n        require(block.timestamp > votingDuration, \"Voting has not ended yet.\");\n        _;\n    }\n\n    modifier OnlyVotingIsOpen() {\n        require(votingStarted == true, \"Voting has not started yet.\");\n        require(votingEnded == false, \"Voting has already ended.\");\n        require(votingCancelled == false, \"Voting has been cancelled.\");\n        _;\n    }\n\n    modifier onlyWhiteListed() {\n        require(\n            exists[msg.sender] == true,\n            \"You are not allowed to vote in this election.\"\n        );\n        _;\n    }\n\n    modifier onlyOnce() {\n        require(\n            whiteList[msg.sender] > 0,\n            \"You have already voted in this election.\"\n        );\n        _;\n    }\n\n    function getExists(address key) public view returns (bool) {\n        return exists[key];\n    }\n\n    function addToWhiteList(\n        address voter\n    ) public onlyElectionCommission onlyBeforeStart onlyBeforeVotingEnd {\n        if (exists[voter]) return;\n\n        whiteList[voter] = 1;\n        whiteListedAddresses.push(voter);\n        exists[voter] = true;\n    }\n\n    function removeFromWhiteList(\n        address voter\n    ) public onlyElectionCommission onlyBeforeStart onlyBeforeVotingEnd {\n        if (!exists[voter]) return;\n\n        whiteList[voter] = 0;\n        exists[voter] = false;\n    }\n\n    function getProposals() public view returns (string[] memory) {\n        uint arrayLength = proposals.length;\n\n        string[] memory proposalNames = new string[](arrayLength);\n\n        for (uint i = 0; i < arrayLength; i++) {\n            proposalNames[i] = proposals[i].name;\n        }\n\n        return proposalNames;\n    }\n\n    function getWhiteListedAddresses() public view returns (address[] memory) {\n        uint arrayLength = whiteListedAddresses.length;\n\n        address[] memory addresses = new address[](arrayLength);\n\n        for (uint i = 0; i < arrayLength; i++) {\n            addresses[i] = whiteListedAddresses[i];\n        }\n\n        return addresses;\n    }\n\n    function editVoting(\n        string memory newTitle,\n        string[] memory newProposals,\n        address[] memory newWhiteList,\n        uint256 newDuration\n    ) public onlyElectionCommission onlyBeforeStart {\n        title = newTitle;\n        votingDuration = newDuration;\n\n        delete proposals;\n\n        for (uint i = 0; i < newProposals.length; i++) {\n            proposals.push(Proposal({name: newProposals[i], voteCount: 0}));\n        }\n\n        for (uint i = 0; i < newWhiteList.length; i++) {\n            whiteList[newWhiteList[i]] = 1;\n            exists[newWhiteList[i]] = true;\n        }\n        whiteListedAddresses = newWhiteList;\n    }\n\n    function editProposal(\n        uint proposal,\n        string memory newName\n    ) public onlyElectionCommission onlyBeforeStart onlyBeforeVotingEnd {\n        proposals[proposal].name = newName;\n    }\n\n    function addProposal(\n        string memory newName\n    ) public onlyElectionCommission onlyBeforeStart onlyBeforeVotingEnd {\n        proposals.push(Proposal({name: newName, voteCount: 0}));\n    }\n\n    function editTitle(\n        string memory newTitle\n    ) public onlyElectionCommission onlyBeforeStart onlyBeforeVotingEnd {\n        title = newTitle;\n    }\n\n    function editDeadline(\n        uint256 newDeadline\n    ) public onlyElectionCommission onlyBeforeStart onlyBeforeVotingEnd {\n        votingDuration = newDeadline;\n    }\n\n    function vote(\n        uint proposal\n    ) public OnlyVotingIsOpen onlyWhiteListed onlyBeforeVotingEnd onlyOnce {\n        address voter = msg.sender;\n        // require(exists[voter] == true, \"You are not allowed to vote\");\n        // require(whiteList[voter] > 0, \"You have already voted\");\n\n        uint voteWeight = whiteList[voter];\n\n        proposals[proposal].voteCount += voteWeight;\n        whiteList[voter] = 0;\n    }\n\n    function getIsWhiteListed(address key) external view returns (bool) {\n        return exists[key];\n    }\n\n    function startVoting()\n        public\n        onlyBeforeStart\n        onlyElectionCommission\n        onlyBeforeVotingEnd\n    {\n        require(votingCancelled == false, \"Voting has been cancelled.\");\n        votingStartTime = block.timestamp;\n        votingStarted = true;\n    }\n\n    function endVoting() public onlyElectionCommission onlyBeforeVotingEnd {\n        votingEnded = true;\n    }\n\n    function getIsOpen() public view returns (bool) {\n        return\n            votingEnded == false &&\n            votingStarted == true &&\n            votingCancelled == false;\n    }\n\n    function cancelVoting() public onlyElectionCommission onlyBeforeVotingEnd {\n        require(votingCancelled == false, \"Voting has already been cancelled.\");\n        votingCancelled = true;\n    }\n\n    function getResult()\n        public\n        view\n        onlyAfterVotingEnd\n        returns (uint[] memory)\n    {\n        uint arrayLength = proposals.length;\n\n        uint[] memory voteCounts = new uint[](arrayLength);\n\n        for (uint i = 0; i < arrayLength; i++) {\n            voteCounts[i] = proposals[i].voteCount;\n        }\n        return voteCounts;\n    }\n}\n",
  "sourcePath": "/home/eduardo/TCC_blockchain_voting/blockchain/contracts/Voting.sol",
  "compiler": {
    "name": "solc",
    "version": "0.8.13+commit.abaa5c0e.Emscripten.clang"
  },
  "schemaVersion": "3.4.14",
  "updatedAt": "2023-07-08T23:40:21.767Z",
  "devdoc": {
    "kind": "dev",
    "methods": {},
    "version": 1
  },
  "userdoc": {
    "kind": "user",
    "methods": {},
    "version": 1
  }
}