{
  "contractName": "VotingFactory",
  "abi": [
    {
      "anonymous": false,
      "inputs": [
        {
          "indexed": false,
          "internalType": "address",
          "name": "deployedAddress",
          "type": "address"
        }
      ],
      "name": "ContractDeployed",
      "type": "event"
    },
    {
      "inputs": [
        {
          "internalType": "uint256",
          "name": "",
          "type": "uint256"
        }
      ],
      "name": "deployedContracts",
      "outputs": [
        {
          "internalType": "address",
          "name": "",
          "type": "address"
        }
      ],
      "stateMutability": "view",
      "type": "function",
      "constant": true
    },
    {
      "inputs": [
        {
          "internalType": "string",
          "name": "_title",
          "type": "string"
        },
        {
          "internalType": "string[]",
          "name": "_proposals",
          "type": "string[]"
        },
        {
          "internalType": "address[]",
          "name": "_whiteList",
          "type": "address[]"
        },
        {
          "internalType": "uint256",
          "name": "duration",
          "type": "uint256"
        }
      ],
      "name": "deploy",
      "outputs": [],
      "stateMutability": "nonpayable",
      "type": "function"
    },
    {
      "inputs": [],
      "name": "getDeployedContracts",
      "outputs": [
        {
          "internalType": "address[]",
          "name": "",
          "type": "address[]"
        }
      ],
      "stateMutability": "view",
      "type": "function",
      "constant": true
    },
    {
      "inputs": [],
      "name": "getVotings",
      "outputs": [
        {
          "internalType": "contract Voting[]",
          "name": "",
          "type": "address[]"
        }
      ],
      "stateMutability": "view",
      "type": "function",
      "constant": true
    }
  ],
  "bytecode": "0x608060405234801561001057600080fd5b50613867806100206000396000f3fe60806040523480156200001157600080fd5b5060043610620000525760003560e01c806305c1112d14620000575780639ad1ee101462000079578063a0abae8614620000af578063aa9a068f14620000cf575b600080fd5b62000061620000f1565b604051620000709190620005f9565b60405180910390f35b6200009760048036038101906200009191906200066c565b620002ed565b604051620000a69190620006c3565b60405180910390f35b620000cd6004803603810190620000c7919062000a45565b6200032d565b005b620000d962000413565b604051620000e8919062000bd1565b60405180910390f35b606060003390506000808054905067ffffffffffffffff8111156200011b576200011a620006fb565b5b6040519080825280602002602001820160405280156200014a5781602001602082028036833780820191505090505b50905060008080549050905060005b81811015620002e35760008082815481106200017a576200017962000bf5565b5b9060005260206000200160009054906101000a900473ffffffffffffffffffffffffffffffffffffffff1673ffffffffffffffffffffffffffffffffffffffff166337b7b9b8866040518263ffffffff1660e01b8152600401620001df9190620006c3565b602060405180830381865afa158015620001fd573d6000803e3d6000fd5b505050506040513d601f19601f8201168201806040525081019062000223919062000c61565b90508015620002c4576000828154811062000243576200024262000bf5565b5b9060005260206000200160009054906101000a900473ffffffffffffffffffffffffffffffffffffffff1684838151811062000284576200028362000bf5565b5b602002602001019073ffffffffffffffffffffffffffffffffffffffff16908173ffffffffffffffffffffffffffffffffffffffff1681525050620002cb565b50620002cd565b505b8080620002da9062000cc2565b91505062000159565b5081935050505090565b60008181548110620002fe57600080fd5b906000526020600020016000915054906101000a900473ffffffffffffffffffffffffffffffffffffffff1681565b6000848484846040516200034190620004a3565b62000350949392919062000ed5565b604051809103906000f0801580156200036d573d6000803e3d6000fd5b5090506000819080600181540180825580915050600190039060005260206000200160009091909190916101000a81548173ffffffffffffffffffffffffffffffffffffffff021916908373ffffffffffffffffffffffffffffffffffffffff1602179055507f8ffcdc15a283d706d38281f500270d8b5a656918f555de0913d7455e3e6bc1bf81604051620004049190620006c3565b60405180910390a15050505050565b606060008054806020026020016040519081016040528092919081815260200182805480156200049957602002820191906000526020600020905b8160009054906101000a900473ffffffffffffffffffffffffffffffffffffffff1673ffffffffffffffffffffffffffffffffffffffff16815260200190600101908083116200044e575b5050505050905090565b6128fa8062000f3883390190565b600081519050919050565b600082825260208201905092915050565b6000819050602082019050919050565b600073ffffffffffffffffffffffffffffffffffffffff82169050919050565b6000819050919050565b600062000528620005226200051c84620004dd565b620004fd565b620004dd565b9050919050565b60006200053c8262000507565b9050919050565b600062000550826200052f565b9050919050565b620005628162000543565b82525050565b600062000576838362000557565b60208301905092915050565b6000602082019050919050565b60006200059c82620004b1565b620005a88185620004bc565b9350620005b583620004cd565b8060005b83811015620005ec578151620005d0888262000568565b9750620005dd8362000582565b925050600181019050620005b9565b5085935050505092915050565b600060208201905081810360008301526200061581846200058f565b905092915050565b6000604051905090565b600080fd5b600080fd5b6000819050919050565b620006468162000631565b81146200065257600080fd5b50565b60008135905062000666816200063b565b92915050565b60006020828403121562000685576200068462000627565b5b6000620006958482850162000655565b91505092915050565b6000620006ab82620004dd565b9050919050565b620006bd816200069e565b82525050565b6000602082019050620006da6000830184620006b2565b92915050565b600080fd5b600080fd5b6000601f19601f8301169050919050565b7f4e487b7100000000000000000000000000000000000000000000000000000000600052604160045260246000fd5b6200073582620006ea565b810181811067ffffffffffffffff82111715620007575762000756620006fb565b5b80604052505050565b60006200076c6200061d565b90506200077a82826200072a565b919050565b600067ffffffffffffffff8211156200079d576200079c620006fb565b5b620007a882620006ea565b9050602081019050919050565b82818337600083830152505050565b6000620007db620007d5846200077f565b62000760565b905082815260208101848484011115620007fa57620007f9620006e5565b5b62000807848285620007b5565b509392505050565b600082601f830112620008275762000826620006e0565b5b813562000839848260208601620007c4565b91505092915050565b600067ffffffffffffffff82111562000860576200085f620006fb565b5b602082029050602081019050919050565b600080fd5b60006200088d620008878462000842565b62000760565b90508083825260208201905060208402830185811115620008b357620008b262000871565b5b835b818110156200090157803567ffffffffffffffff811115620008dc57620008db620006e0565b5b808601620008eb89826200080f565b85526020850194505050602081019050620008b5565b5050509392505050565b600082601f830112620009235762000922620006e0565b5b81356200093584826020860162000876565b91505092915050565b600067ffffffffffffffff8211156200095c576200095b620006fb565b5b602082029050602081019050919050565b62000978816200069e565b81146200098457600080fd5b50565b60008135905062000998816200096d565b92915050565b6000620009b5620009af846200093e565b62000760565b90508083825260208201905060208402830185811115620009db57620009da62000871565b5b835b8181101562000a085780620009f3888262000987565b845260208401935050602081019050620009dd565b5050509392505050565b600082601f83011262000a2a5762000a29620006e0565b5b813562000a3c8482602086016200099e565b91505092915050565b6000806000806080858703121562000a625762000a6162000627565b5b600085013567ffffffffffffffff81111562000a835762000a826200062c565b5b62000a91878288016200080f565b945050602085013567ffffffffffffffff81111562000ab55762000ab46200062c565b5b62000ac3878288016200090b565b935050604085013567ffffffffffffffff81111562000ae75762000ae66200062c565b5b62000af58782880162000a12565b925050606062000b088782880162000655565b91505092959194509250565b600081519050919050565b6000819050602082019050919050565b62000b3a816200069e565b82525050565b600062000b4e838362000b2f565b60208301905092915050565b6000602082019050919050565b600062000b748262000b14565b62000b808185620004bc565b935062000b8d8362000b1f565b8060005b8381101562000bc457815162000ba8888262000b40565b975062000bb58362000b5a565b92505060018101905062000b91565b5085935050505092915050565b6000602082019050818103600083015262000bed818462000b67565b905092915050565b7f4e487b7100000000000000000000000000000000000000000000000000000000600052603260045260246000fd5b60008115159050919050565b62000c3b8162000c24565b811462000c4757600080fd5b50565b60008151905062000c5b8162000c30565b92915050565b60006020828403121562000c7a5762000c7962000627565b5b600062000c8a8482850162000c4a565b91505092915050565b7f4e487b7100000000000000000000000000000000000000000000000000000000600052601160045260246000fd5b600062000ccf8262000631565b91507fffffffffffffffffffffffffffffffffffffffffffffffffffffffffffffffff820362000d045762000d0362000c93565b5b600182019050919050565b600081519050919050565b600082825260208201905092915050565b60005b8381101562000d4b57808201518184015260208101905062000d2e565b8381111562000d5b576000848401525b50505050565b600062000d6e8262000d0f565b62000d7a818562000d1a565b935062000d8c81856020860162000d2b565b62000d9781620006ea565b840191505092915050565b600081519050919050565b600082825260208201905092915050565b6000819050602082019050919050565b600082825260208201905092915050565b600062000dec8262000d0f565b62000df8818562000dce565b935062000e0a81856020860162000d2b565b62000e1581620006ea565b840191505092915050565b600062000e2e838362000ddf565b905092915050565b6000602082019050919050565b600062000e508262000da2565b62000e5c818562000dad565b93508360208202850162000e708562000dbe565b8060005b8581101562000eb2578484038952815162000e90858262000e20565b945062000e9d8362000e36565b925060208a0199505060018101905062000e74565b50829750879550505050505092915050565b62000ecf8162000631565b82525050565b6000608082019050818103600083015262000ef1818762000d61565b9050818103602083015262000f07818662000e43565b9050818103604083015262000f1d818562000b67565b905062000f2e606083018462000ec4565b9594505050505056fe60806040523480156200001157600080fd5b50604051620028fa380380620028fa8339818101604052810190620000379190620006c9565b33600660026101000a81548173ffffffffffffffffffffffffffffffffffffffff021916908373ffffffffffffffffffffffffffffffffffffffff1602179055508360009080519060200190620000909291906200020a565b50806004819055506000600660006101000a81548160ff0219169083151502179055506000600660016101000a81548160ff02191690831515021790555060005b83518110156200017a5760036040518060400160405280868481518110620000fe57620000fd62000798565b5b60200260200101518152602001600081525090806001815401808255809150506001900390600052602060002090600202016000909190919091506000820151816000019080519060200190620001579291906200020a565b5060208201518160010155505080806200017190620007f6565b915050620000d1565b5060005b8251811015620001ff576001806000858481518110620001a357620001a262000798565b5b602002602001015173ffffffffffffffffffffffffffffffffffffffff1673ffffffffffffffffffffffffffffffffffffffff168152602001908152602001600020819055508080620001f690620007f6565b9150506200017e565b5050505050620008a7565b828054620002189062000872565b90600052602060002090601f0160209004810192826200023c576000855562000288565b82601f106200025757805160ff191683800117855562000288565b8280016001018555821562000288579182015b82811115620002875782518255916020019190600101906200026a565b5b5090506200029791906200029b565b5090565b5b80821115620002b65760008160009055506001016200029c565b5090565b6000604051905090565b600080fd5b600080fd5b600080fd5b600080fd5b6000601f19601f8301169050919050565b7f4e487b7100000000000000000000000000000000000000000000000000000000600052604160045260246000fd5b6200032382620002d8565b810181811067ffffffffffffffff82111715620003455762000344620002e9565b5b80604052505050565b60006200035a620002ba565b905062000368828262000318565b919050565b600067ffffffffffffffff8211156200038b576200038a620002e9565b5b6200039682620002d8565b9050602081019050919050565b60005b83811015620003c3578082015181840152602081019050620003a6565b83811115620003d3576000848401525b50505050565b6000620003f0620003ea846200036d565b6200034e565b9050828152602081018484840111156200040f576200040e620002d3565b5b6200041c848285620003a3565b509392505050565b600082601f8301126200043c576200043b620002ce565b5b81516200044e848260208601620003d9565b91505092915050565b600067ffffffffffffffff821115620004755762000474620002e9565b5b602082029050602081019050919050565b600080fd5b6000620004a26200049c8462000457565b6200034e565b90508083825260208201905060208402830185811115620004c857620004c762000486565b5b835b818110156200051657805167ffffffffffffffff811115620004f157620004f0620002ce565b5b80860162000500898262000424565b85526020850194505050602081019050620004ca565b5050509392505050565b600082601f830112620005385762000537620002ce565b5b81516200054a8482602086016200048b565b91505092915050565b600067ffffffffffffffff821115620005715762000570620002e9565b5b602082029050602081019050919050565b600073ffffffffffffffffffffffffffffffffffffffff82169050919050565b6000620005af8262000582565b9050919050565b620005c181620005a2565b8114620005cd57600080fd5b50565b600081519050620005e181620005b6565b92915050565b6000620005fe620005f88462000553565b6200034e565b9050808382526020820190506020840283018581111562000624576200062362000486565b5b835b818110156200065157806200063c8882620005d0565b84526020840193505060208101905062000626565b5050509392505050565b600082601f830112620006735762000672620002ce565b5b815162000685848260208601620005e7565b91505092915050565b6000819050919050565b620006a3816200068e565b8114620006af57600080fd5b50565b600081519050620006c38162000698565b92915050565b60008060008060808587031215620006e657620006e5620002c4565b5b600085015167ffffffffffffffff811115620007075762000706620002c9565b5b620007158782880162000424565b945050602085015167ffffffffffffffff811115620007395762000738620002c9565b5b620007478782880162000520565b935050604085015167ffffffffffffffff8111156200076b576200076a620002c9565b5b62000779878288016200065b565b92505060606200078c87828801620006b2565b91505092959194509250565b7f4e487b7100000000000000000000000000000000000000000000000000000000600052603260045260246000fd5b7f4e487b7100000000000000000000000000000000000000000000000000000000600052601160045260246000fd5b600062000803826200068e565b91507fffffffffffffffffffffffffffffffffffffffffffffffffffffffffffffffff8203620008385762000837620007c7565b5b600182019050919050565b7f4e487b7100000000000000000000000000000000000000000000000000000000600052602260045260246000fd5b600060028204905060018216806200088b57607f821691505b602082108103620008a157620008a062000843565b5b50919050565b61204380620008b76000396000f3fe608060405234801561001057600080fd5b50600436106101215760003560e01c80634a79d50c116100ad5780639d5a0529116100715780639d5a0529146102cf578063aab46b7f146102ed578063bfae21721461030b578063c3403ddf14610327578063de2927891461033157610121565b80634a79d50c1461023d57806362564c481461025b5780636eb836891461027957806383d948b7146102955780639bd4dd3c146102b357610121565b80631ec6b60a116100f45780631ec6b60a146101ad5780632019a608146101b75780632fdae3c5146101d557806337b7b9b8146101f157806347ee03941461022157610121565b80630121b93f14610126578063013cf08b1461014257806301bf664814610173578063132002fc1461018f575b600080fd5b610140600480360381019061013b9190611682565b61034f565b005b61015c60048036038101906101579190611682565b610584565b60405161016a929190611757565b60405180910390f35b61018d600480360381019061018891906117e5565b610640565b005b61019761086a565b6040516101a49190611812565b60405180910390f35b6101b5610870565b005b6101bf610975565b6040516101cc9190611812565b60405180910390f35b6101ef60048036038101906101ea9190611962565b61097b565b005b61020b600480360381019061020691906117e5565b610b1f565b60405161021891906119c6565b60405180910390f35b61023b600480360381019061023691906117e5565b610b75565b005b610245610d9d565b60405161025291906119e1565b60405180910390f35b610263610e2b565b6040516102709190611b0f565b60405180910390f35b610293600480360381019061028e9190611962565b610f7c565b005b61029d6110cd565b6040516102aa91906119c6565b60405180910390f35b6102cd60048036038101906102c89190611682565b6110e0565b005b6102d7611221565b6040516102e491906119c6565b60405180910390f35b6102f5611234565b6040516103029190611b40565b60405180910390f35b61032560048036038101906103209190611b5b565b61125a565b005b61032f6113cf565b005b6103396114cd565b6040516103469190611812565b60405180910390f35b60011515600260003373ffffffffffffffffffffffffffffffffffffffff1673ffffffffffffffffffffffffffffffffffffffff16815260200190815260200160002060009054906101000a900460ff161515146103e2576040517f08c379a00000000000000000000000000000000000000000000000000000000081526004016103d990611c29565b60405180910390fd5b6004546005546103f29190611c78565b4210610433576040517f08c379a000000000000000000000000000000000000000000000000000000000815260040161042a90611d1a565b60405180910390fd5b6000600160003373ffffffffffffffffffffffffffffffffffffffff1673ffffffffffffffffffffffffffffffffffffffff16815260200190815260200160002054116104b5576040517f08c379a00000000000000000000000000000000000000000000000000000000081526004016104ac90611dac565b60405180910390fd5b60003390506000600160008373ffffffffffffffffffffffffffffffffffffffff1673ffffffffffffffffffffffffffffffffffffffff168152602001908152602001600020549050806003848154811061051357610512611dcc565b5b906000526020600020906002020160010160008282546105339190611c78565b925050819055506000600160008473ffffffffffffffffffffffffffffffffffffffff1673ffffffffffffffffffffffffffffffffffffffff16815260200190815260200160002081905550505050565b6003818154811061059457600080fd5b90600052602060002090600202016000915090508060000180546105b790611e2a565b80601f01602080910402602001604051908101604052809291908181526020018280546105e390611e2a565b80156106305780601f1061060557610100808354040283529160200191610630565b820191906000526020600020905b81548152906001019060200180831161061357829003601f168201915b5050505050908060010154905082565b600660029054906101000a900473ffffffffffffffffffffffffffffffffffffffff1673ffffffffffffffffffffffffffffffffffffffff163373ffffffffffffffffffffffffffffffffffffffff16146106d0576040517f08c379a00000000000000000000000000000000000000000000000000000000081526004016106c790611ecd565b60405180910390fd5b60001515600660019054906101000a900460ff16151514610726576040517f08c379a000000000000000000000000000000000000000000000000000000000815260040161071d90611f39565b60405180910390fd5b6004546005546107369190611c78565b4210610777576040517f08c379a000000000000000000000000000000000000000000000000000000000815260040161076e90611d1a565b60405180910390fd5b600260008273ffffffffffffffffffffffffffffffffffffffff1673ffffffffffffffffffffffffffffffffffffffff16815260200190815260200160002060009054906101000a900460ff1615610867576000600160008373ffffffffffffffffffffffffffffffffffffffff1673ffffffffffffffffffffffffffffffffffffffff168152602001908152602001600020819055506000600260008373ffffffffffffffffffffffffffffffffffffffff1673ffffffffffffffffffffffffffffffffffffffff16815260200190815260200160002060006101000a81548160ff0219169083151502179055505b50565b60045481565b600660029054906101000a900473ffffffffffffffffffffffffffffffffffffffff1673ffffffffffffffffffffffffffffffffffffffff163373ffffffffffffffffffffffffffffffffffffffff1614610900576040517f08c379a00000000000000000000000000000000000000000000000000000000081526004016108f790611ecd565b60405180910390fd5b6004546005546109109190611c78565b4210610951576040517f08c379a000000000000000000000000000000000000000000000000000000000815260040161094890611d1a565b60405180910390fd5b426005819055506001600660016101000a81548160ff021916908315150217905550565b60055481565b600660029054906101000a900473ffffffffffffffffffffffffffffffffffffffff1673ffffffffffffffffffffffffffffffffffffffff163373ffffffffffffffffffffffffffffffffffffffff1614610a0b576040517f08c379a0000000000000000000000000000000000000000000000000000000008152600401610a0290611ecd565b60405180910390fd5b60001515600660019054906101000a900460ff16151514610a61576040517f08c379a0000000000000000000000000000000000000000000000000000000008152600401610a5890611f39565b60405180910390fd5b600454600554610a719190611c78565b4210610ab2576040517f08c379a0000000000000000000000000000000000000000000000000000000008152600401610aa990611d1a565b60405180910390fd5b60036040518060400160405280838152602001600081525090806001815401808255809150506001900390600052602060002090600202016000909190919091506000820151816000019080519060200190610b0f929190611595565b5060208201518160010155505050565b6000600260008373ffffffffffffffffffffffffffffffffffffffff1673ffffffffffffffffffffffffffffffffffffffff16815260200190815260200160002060009054906101000a900460ff169050919050565b600660029054906101000a900473ffffffffffffffffffffffffffffffffffffffff1673ffffffffffffffffffffffffffffffffffffffff163373ffffffffffffffffffffffffffffffffffffffff1614610c05576040517f08c379a0000000000000000000000000000000000000000000000000000000008152600401610bfc90611ecd565b60405180910390fd5b60001515600660019054906101000a900460ff16151514610c5b576040517f08c379a0000000000000000000000000000000000000000000000000000000008152600401610c5290611f39565b60405180910390fd5b600454600554610c6b9190611c78565b4210610cac576040517f08c379a0000000000000000000000000000000000000000000000000000000008152600401610ca390611d1a565b60405180910390fd5b600260008273ffffffffffffffffffffffffffffffffffffffff1673ffffffffffffffffffffffffffffffffffffffff16815260200190815260200160002060009054906101000a900460ff16610d9a5760018060008373ffffffffffffffffffffffffffffffffffffffff1673ffffffffffffffffffffffffffffffffffffffff168152602001908152602001600020819055506001600260008373ffffffffffffffffffffffffffffffffffffffff1673ffffffffffffffffffffffffffffffffffffffff16815260200190815260200160002060006101000a81548160ff0219169083151502179055505b50565b60008054610daa90611e2a565b80601f0160208091040260200160405190810160405280929190818152602001828054610dd690611e2a565b8015610e235780601f10610df857610100808354040283529160200191610e23565b820191906000526020600020905b815481529060010190602001808311610e0657829003601f168201915b505050505081565b60606000600380549050905060008167ffffffffffffffff811115610e5357610e52611837565b5b604051908082528060200260200182016040528015610e8657816020015b6060815260200190600190039081610e715790505b50905060005b82811015610f735760038181548110610ea857610ea7611dcc565b5b90600052602060002090600202016000018054610ec490611e2a565b80601f0160208091040260200160405190810160405280929190818152602001828054610ef090611e2a565b8015610f3d5780601f10610f1257610100808354040283529160200191610f3d565b820191906000526020600020905b815481529060010190602001808311610f2057829003601f168201915b5050505050828281518110610f5557610f54611dcc565b5b60200260200101819052508080610f6b90611f59565b915050610e8c565b50809250505090565b600660029054906101000a900473ffffffffffffffffffffffffffffffffffffffff1673ffffffffffffffffffffffffffffffffffffffff163373ffffffffffffffffffffffffffffffffffffffff161461100c576040517f08c379a000000000000000000000000000000000000000000000000000000000815260040161100390611ecd565b60405180910390fd5b60001515600660019054906101000a900460ff16151514611062576040517f08c379a000000000000000000000000000000000000000000000000000000000815260040161105990611f39565b60405180910390fd5b6004546005546110729190611c78565b42106110b3576040517f08c379a00000000000000000000000000000000000000000000000000000000081526004016110aa90611d1a565b60405180910390fd5b80600090805190602001906110c9929190611595565b5050565b600660019054906101000a900460ff1681565b600660029054906101000a900473ffffffffffffffffffffffffffffffffffffffff1673ffffffffffffffffffffffffffffffffffffffff163373ffffffffffffffffffffffffffffffffffffffff1614611170576040517f08c379a000000000000000000000000000000000000000000000000000000000815260040161116790611ecd565b60405180910390fd5b60001515600660019054906101000a900460ff161515146111c6576040517f08c379a00000000000000000000000000000000000000000000000000000000081526004016111bd90611f39565b60405180910390fd5b6004546005546111d69190611c78565b4210611217576040517f08c379a000000000000000000000000000000000000000000000000000000000815260040161120e90611d1a565b60405180910390fd5b8060048190555050565b600660009054906101000a900460ff1681565b600660029054906101000a900473ffffffffffffffffffffffffffffffffffffffff1681565b600660029054906101000a900473ffffffffffffffffffffffffffffffffffffffff1673ffffffffffffffffffffffffffffffffffffffff163373ffffffffffffffffffffffffffffffffffffffff16146112ea576040517f08c379a00000000000000000000000000000000000000000000000000000000081526004016112e190611ecd565b60405180910390fd5b60001515600660019054906101000a900460ff16151514611340576040517f08c379a000000000000000000000000000000000000000000000000000000000815260040161133790611f39565b60405180910390fd5b6004546005546113509190611c78565b4210611391576040517f08c379a000000000000000000000000000000000000000000000000000000000815260040161138890611d1a565b60405180910390fd5b80600383815481106113a6576113a5611dcc565b5b906000526020600020906002020160000190805190602001906113ca929190611595565b505050565b600660029054906101000a900473ffffffffffffffffffffffffffffffffffffffff1673ffffffffffffffffffffffffffffffffffffffff163373ffffffffffffffffffffffffffffffffffffffff161461145f576040517f08c379a000000000000000000000000000000000000000000000000000000000815260040161145690611ecd565b60405180910390fd5b60045460055461146f9190611c78565b42106114b0576040517f08c379a00000000000000000000000000000000000000000000000000000000081526004016114a790611d1a565b60405180910390fd5b6001600660006101000a81548160ff021916908315150217905550565b60006004544211611513576040517f08c379a000000000000000000000000000000000000000000000000000000000815260040161150a90611fed565b60405180910390fd5b6000805b60038054905081101561159057816003828154811061153957611538611dcc565b5b906000526020600020906002020160010154111561157d576003818154811061156557611564611dcc565b5b90600052602060002090600202016001015491508092505b808061158890611f59565b915050611517565b505090565b8280546115a190611e2a565b90600052602060002090601f0160209004810192826115c3576000855561160a565b82601f106115dc57805160ff191683800117855561160a565b8280016001018555821561160a579182015b828111156116095782518255916020019190600101906115ee565b5b509050611617919061161b565b5090565b5b8082111561163457600081600090555060010161161c565b5090565b6000604051905090565b600080fd5b600080fd5b6000819050919050565b61165f8161164c565b811461166a57600080fd5b50565b60008135905061167c81611656565b92915050565b60006020828403121561169857611697611642565b5b60006116a68482850161166d565b91505092915050565b600081519050919050565b600082825260208201905092915050565b60005b838110156116e95780820151818401526020810190506116ce565b838111156116f8576000848401525b50505050565b6000601f19601f8301169050919050565b600061171a826116af565b61172481856116ba565b93506117348185602086016116cb565b61173d816116fe565b840191505092915050565b6117518161164c565b82525050565b60006040820190508181036000830152611771818561170f565b90506117806020830184611748565b9392505050565b600073ffffffffffffffffffffffffffffffffffffffff82169050919050565b60006117b282611787565b9050919050565b6117c2816117a7565b81146117cd57600080fd5b50565b6000813590506117df816117b9565b92915050565b6000602082840312156117fb576117fa611642565b5b6000611809848285016117d0565b91505092915050565b60006020820190506118276000830184611748565b92915050565b600080fd5b600080fd5b7f4e487b7100000000000000000000000000000000000000000000000000000000600052604160045260246000fd5b61186f826116fe565b810181811067ffffffffffffffff8211171561188e5761188d611837565b5b80604052505050565b60006118a1611638565b90506118ad8282611866565b919050565b600067ffffffffffffffff8211156118cd576118cc611837565b5b6118d6826116fe565b9050602081019050919050565b82818337600083830152505050565b6000611905611900846118b2565b611897565b90508281526020810184848401111561192157611920611832565b5b61192c8482856118e3565b509392505050565b600082601f8301126119495761194861182d565b5b81356119598482602086016118f2565b91505092915050565b60006020828403121561197857611977611642565b5b600082013567ffffffffffffffff81111561199657611995611647565b5b6119a284828501611934565b91505092915050565b60008115159050919050565b6119c0816119ab565b82525050565b60006020820190506119db60008301846119b7565b92915050565b600060208201905081810360008301526119fb818461170f565b905092915050565b600081519050919050565b600082825260208201905092915050565b6000819050602082019050919050565b600082825260208201905092915050565b6000611a4b826116af565b611a558185611a2f565b9350611a658185602086016116cb565b611a6e816116fe565b840191505092915050565b6000611a858383611a40565b905092915050565b6000602082019050919050565b6000611aa582611a03565b611aaf8185611a0e565b935083602082028501611ac185611a1f565b8060005b85811015611afd5784840389528151611ade8582611a79565b9450611ae983611a8d565b925060208a01995050600181019050611ac5565b50829750879550505050505092915050565b60006020820190508181036000830152611b298184611a9a565b905092915050565b611b3a816117a7565b82525050565b6000602082019050611b556000830184611b31565b92915050565b60008060408385031215611b7257611b71611642565b5b6000611b808582860161166d565b925050602083013567ffffffffffffffff811115611ba157611ba0611647565b5b611bad85828601611934565b9150509250929050565b7f596f7520617265206e6f7420616c6c6f77656420746f20766f746520696e207460008201527f68697320656c656374696f6e2e00000000000000000000000000000000000000602082015250565b6000611c13602d836116ba565b9150611c1e82611bb7565b604082019050919050565b60006020820190508181036000830152611c4281611c06565b9050919050565b7f4e487b7100000000000000000000000000000000000000000000000000000000600052601160045260246000fd5b6000611c838261164c565b9150611c8e8361164c565b9250827fffffffffffffffffffffffffffffffffffffffffffffffffffffffffffffffff03821115611cc357611cc2611c49565b5b828201905092915050565b7f566f74696e672068617320616c726561647920656e6465642e00000000000000600082015250565b6000611d046019836116ba565b9150611d0f82611cce565b602082019050919050565b60006020820190508181036000830152611d3381611cf7565b9050919050565b7f596f75206861766520616c726561647920766f74656420696e2074686973206560008201527f6c656374696f6e2e000000000000000000000000000000000000000000000000602082015250565b6000611d966028836116ba565b9150611da182611d3a565b604082019050919050565b60006020820190508181036000830152611dc581611d89565b9050919050565b7f4e487b7100000000000000000000000000000000000000000000000000000000600052603260045260246000fd5b7f4e487b7100000000000000000000000000000000000000000000000000000000600052602260045260246000fd5b60006002820490506001821680611e4257607f821691505b602082108103611e5557611e54611dfb565b5b50919050565b7f4f6e6c7920456c656374696f6e20436f6d6d697373696f6e2063616e2067697660008201527f6520726967687420746f20766f74652e00000000000000000000000000000000602082015250565b6000611eb76030836116ba565b9150611ec282611e5b565b604082019050919050565b60006020820190508181036000830152611ee681611eaa565b9050919050565b7f566f74696e672068617320616c726561647920737461727465642e0000000000600082015250565b6000611f23601b836116ba565b9150611f2e82611eed565b602082019050919050565b60006020820190508181036000830152611f5281611f16565b9050919050565b6000611f648261164c565b91507fffffffffffffffffffffffffffffffffffffffffffffffffffffffffffffffff8203611f9657611f95611c49565b5b600182019050919050565b7f566f74696e6720686173206e6f7420656e646564207965742e00000000000000600082015250565b6000611fd76019836116ba565b9150611fe282611fa1565b602082019050919050565b6000602082019050818103600083015261200681611fca565b905091905056fea26469706673582212209a0538b5cc05e44fa3bbd762604642b736e70750a1682c327ca8d06db9ee3f8b64736f6c634300080d0033a26469706673582212208b94fc0552e05195c42f82e7c687583f1bfb40b527baf44548924bef2db8301c64736f6c634300080d0033",
  "immutableReferences": {},
  "source": "// SPDX-License-Identifier: MIT\npragma solidity ^0.8.0;\n\nimport {Voting} from \"./Voting.sol\";\n\ncontract VotingFactory {\n    address[] public deployedContracts;\n    event ContractDeployed(address deployedAddress);\n\n    function deploy(\n        string memory _title,\n        string[] memory _proposals,\n        address[] memory _whiteList,\n        uint256 duration\n    ) public {\n        // if (bytes(_title).length == bytes(\"\").length) {\n        //     if (\n        //         keccak256(abi.encodePacked(_title)) ==\n        //         keccak256(abi.encodePacked(\"\"))\n        //     ) {\n        //         revert(\"Title cannot be empty.\");\n        //     }\n        // }\n\n        address newContract = address(\n            new Voting(_title, _proposals, _whiteList, duration)\n        );\n        deployedContracts.push(newContract);\n        emit ContractDeployed(newContract);\n    }\n\n    function getDeployedContracts() public view returns (address[] memory) {\n        return deployedContracts;\n    }\n\n    function getVotings() public view returns (Voting[] memory) {\n        address voter = msg.sender;\n\n        Voting[] memory votingContracts = new Voting[](\n            deployedContracts.length\n        );\n\n        uint arrayLength = deployedContracts.length;\n        for (uint i = 0; i < arrayLength; i++) {\n            bool isWhiteListed = Voting(deployedContracts[i]).getIsWhiteListed(\n                voter\n            );\n\n            if (isWhiteListed) {\n                votingContracts[i] = Voting(deployedContracts[i]);\n            } else continue;\n        }\n\n        return votingContracts;\n    }\n}\n",
  "sourcePath": "/home/lucas/Documentos/faculdade/TCC/TCC_blockchain_voting/blockchain/contracts/VotingFactory.sol",
  "compiler": {
    "name": "solc",
    "version": "0.8.13+commit.abaa5c0e.Emscripten.clang"
  },
  "schemaVersion": "3.4.10",
  "updatedAt": "2023-05-30T17:02:32.689Z",
  "networkType": "ethereum",
  "devdoc": {
    "kind": "dev",
    "methods": {},
    "version": 1
  },
  "userdoc": {
    "kind": "user",
    "methods": {},
    "version": 1
  }
}