{
  "contractName": "Voting",
  "abi": [
    {
      "inputs": [
        {
          "internalType": "address",
          "name": "_electionCommission",
          "type": "address"
        },
        {
          "internalType": "string",
          "name": "_title",
          "type": "string"
        },
        {
          "internalType": "string[]",
          "name": "_proposals",
          "type": "string[]"
        },
        {
          "internalType": "address[]",
          "name": "_whiteList",
          "type": "address[]"
        },
        {
          "internalType": "uint256",
          "name": "duration",
          "type": "uint256"
        }
      ],
      "stateMutability": "nonpayable",
      "type": "constructor"
    },
    {
      "inputs": [],
      "name": "electionCommission",
      "outputs": [
        {
          "internalType": "address",
          "name": "",
          "type": "address"
        }
      ],
      "stateMutability": "view",
      "type": "function"
    },
    {
      "inputs": [
        {
          "internalType": "uint256",
          "name": "",
          "type": "uint256"
        }
      ],
      "name": "proposals",
      "outputs": [
        {
          "internalType": "string",
          "name": "name",
          "type": "string"
        },
        {
          "internalType": "uint256",
          "name": "voteCount",
          "type": "uint256"
        }
      ],
      "stateMutability": "view",
      "type": "function"
    },
    {
      "inputs": [],
      "name": "title",
      "outputs": [
        {
          "internalType": "string",
          "name": "",
          "type": "string"
        }
      ],
      "stateMutability": "view",
      "type": "function"
    },
    {
      "inputs": [],
      "name": "votingDuration",
      "outputs": [
        {
          "internalType": "uint256",
          "name": "",
          "type": "uint256"
        }
      ],
      "stateMutability": "view",
      "type": "function"
    },
    {
      "inputs": [],
      "name": "votingEnded",
      "outputs": [
        {
          "internalType": "bool",
          "name": "",
          "type": "bool"
        }
      ],
      "stateMutability": "view",
      "type": "function"
    },
    {
      "inputs": [],
      "name": "votingStartTime",
      "outputs": [
        {
          "internalType": "uint256",
          "name": "",
          "type": "uint256"
        }
      ],
      "stateMutability": "view",
      "type": "function"
    },
    {
      "inputs": [],
      "name": "votingStarted",
      "outputs": [
        {
          "internalType": "bool",
          "name": "",
          "type": "bool"
        }
      ],
      "stateMutability": "view",
      "type": "function"
    },
    {
      "inputs": [
        {
          "internalType": "uint256",
          "name": "",
          "type": "uint256"
        }
      ],
      "name": "whiteListedAddresses",
      "outputs": [
        {
          "internalType": "address",
          "name": "",
          "type": "address"
        }
      ],
      "stateMutability": "view",
      "type": "function"
    },
    {
      "inputs": [
        {
          "internalType": "address",
          "name": "key",
          "type": "address"
        }
      ],
      "name": "getExists",
      "outputs": [
        {
          "internalType": "bool",
          "name": "",
          "type": "bool"
        }
      ],
      "stateMutability": "view",
      "type": "function"
    },
    {
      "inputs": [
        {
          "internalType": "address",
          "name": "voter",
          "type": "address"
        }
      ],
      "name": "addToWhiteList",
      "outputs": [],
      "stateMutability": "nonpayable",
      "type": "function"
    },
    {
      "inputs": [
        {
          "internalType": "address",
          "name": "voter",
          "type": "address"
        }
      ],
      "name": "removeFromWhiteList",
      "outputs": [],
      "stateMutability": "nonpayable",
      "type": "function"
    },
    {
      "inputs": [],
      "name": "getProposals",
      "outputs": [
        {
          "internalType": "string[]",
          "name": "",
          "type": "string[]"
        }
      ],
      "stateMutability": "view",
      "type": "function"
    },
    {
      "inputs": [],
      "name": "getWhiteListedAddresses",
      "outputs": [
        {
          "internalType": "address[]",
          "name": "",
          "type": "address[]"
        }
      ],
      "stateMutability": "view",
      "type": "function"
    },
    {
      "inputs": [
        {
          "internalType": "uint256",
          "name": "proposal",
          "type": "uint256"
        },
        {
          "internalType": "string",
          "name": "newName",
          "type": "string"
        }
      ],
      "name": "editProposal",
      "outputs": [],
      "stateMutability": "nonpayable",
      "type": "function"
    },
    {
      "inputs": [
        {
          "internalType": "string",
          "name": "newName",
          "type": "string"
        }
      ],
      "name": "addProposal",
      "outputs": [],
      "stateMutability": "nonpayable",
      "type": "function"
    },
    {
      "inputs": [
        {
          "internalType": "string",
          "name": "newTitle",
          "type": "string"
        }
      ],
      "name": "editTitle",
      "outputs": [],
      "stateMutability": "nonpayable",
      "type": "function"
    },
    {
      "inputs": [
        {
          "internalType": "uint256",
          "name": "newDeadline",
          "type": "uint256"
        }
      ],
      "name": "editDeadline",
      "outputs": [],
      "stateMutability": "nonpayable",
      "type": "function"
    },
    {
      "inputs": [
        {
          "internalType": "uint256",
          "name": "proposal",
          "type": "uint256"
        }
      ],
      "name": "vote",
      "outputs": [],
      "stateMutability": "nonpayable",
      "type": "function"
    },
    {
      "inputs": [
        {
          "internalType": "address",
          "name": "key",
          "type": "address"
        }
      ],
      "name": "getIsWhiteListed",
      "outputs": [
        {
          "internalType": "bool",
          "name": "",
          "type": "bool"
        }
      ],
      "stateMutability": "view",
      "type": "function"
    },
    {
      "inputs": [],
      "name": "startVoting",
      "outputs": [],
      "stateMutability": "nonpayable",
      "type": "function"
    },
    {
      "inputs": [],
      "name": "endVoting",
      "outputs": [],
      "stateMutability": "nonpayable",
      "type": "function"
    },
    {
      "inputs": [],
      "name": "getIsOpen",
      "outputs": [
        {
          "internalType": "bool",
          "name": "",
          "type": "bool"
        }
      ],
      "stateMutability": "view",
      "type": "function"
    },
    {
      "inputs": [],
      "name": "getResult",
      "outputs": [
        {
          "internalType": "uint256",
          "name": "winningProposal_",
          "type": "uint256"
        }
      ],
      "stateMutability": "view",
      "type": "function"
    }
  ],
  "bytecode": "0x60806040523480156200001157600080fd5b5060405162002eb038038062002eb08339818101604052810190620000379190620007bf565b84600760026101000a81548173ffffffffffffffffffffffffffffffffffffffff021916908373ffffffffffffffffffffffffffffffffffffffff16021790555083600090805190602001906200009092919062000300565b50806005819055506000600760006101000a81548160ff0219169083151502179055506000600760016101000a81548160ff02191690831515021790555060005b83518110156200017a5760046040518060400160405280868481518110620000fe57620000fd620008a4565b5b602002602001015181526020016000815250908060018154018082558091505060019003906000526020600020906002020160009091909190915060008201518160000190805190602001906200015792919062000300565b506020820151816001015550508080620001719062000902565b915050620000d1565b5060005b8251811015620002f4576001806000858481518110620001a357620001a2620008a4565b5b602002602001015173ffffffffffffffffffffffffffffffffffffffff1673ffffffffffffffffffffffffffffffffffffffff16815260200190815260200160002081905550600160026000858481518110620002055762000204620008a4565b5b602002602001015173ffffffffffffffffffffffffffffffffffffffff1673ffffffffffffffffffffffffffffffffffffffff16815260200190815260200160002060006101000a81548160ff0219169083151502179055506003838281518110620002765762000275620008a4565b5b60200260200101519080600181540180825580915050600190039060005260206000200160009091909190916101000a81548173ffffffffffffffffffffffffffffffffffffffff021916908373ffffffffffffffffffffffffffffffffffffffff1602179055508080620002eb9062000902565b9150506200017e565b505050505050620009b3565b8280546200030e906200097e565b90600052602060002090601f0160209004810192826200033257600085556200037e565b82601f106200034d57805160ff19168380011785556200037e565b828001600101855582156200037e579182015b828111156200037d57825182559160200191906001019062000360565b5b5090506200038d919062000391565b5090565b5b80821115620003ac57600081600090555060010162000392565b5090565b6000604051905090565b600080fd5b600080fd5b600073ffffffffffffffffffffffffffffffffffffffff82169050919050565b6000620003f182620003c4565b9050919050565b6200040381620003e4565b81146200040f57600080fd5b50565b6000815190506200042381620003f8565b92915050565b600080fd5b600080fd5b6000601f19601f8301169050919050565b7f4e487b7100000000000000000000000000000000000000000000000000000000600052604160045260246000fd5b6200047e8262000433565b810181811067ffffffffffffffff82111715620004a0576200049f62000444565b5b80604052505050565b6000620004b5620003b0565b9050620004c3828262000473565b919050565b600067ffffffffffffffff821115620004e657620004e562000444565b5b620004f18262000433565b9050602081019050919050565b60005b838110156200051e57808201518184015260208101905062000501565b838111156200052e576000848401525b50505050565b60006200054b6200054584620004c8565b620004a9565b9050828152602081018484840111156200056a57620005696200042e565b5b62000577848285620004fe565b509392505050565b600082601f83011262000597576200059662000429565b5b8151620005a984826020860162000534565b91505092915050565b600067ffffffffffffffff821115620005d057620005cf62000444565b5b602082029050602081019050919050565b600080fd5b6000620005fd620005f784620005b2565b620004a9565b90508083825260208201905060208402830185811115620006235762000622620005e1565b5b835b818110156200067157805167ffffffffffffffff8111156200064c576200064b62000429565b5b8086016200065b89826200057f565b8552602085019450505060208101905062000625565b5050509392505050565b600082601f83011262000693576200069262000429565b5b8151620006a5848260208601620005e6565b91505092915050565b600067ffffffffffffffff821115620006cc57620006cb62000444565b5b602082029050602081019050919050565b6000620006f4620006ee84620006ae565b620004a9565b905080838252602082019050602084028301858111156200071a5762000719620005e1565b5b835b8181101562000747578062000732888262000412565b8452602084019350506020810190506200071c565b5050509392505050565b600082601f83011262000769576200076862000429565b5b81516200077b848260208601620006dd565b91505092915050565b6000819050919050565b620007998162000784565b8114620007a557600080fd5b50565b600081519050620007b9816200078e565b92915050565b600080600080600060a08688031215620007de57620007dd620003ba565b5b6000620007ee8882890162000412565b955050602086015167ffffffffffffffff811115620008125762000811620003bf565b5b62000820888289016200057f565b945050604086015167ffffffffffffffff811115620008445762000843620003bf565b5b62000852888289016200067b565b935050606086015167ffffffffffffffff811115620008765762000875620003bf565b5b620008848882890162000751565b92505060806200089788828901620007a8565b9150509295509295909350565b7f4e487b7100000000000000000000000000000000000000000000000000000000600052603260045260246000fd5b7f4e487b7100000000000000000000000000000000000000000000000000000000600052601160045260246000fd5b60006200090f8262000784565b91507fffffffffffffffffffffffffffffffffffffffffffffffffffffffffffffffff8203620009445762000943620008d3565b5b600182019050919050565b7f4e487b7100000000000000000000000000000000000000000000000000000000600052602260045260246000fd5b600060028204905060018216806200099757607f821691505b602082108103620009ad57620009ac6200094f565b5b50919050565b6124ed80620009c36000396000f3fe608060405234801561001057600080fd5b506004361061014d5760003560e01c80634a79d50c116100c3578063aab46b7f1161007c578063aab46b7f14610367578063b1b0be2f14610385578063bfae2172146103a3578063c3403ddf146103bf578063d7d4e631146103c9578063de292789146103f95761014d565b80634a79d50c146102b757806362564c48146102d55780636eb83689146102f357806383d948b71461030f5780639bd4dd3c1461032d5780639d5a0529146103495761014d565b80632019a608116101155780632019a608146101e35780632c69953b146102015780632d9c73d9146102315780632fdae3c51461024f57806337b7b9b81461026b57806347ee03941461029b5761014d565b80630121b93f14610152578063013cf08b1461016e57806301bf66481461019f578063132002fc146101bb5780631ec6b60a146101d9575b600080fd5b61016c600480360381019061016791906119e0565b610417565b005b610188600480360381019061018391906119e0565b6106a2565b604051610196929190611ab5565b60405180910390f35b6101b960048036038101906101b49190611b43565b61075e565b005b6101c3610988565b6040516101d09190611b70565b60405180910390f35b6101e161098e565b005b6101eb610a93565b6040516101f89190611b70565b60405180910390f35b61021b600480360381019061021691906119e0565b610a99565b6040516102289190611b9a565b60405180910390f35b610239610ad8565b6040516102469190611c73565b60405180910390f35b61026960048036038101906102649190611dca565b610be4565b005b61028560048036038101906102809190611b43565b610d88565b6040516102929190611e2e565b60405180910390f35b6102b560048036038101906102b09190611b43565b610dde565b005b6102bf611069565b6040516102cc9190611e49565b60405180910390f35b6102dd6110f7565b6040516102ea9190611f77565b60405180910390f35b61030d60048036038101906103089190611dca565b611248565b005b610317611399565b6040516103249190611e2e565b60405180910390f35b610347600480360381019061034291906119e0565b6113ac565b005b6103516114ed565b60405161035e9190611e2e565b60405180910390f35b61036f611500565b60405161037c9190611b9a565b60405180910390f35b61038d611526565b60405161039a9190611e2e565b60405180910390f35b6103bd60048036038101906103b89190611f99565b611562565b005b6103c76116d7565b005b6103e360048036038101906103de9190611b43565b6117d5565b6040516103f09190611e2e565b60405180910390f35b61040161182b565b60405161040e9190611b70565b60405180910390f35b60011515600760019054906101000a900460ff1615151461046d576040517f08c379a000000000000000000000000000000000000000000000000000000000815260040161046490612041565b60405180910390fd5b60011515600260003373ffffffffffffffffffffffffffffffffffffffff1673ffffffffffffffffffffffffffffffffffffffff16815260200190815260200160002060009054906101000a900460ff16151514610500576040517f08c379a00000000000000000000000000000000000000000000000000000000081526004016104f7906120d3565b60405180910390fd5b6005546006546105109190612122565b4210610551576040517f08c379a0000000000000000000000000000000000000000000000000000000008152600401610548906121c4565b60405180910390fd5b6000600160003373ffffffffffffffffffffffffffffffffffffffff1673ffffffffffffffffffffffffffffffffffffffff16815260200190815260200160002054116105d3576040517f08c379a00000000000000000000000000000000000000000000000000000000081526004016105ca90612256565b60405180910390fd5b60003390506000600160008373ffffffffffffffffffffffffffffffffffffffff1673ffffffffffffffffffffffffffffffffffffffff168152602001908152602001600020549050806004848154811061063157610630612276565b5b906000526020600020906002020160010160008282546106519190612122565b925050819055506000600160008473ffffffffffffffffffffffffffffffffffffffff1673ffffffffffffffffffffffffffffffffffffffff16815260200190815260200160002081905550505050565b600481815481106106b257600080fd5b90600052602060002090600202016000915090508060000180546106d5906122d4565b80601f0160208091040260200160405190810160405280929190818152602001828054610701906122d4565b801561074e5780601f106107235761010080835404028352916020019161074e565b820191906000526020600020905b81548152906001019060200180831161073157829003601f168201915b5050505050908060010154905082565b600760029054906101000a900473ffffffffffffffffffffffffffffffffffffffff1673ffffffffffffffffffffffffffffffffffffffff163373ffffffffffffffffffffffffffffffffffffffff16146107ee576040517f08c379a00000000000000000000000000000000000000000000000000000000081526004016107e590612377565b60405180910390fd5b60001515600760019054906101000a900460ff16151514610844576040517f08c379a000000000000000000000000000000000000000000000000000000000815260040161083b906123e3565b60405180910390fd5b6005546006546108549190612122565b4210610895576040517f08c379a000000000000000000000000000000000000000000000000000000000815260040161088c906121c4565b60405180910390fd5b600260008273ffffffffffffffffffffffffffffffffffffffff1673ffffffffffffffffffffffffffffffffffffffff16815260200190815260200160002060009054906101000a900460ff1615610985576000600160008373ffffffffffffffffffffffffffffffffffffffff1673ffffffffffffffffffffffffffffffffffffffff168152602001908152602001600020819055506000600260008373ffffffffffffffffffffffffffffffffffffffff1673ffffffffffffffffffffffffffffffffffffffff16815260200190815260200160002060006101000a81548160ff0219169083151502179055505b50565b60055481565b600760029054906101000a900473ffffffffffffffffffffffffffffffffffffffff1673ffffffffffffffffffffffffffffffffffffffff163373ffffffffffffffffffffffffffffffffffffffff1614610a1e576040517f08c379a0000000000000000000000000000000000000000000000000000000008152600401610a1590612377565b60405180910390fd5b600554600654610a2e9190612122565b4210610a6f576040517f08c379a0000000000000000000000000000000000000000000000000000000008152600401610a66906121c4565b60405180910390fd5b426006819055506001600760016101000a81548160ff021916908315150217905550565b60065481565b60038181548110610aa957600080fd5b906000526020600020016000915054906101000a900473ffffffffffffffffffffffffffffffffffffffff1681565b60606000600380549050905060008167ffffffffffffffff811115610b0057610aff611c9f565b5b604051908082528060200260200182016040528015610b2e5781602001602082028036833780820191505090505b50905060005b82811015610bdb5760038181548110610b5057610b4f612276565b5b9060005260206000200160009054906101000a900473ffffffffffffffffffffffffffffffffffffffff16828281518110610b8e57610b8d612276565b5b602002602001019073ffffffffffffffffffffffffffffffffffffffff16908173ffffffffffffffffffffffffffffffffffffffff16815250508080610bd390612403565b915050610b34565b50809250505090565b600760029054906101000a900473ffffffffffffffffffffffffffffffffffffffff1673ffffffffffffffffffffffffffffffffffffffff163373ffffffffffffffffffffffffffffffffffffffff1614610c74576040517f08c379a0000000000000000000000000000000000000000000000000000000008152600401610c6b90612377565b60405180910390fd5b60001515600760019054906101000a900460ff16151514610cca576040517f08c379a0000000000000000000000000000000000000000000000000000000008152600401610cc1906123e3565b60405180910390fd5b600554600654610cda9190612122565b4210610d1b576040517f08c379a0000000000000000000000000000000000000000000000000000000008152600401610d12906121c4565b60405180910390fd5b60046040518060400160405280838152602001600081525090806001815401808255809150506001900390600052602060002090600202016000909190919091506000820151816000019080519060200190610d789291906118f3565b5060208201518160010155505050565b6000600260008373ffffffffffffffffffffffffffffffffffffffff1673ffffffffffffffffffffffffffffffffffffffff16815260200190815260200160002060009054906101000a900460ff169050919050565b600760029054906101000a900473ffffffffffffffffffffffffffffffffffffffff1673ffffffffffffffffffffffffffffffffffffffff163373ffffffffffffffffffffffffffffffffffffffff1614610e6e576040517f08c379a0000000000000000000000000000000000000000000000000000000008152600401610e6590612377565b60405180910390fd5b60001515600760019054906101000a900460ff16151514610ec4576040517f08c379a0000000000000000000000000000000000000000000000000000000008152600401610ebb906123e3565b60405180910390fd5b600554600654610ed49190612122565b4210610f15576040517f08c379a0000000000000000000000000000000000000000000000000000000008152600401610f0c906121c4565b60405180910390fd5b600260008273ffffffffffffffffffffffffffffffffffffffff1673ffffffffffffffffffffffffffffffffffffffff16815260200190815260200160002060009054906101000a900460ff166110665760018060008373ffffffffffffffffffffffffffffffffffffffff1673ffffffffffffffffffffffffffffffffffffffff168152602001908152602001600020819055506003819080600181540180825580915050600190039060005260206000200160009091909190916101000a81548173ffffffffffffffffffffffffffffffffffffffff021916908373ffffffffffffffffffffffffffffffffffffffff1602179055506001600260008373ffffffffffffffffffffffffffffffffffffffff1673ffffffffffffffffffffffffffffffffffffffff16815260200190815260200160002060006101000a81548160ff0219169083151502179055505b50565b60008054611076906122d4565b80601f01602080910402602001604051908101604052809291908181526020018280546110a2906122d4565b80156110ef5780601f106110c4576101008083540402835291602001916110ef565b820191906000526020600020905b8154815290600101906020018083116110d257829003601f168201915b505050505081565b60606000600480549050905060008167ffffffffffffffff81111561111f5761111e611c9f565b5b60405190808252806020026020018201604052801561115257816020015b606081526020019060019003908161113d5790505b50905060005b8281101561123f576004818154811061117457611173612276565b5b90600052602060002090600202016000018054611190906122d4565b80601f01602080910402602001604051908101604052809291908181526020018280546111bc906122d4565b80156112095780601f106111de57610100808354040283529160200191611209565b820191906000526020600020905b8154815290600101906020018083116111ec57829003601f168201915b505050505082828151811061122157611220612276565b5b6020026020010181905250808061123790612403565b915050611158565b50809250505090565b600760029054906101000a900473ffffffffffffffffffffffffffffffffffffffff1673ffffffffffffffffffffffffffffffffffffffff163373ffffffffffffffffffffffffffffffffffffffff16146112d8576040517f08c379a00000000000000000000000000000000000000000000000000000000081526004016112cf90612377565b60405180910390fd5b60001515600760019054906101000a900460ff1615151461132e576040517f08c379a0000000000000000000000000000000000000000000000000000000008152600401611325906123e3565b60405180910390fd5b60055460065461133e9190612122565b421061137f576040517f08c379a0000000000000000000000000000000000000000000000000000000008152600401611376906121c4565b60405180910390fd5b80600090805190602001906113959291906118f3565b5050565b600760019054906101000a900460ff1681565b600760029054906101000a900473ffffffffffffffffffffffffffffffffffffffff1673ffffffffffffffffffffffffffffffffffffffff163373ffffffffffffffffffffffffffffffffffffffff161461143c576040517f08c379a000000000000000000000000000000000000000000000000000000000815260040161143390612377565b60405180910390fd5b60001515600760019054906101000a900460ff16151514611492576040517f08c379a0000000000000000000000000000000000000000000000000000000008152600401611489906123e3565b60405180910390fd5b6005546006546114a29190612122565b42106114e3576040517f08c379a00000000000000000000000000000000000000000000000000000000081526004016114da906121c4565b60405180910390fd5b8060058190555050565b600760009054906101000a900460ff1681565b600760029054906101000a900473ffffffffffffffffffffffffffffffffffffffff1681565b6000801515600760009054906101000a900460ff16151514801561155d575060011515600760019054906101000a900460ff161515145b905090565b600760029054906101000a900473ffffffffffffffffffffffffffffffffffffffff1673ffffffffffffffffffffffffffffffffffffffff163373ffffffffffffffffffffffffffffffffffffffff16146115f2576040517f08c379a00000000000000000000000000000000000000000000000000000000081526004016115e990612377565b60405180910390fd5b60001515600760019054906101000a900460ff16151514611648576040517f08c379a000000000000000000000000000000000000000000000000000000000815260040161163f906123e3565b60405180910390fd5b6005546006546116589190612122565b4210611699576040517f08c379a0000000000000000000000000000000000000000000000000000000008152600401611690906121c4565b60405180910390fd5b80600483815481106116ae576116ad612276565b5b906000526020600020906002020160000190805190602001906116d29291906118f3565b505050565b600760029054906101000a900473ffffffffffffffffffffffffffffffffffffffff1673ffffffffffffffffffffffffffffffffffffffff163373ffffffffffffffffffffffffffffffffffffffff1614611767576040517f08c379a000000000000000000000000000000000000000000000000000000000815260040161175e90612377565b60405180910390fd5b6005546006546117779190612122565b42106117b8576040517f08c379a00000000000000000000000000000000000000000000000000000000081526004016117af906121c4565b60405180910390fd5b6001600760006101000a81548160ff021916908315150217905550565b6000600260008373ffffffffffffffffffffffffffffffffffffffff1673ffffffffffffffffffffffffffffffffffffffff16815260200190815260200160002060009054906101000a900460ff169050919050565b60006005544211611871576040517f08c379a000000000000000000000000000000000000000000000000000000000815260040161186890612497565b60405180910390fd5b6000805b6004805490508110156118ee57816004828154811061189757611896612276565b5b90600052602060002090600202016001015411156118db57600481815481106118c3576118c2612276565b5b90600052602060002090600202016001015491508092505b80806118e690612403565b915050611875565b505090565b8280546118ff906122d4565b90600052602060002090601f0160209004810192826119215760008555611968565b82601f1061193a57805160ff1916838001178555611968565b82800160010185558215611968579182015b8281111561196757825182559160200191906001019061194c565b5b5090506119759190611979565b5090565b5b8082111561199257600081600090555060010161197a565b5090565b6000604051905090565b600080fd5b600080fd5b6000819050919050565b6119bd816119aa565b81146119c857600080fd5b50565b6000813590506119da816119b4565b92915050565b6000602082840312156119f6576119f56119a0565b5b6000611a04848285016119cb565b91505092915050565b600081519050919050565b600082825260208201905092915050565b60005b83811015611a47578082015181840152602081019050611a2c565b83811115611a56576000848401525b50505050565b6000601f19601f8301169050919050565b6000611a7882611a0d565b611a828185611a18565b9350611a92818560208601611a29565b611a9b81611a5c565b840191505092915050565b611aaf816119aa565b82525050565b60006040820190508181036000830152611acf8185611a6d565b9050611ade6020830184611aa6565b9392505050565b600073ffffffffffffffffffffffffffffffffffffffff82169050919050565b6000611b1082611ae5565b9050919050565b611b2081611b05565b8114611b2b57600080fd5b50565b600081359050611b3d81611b17565b92915050565b600060208284031215611b5957611b586119a0565b5b6000611b6784828501611b2e565b91505092915050565b6000602082019050611b856000830184611aa6565b92915050565b611b9481611b05565b82525050565b6000602082019050611baf6000830184611b8b565b92915050565b600081519050919050565b600082825260208201905092915050565b6000819050602082019050919050565b611bea81611b05565b82525050565b6000611bfc8383611be1565b60208301905092915050565b6000602082019050919050565b6000611c2082611bb5565b611c2a8185611bc0565b9350611c3583611bd1565b8060005b83811015611c66578151611c4d8882611bf0565b9750611c5883611c08565b925050600181019050611c39565b5085935050505092915050565b60006020820190508181036000830152611c8d8184611c15565b905092915050565b600080fd5b600080fd5b7f4e487b7100000000000000000000000000000000000000000000000000000000600052604160045260246000fd5b611cd782611a5c565b810181811067ffffffffffffffff82111715611cf657611cf5611c9f565b5b80604052505050565b6000611d09611996565b9050611d158282611cce565b919050565b600067ffffffffffffffff821115611d3557611d34611c9f565b5b611d3e82611a5c565b9050602081019050919050565b82818337600083830152505050565b6000611d6d611d6884611d1a565b611cff565b905082815260208101848484011115611d8957611d88611c9a565b5b611d94848285611d4b565b509392505050565b600082601f830112611db157611db0611c95565b5b8135611dc1848260208601611d5a565b91505092915050565b600060208284031215611de057611ddf6119a0565b5b600082013567ffffffffffffffff811115611dfe57611dfd6119a5565b5b611e0a84828501611d9c565b91505092915050565b60008115159050919050565b611e2881611e13565b82525050565b6000602082019050611e436000830184611e1f565b92915050565b60006020820190508181036000830152611e638184611a6d565b905092915050565b600081519050919050565b600082825260208201905092915050565b6000819050602082019050919050565b600082825260208201905092915050565b6000611eb382611a0d565b611ebd8185611e97565b9350611ecd818560208601611a29565b611ed681611a5c565b840191505092915050565b6000611eed8383611ea8565b905092915050565b6000602082019050919050565b6000611f0d82611e6b565b611f178185611e76565b935083602082028501611f2985611e87565b8060005b85811015611f655784840389528151611f468582611ee1565b9450611f5183611ef5565b925060208a01995050600181019050611f2d565b50829750879550505050505092915050565b60006020820190508181036000830152611f918184611f02565b905092915050565b60008060408385031215611fb057611faf6119a0565b5b6000611fbe858286016119cb565b925050602083013567ffffffffffffffff811115611fdf57611fde6119a5565b5b611feb85828601611d9c565b9150509250929050565b7f566f74696e6720686173206e6f742073746172746564207965742e0000000000600082015250565b600061202b601b83611a18565b915061203682611ff5565b602082019050919050565b6000602082019050818103600083015261205a8161201e565b9050919050565b7f596f7520617265206e6f7420616c6c6f77656420746f20766f746520696e207460008201527f68697320656c656374696f6e2e00000000000000000000000000000000000000602082015250565b60006120bd602d83611a18565b91506120c882612061565b604082019050919050565b600060208201905081810360008301526120ec816120b0565b9050919050565b7f4e487b7100000000000000000000000000000000000000000000000000000000600052601160045260246000fd5b600061212d826119aa565b9150612138836119aa565b9250827fffffffffffffffffffffffffffffffffffffffffffffffffffffffffffffffff0382111561216d5761216c6120f3565b5b828201905092915050565b7f566f74696e672068617320616c726561647920656e6465642e00000000000000600082015250565b60006121ae601983611a18565b91506121b982612178565b602082019050919050565b600060208201905081810360008301526121dd816121a1565b9050919050565b7f596f75206861766520616c726561647920766f74656420696e2074686973206560008201527f6c656374696f6e2e000000000000000000000000000000000000000000000000602082015250565b6000612240602883611a18565b915061224b826121e4565b604082019050919050565b6000602082019050818103600083015261226f81612233565b9050919050565b7f4e487b7100000000000000000000000000000000000000000000000000000000600052603260045260246000fd5b7f4e487b7100000000000000000000000000000000000000000000000000000000600052602260045260246000fd5b600060028204905060018216806122ec57607f821691505b6020821081036122ff576122fe6122a5565b5b50919050565b7f4f6e6c7920456c656374696f6e20436f6d6d697373696f6e2063616e2067697660008201527f6520726967687420746f20766f74652e00000000000000000000000000000000602082015250565b6000612361603083611a18565b915061236c82612305565b604082019050919050565b6000602082019050818103600083015261239081612354565b9050919050565b7f566f74696e672068617320616c726561647920737461727465642e0000000000600082015250565b60006123cd601b83611a18565b91506123d882612397565b602082019050919050565b600060208201905081810360008301526123fc816123c0565b9050919050565b600061240e826119aa565b91507fffffffffffffffffffffffffffffffffffffffffffffffffffffffffffffffff82036124405761243f6120f3565b5b600182019050919050565b7f566f74696e6720686173206e6f7420656e646564207965742e00000000000000600082015250565b6000612481601983611a18565b915061248c8261244b565b602082019050919050565b600060208201905081810360008301526124b081612474565b905091905056fea2646970667358221220e52a681458d3f120ea27b799ac5a64e03324d54efc0927adac327cb0d821993664736f6c634300080d0033",
  "immutableReferences": {},
  "source": "// SPDX-License-Identifier: MIT\n// Tells the Solidity compiler to compile only from v0.8.0 to v0.9.0\npragma solidity ^0.8.0;\n\ncontract Voting {\n    string public title;\n\n    mapping(address => uint) whiteList;\n    mapping(address => bool) exists;\n\n    address[] public whiteListedAddresses;\n\n    struct Proposal {\n        string name;\n        uint voteCount;\n    }\n    Proposal[] public proposals;\n\n    uint256 public votingDuration;\n    uint256 public votingStartTime;\n    bool public votingEnded; // Stores whether the voting has ended or not\n    bool public votingStarted; // Stores whether the voting has started or not\n\n    address public electionCommission;\n\n    constructor(\n        address _electionCommission,\n        string memory _title,\n        string[] memory _proposals,\n        address[] memory _whiteList,\n        uint256 duration\n    ) {\n        electionCommission = _electionCommission;\n        title = _title;\n        votingDuration = duration;\n        votingEnded = false;\n        votingStarted = false;\n\n        for (uint i = 0; i < _proposals.length; i++) {\n            proposals.push(Proposal({name: _proposals[i], voteCount: 0}));\n        }\n\n        for (uint i = 0; i < _whiteList.length; i++) {\n            whiteList[_whiteList[i]] = 1;\n            exists[_whiteList[i]] = true;\n            whiteListedAddresses.push(_whiteList[i]);\n        }\n    }\n\n    modifier onlyElectionCommission() {\n        require(\n            msg.sender == electionCommission,\n            \"Only Election Commission can give right to vote.\"\n        );\n        _;\n    }\n\n    modifier onlyBeforeStart() {\n        require(votingStarted == false, \"Voting has already started.\");\n        _;\n    }\n\n    modifier onlyBeforeVotingEnd() {\n        require(\n            block.timestamp < (votingStartTime + votingDuration),\n            \"Voting has already ended.\"\n        );\n        _;\n    }\n\n    modifier onlyAfterVotingEnd() {\n        require(block.timestamp > votingDuration, \"Voting has not ended yet.\");\n        _;\n    }\n\n    modifier OnlyAfterVotingStart() {\n        require(votingStarted == true, \"Voting has not started yet.\");\n        _;\n    }\n\n    modifier onlyWhiteListed() {\n        require(\n            exists[msg.sender] == true,\n            \"You are not allowed to vote in this election.\"\n        );\n        _;\n    }\n\n    modifier onlyOnce() {\n        require(\n            whiteList[msg.sender] > 0,\n            \"You have already voted in this election.\"\n        );\n        _;\n    }\n\n    function getExists(address key) public view returns (bool) {\n        return exists[key];\n    }\n\n    function addToWhiteList(\n        address voter\n    ) public onlyElectionCommission onlyBeforeStart onlyBeforeVotingEnd {\n        if (exists[voter]) return;\n\n        whiteList[voter] = 1;\n        whiteListedAddresses.push(voter);\n        exists[voter] = true;\n    }\n\n    function removeFromWhiteList(\n        address voter\n    ) public onlyElectionCommission onlyBeforeStart onlyBeforeVotingEnd {\n        if (!exists[voter]) return;\n\n        whiteList[voter] = 0;\n        exists[voter] = false;\n    }\n\n    function getProposals() public view returns (string[] memory) {\n        uint arrayLength = proposals.length;\n\n        string[] memory proposalNames = new string[](arrayLength);\n\n        for (uint i = 0; i < arrayLength; i++) {\n            proposalNames[i] = proposals[i].name;\n        }\n\n        return proposalNames;\n    }\n\n    function getWhiteListedAddresses() public view returns (address[] memory) {\n        uint arrayLength = whiteListedAddresses.length;\n\n        address[] memory addresses = new address[](arrayLength);\n\n        for (uint i = 0; i < arrayLength; i++) {\n            addresses[i] = whiteListedAddresses[i];\n        }\n\n        return addresses;\n    }\n\n    function editProposal(\n        uint proposal,\n        string memory newName\n    ) public onlyElectionCommission onlyBeforeStart onlyBeforeVotingEnd {\n        proposals[proposal].name = newName;\n    }\n\n    function addProposal(\n        string memory newName\n    ) public onlyElectionCommission onlyBeforeStart onlyBeforeVotingEnd {\n        proposals.push(Proposal({name: newName, voteCount: 0}));\n    }\n\n    function editTitle(\n        string memory newTitle\n    ) public onlyElectionCommission onlyBeforeStart onlyBeforeVotingEnd {\n        title = newTitle;\n    }\n\n    function editDeadline(\n        uint256 newDeadline\n    ) public onlyElectionCommission onlyBeforeStart onlyBeforeVotingEnd {\n        votingDuration = newDeadline;\n    }\n\n    function vote(\n        uint proposal\n    ) public OnlyAfterVotingStart onlyWhiteListed onlyBeforeVotingEnd onlyOnce {\n        address voter = msg.sender;\n        // require(exists[voter] == true, \"You are not allowed to vote\");\n        // require(whiteList[voter] > 0, \"You have already voted\");\n\n        uint voteWeight = whiteList[voter];\n\n        proposals[proposal].voteCount += voteWeight;\n        whiteList[voter] = 0;\n    }\n\n    function getIsWhiteListed(address key) external view returns (bool) {\n        return exists[key];\n    }\n\n    function startVoting() public onlyElectionCommission onlyBeforeVotingEnd {\n        votingStartTime = block.timestamp;\n        votingStarted = true;\n    }\n\n    function endVoting() public onlyElectionCommission onlyBeforeVotingEnd {\n        votingEnded = true;\n    }\n\n    function getIsOpen() public view returns (bool) {\n        return votingEnded == false && votingStarted == true;\n    }\n\n    function getResult()\n        external\n        view\n        onlyAfterVotingEnd\n        returns (uint winningProposal_)\n    {\n        uint winningVoteCount = 0;\n        for (uint p = 0; p < proposals.length; p++) {\n            if (proposals[p].voteCount > winningVoteCount) {\n                winningVoteCount = proposals[p].voteCount;\n                winningProposal_ = p;\n            }\n        }\n    }\n}\n",
  "sourcePath": "/home/lucas/Documentos/faculdade/TCC/TCC_blockchain_voting/blockchain/contracts/Voting.sol",
  "compiler": {
    "name": "solc",
    "version": "0.8.13+commit.abaa5c0e.Emscripten.clang"
  },
  "schemaVersion": "3.4.10",
  "updatedAt": "2023-06-10T19:02:14.871Z",
  "devdoc": {
    "kind": "dev",
    "methods": {},
    "version": 1
  },
  "userdoc": {
    "kind": "user",
    "methods": {},
    "version": 1
  }
}