{
  "contractName": "Voting",
  "abi": [
    {
      "inputs": [
        {
          "internalType": "address",
          "name": "_electionCommission",
          "type": "address"
        },
        {
          "internalType": "string",
          "name": "_title",
          "type": "string"
        },
        {
          "internalType": "string[]",
          "name": "_proposals",
          "type": "string[]"
        },
        {
          "internalType": "address[]",
          "name": "_whiteList",
          "type": "address[]"
        },
        {
          "internalType": "uint256",
          "name": "duration",
          "type": "uint256"
        }
      ],
      "stateMutability": "nonpayable",
      "type": "constructor"
    },
    {
      "inputs": [],
      "name": "electionCommission",
      "outputs": [
        {
          "internalType": "address",
          "name": "",
          "type": "address"
        }
      ],
      "stateMutability": "view",
      "type": "function"
    },
    {
      "inputs": [
        {
          "internalType": "uint256",
          "name": "",
          "type": "uint256"
        }
      ],
      "name": "proposals",
      "outputs": [
        {
          "internalType": "string",
          "name": "name",
          "type": "string"
        },
        {
          "internalType": "uint256",
          "name": "voteCount",
          "type": "uint256"
        }
      ],
      "stateMutability": "view",
      "type": "function"
    },
    {
      "inputs": [],
      "name": "title",
      "outputs": [
        {
          "internalType": "string",
          "name": "",
          "type": "string"
        }
      ],
      "stateMutability": "view",
      "type": "function"
    },
    {
      "inputs": [],
      "name": "votingDuration",
      "outputs": [
        {
          "internalType": "uint256",
          "name": "",
          "type": "uint256"
        }
      ],
      "stateMutability": "view",
      "type": "function"
    },
    {
      "inputs": [],
      "name": "votingEnded",
      "outputs": [
        {
          "internalType": "bool",
          "name": "",
          "type": "bool"
        }
      ],
      "stateMutability": "view",
      "type": "function"
    },
    {
      "inputs": [],
      "name": "votingStartTime",
      "outputs": [
        {
          "internalType": "uint256",
          "name": "",
          "type": "uint256"
        }
      ],
      "stateMutability": "view",
      "type": "function"
    },
    {
      "inputs": [],
      "name": "votingStarted",
      "outputs": [
        {
          "internalType": "bool",
          "name": "",
          "type": "bool"
        }
      ],
      "stateMutability": "view",
      "type": "function"
    },
    {
      "inputs": [
        {
          "internalType": "uint256",
          "name": "",
          "type": "uint256"
        }
      ],
      "name": "whiteListedAddresses",
      "outputs": [
        {
          "internalType": "address",
          "name": "",
          "type": "address"
        }
      ],
      "stateMutability": "view",
      "type": "function"
    },
    {
      "inputs": [
        {
          "internalType": "address",
          "name": "key",
          "type": "address"
        }
      ],
      "name": "getExists",
      "outputs": [
        {
          "internalType": "bool",
          "name": "",
          "type": "bool"
        }
      ],
      "stateMutability": "view",
      "type": "function"
    },
    {
      "inputs": [
        {
          "internalType": "address",
          "name": "voter",
          "type": "address"
        }
      ],
      "name": "addToWhiteList",
      "outputs": [],
      "stateMutability": "nonpayable",
      "type": "function"
    },
    {
      "inputs": [
        {
          "internalType": "address",
          "name": "voter",
          "type": "address"
        }
      ],
      "name": "removeFromWhiteList",
      "outputs": [],
      "stateMutability": "nonpayable",
      "type": "function"
    },
    {
      "inputs": [],
      "name": "getProposals",
      "outputs": [
        {
          "internalType": "string[]",
          "name": "",
          "type": "string[]"
        }
      ],
      "stateMutability": "view",
      "type": "function"
    },
    {
      "inputs": [],
      "name": "getWhiteListedAddresses",
      "outputs": [
        {
          "internalType": "address[]",
          "name": "",
          "type": "address[]"
        }
      ],
      "stateMutability": "view",
      "type": "function"
    },
    {
      "inputs": [
        {
          "internalType": "uint256",
          "name": "proposal",
          "type": "uint256"
        },
        {
          "internalType": "string",
          "name": "newName",
          "type": "string"
        }
      ],
      "name": "editProposal",
      "outputs": [],
      "stateMutability": "nonpayable",
      "type": "function"
    },
    {
      "inputs": [
        {
          "internalType": "string",
          "name": "newName",
          "type": "string"
        }
      ],
      "name": "addProposal",
      "outputs": [],
      "stateMutability": "nonpayable",
      "type": "function"
    },
    {
      "inputs": [
        {
          "internalType": "string",
          "name": "newTitle",
          "type": "string"
        }
      ],
      "name": "editTitle",
      "outputs": [],
      "stateMutability": "nonpayable",
      "type": "function"
    },
    {
      "inputs": [
        {
          "internalType": "uint256",
          "name": "newDeadline",
          "type": "uint256"
        }
      ],
      "name": "editDeadline",
      "outputs": [],
      "stateMutability": "nonpayable",
      "type": "function"
    },
    {
      "inputs": [
        {
          "internalType": "uint256",
          "name": "proposal",
          "type": "uint256"
        }
      ],
      "name": "vote",
      "outputs": [],
      "stateMutability": "nonpayable",
      "type": "function"
    },
    {
      "inputs": [
        {
          "internalType": "address",
          "name": "key",
          "type": "address"
        }
      ],
      "name": "getIsWhiteListed",
      "outputs": [
        {
          "internalType": "bool",
          "name": "",
          "type": "bool"
        }
      ],
      "stateMutability": "view",
      "type": "function"
    },
    {
      "inputs": [],
      "name": "startVoting",
      "outputs": [],
      "stateMutability": "nonpayable",
      "type": "function"
    },
    {
      "inputs": [],
      "name": "endVoting",
      "outputs": [],
      "stateMutability": "nonpayable",
      "type": "function"
    },
    {
      "inputs": [],
      "name": "getIsOpen",
      "outputs": [
        {
          "internalType": "bool",
          "name": "",
          "type": "bool"
        }
      ],
      "stateMutability": "view",
      "type": "function"
    },
    {
      "inputs": [],
      "name": "getResult",
      "outputs": [
        {
          "internalType": "uint256",
          "name": "winningProposal_",
          "type": "uint256"
        }
      ],
      "stateMutability": "view",
      "type": "function"
    }
  ],
  "bytecode": "0x60806040523480156200001157600080fd5b5060405162002e7438038062002e748339818101604052810190620000379190620007bf565b84600760026101000a81548173ffffffffffffffffffffffffffffffffffffffff021916908373ffffffffffffffffffffffffffffffffffffffff16021790555083600090805190602001906200009092919062000300565b50806005819055506000600760006101000a81548160ff0219169083151502179055506000600760016101000a81548160ff02191690831515021790555060005b83518110156200017a5760046040518060400160405280868481518110620000fe57620000fd620008a4565b5b602002602001015181526020016000815250908060018154018082558091505060019003906000526020600020906002020160009091909190915060008201518160000190805190602001906200015792919062000300565b506020820151816001015550508080620001719062000902565b915050620000d1565b5060005b8251811015620002f4576001806000858481518110620001a357620001a2620008a4565b5b602002602001015173ffffffffffffffffffffffffffffffffffffffff1673ffffffffffffffffffffffffffffffffffffffff16815260200190815260200160002081905550600160026000858481518110620002055762000204620008a4565b5b602002602001015173ffffffffffffffffffffffffffffffffffffffff1673ffffffffffffffffffffffffffffffffffffffff16815260200190815260200160002060006101000a81548160ff0219169083151502179055506003838281518110620002765762000275620008a4565b5b60200260200101519080600181540180825580915050600190039060005260206000200160009091909190916101000a81548173ffffffffffffffffffffffffffffffffffffffff021916908373ffffffffffffffffffffffffffffffffffffffff1602179055508080620002eb9062000902565b9150506200017e565b505050505050620009b3565b8280546200030e906200097e565b90600052602060002090601f0160209004810192826200033257600085556200037e565b82601f106200034d57805160ff19168380011785556200037e565b828001600101855582156200037e579182015b828111156200037d57825182559160200191906001019062000360565b5b5090506200038d919062000391565b5090565b5b80821115620003ac57600081600090555060010162000392565b5090565b6000604051905090565b600080fd5b600080fd5b600073ffffffffffffffffffffffffffffffffffffffff82169050919050565b6000620003f182620003c4565b9050919050565b6200040381620003e4565b81146200040f57600080fd5b50565b6000815190506200042381620003f8565b92915050565b600080fd5b600080fd5b6000601f19601f8301169050919050565b7f4e487b7100000000000000000000000000000000000000000000000000000000600052604160045260246000fd5b6200047e8262000433565b810181811067ffffffffffffffff82111715620004a0576200049f62000444565b5b80604052505050565b6000620004b5620003b0565b9050620004c3828262000473565b919050565b600067ffffffffffffffff821115620004e657620004e562000444565b5b620004f18262000433565b9050602081019050919050565b60005b838110156200051e57808201518184015260208101905062000501565b838111156200052e576000848401525b50505050565b60006200054b6200054584620004c8565b620004a9565b9050828152602081018484840111156200056a57620005696200042e565b5b62000577848285620004fe565b509392505050565b600082601f83011262000597576200059662000429565b5b8151620005a984826020860162000534565b91505092915050565b600067ffffffffffffffff821115620005d057620005cf62000444565b5b602082029050602081019050919050565b600080fd5b6000620005fd620005f784620005b2565b620004a9565b90508083825260208201905060208402830185811115620006235762000622620005e1565b5b835b818110156200067157805167ffffffffffffffff8111156200064c576200064b62000429565b5b8086016200065b89826200057f565b8552602085019450505060208101905062000625565b5050509392505050565b600082601f83011262000693576200069262000429565b5b8151620006a5848260208601620005e6565b91505092915050565b600067ffffffffffffffff821115620006cc57620006cb62000444565b5b602082029050602081019050919050565b6000620006f4620006ee84620006ae565b620004a9565b905080838252602082019050602084028301858111156200071a5762000719620005e1565b5b835b8181101562000747578062000732888262000412565b8452602084019350506020810190506200071c565b5050509392505050565b600082601f83011262000769576200076862000429565b5b81516200077b848260208601620006dd565b91505092915050565b6000819050919050565b620007998162000784565b8114620007a557600080fd5b50565b600081519050620007b9816200078e565b92915050565b600080600080600060a08688031215620007de57620007dd620003ba565b5b6000620007ee8882890162000412565b955050602086015167ffffffffffffffff811115620008125762000811620003bf565b5b62000820888289016200057f565b945050604086015167ffffffffffffffff811115620008445762000843620003bf565b5b62000852888289016200067b565b935050606086015167ffffffffffffffff811115620008765762000875620003bf565b5b620008848882890162000751565b92505060806200089788828901620007a8565b9150509295509295909350565b7f4e487b7100000000000000000000000000000000000000000000000000000000600052603260045260246000fd5b7f4e487b7100000000000000000000000000000000000000000000000000000000600052601160045260246000fd5b60006200090f8262000784565b91507fffffffffffffffffffffffffffffffffffffffffffffffffffffffffffffffff8203620009445762000943620008d3565b5b600182019050919050565b7f4e487b7100000000000000000000000000000000000000000000000000000000600052602260045260246000fd5b600060028204905060018216806200099757607f821691505b602082108103620009ad57620009ac6200094f565b5b50919050565b6124b180620009c36000396000f3fe608060405234801561001057600080fd5b506004361061014d5760003560e01c80634a79d50c116100c3578063aab46b7f1161007c578063aab46b7f14610367578063b1b0be2f14610385578063bfae2172146103a3578063c3403ddf146103bf578063d7d4e631146103c9578063de292789146103f95761014d565b80634a79d50c146102b757806362564c48146102d55780636eb83689146102f357806383d948b71461030f5780639bd4dd3c1461032d5780639d5a0529146103495761014d565b80632019a608116101155780632019a608146101e35780632c69953b146102015780632d9c73d9146102315780632fdae3c51461024f57806337b7b9b81461026b57806347ee03941461029b5761014d565b80630121b93f14610152578063013cf08b1461016e57806301bf66481461019f578063132002fc146101bb5780631ec6b60a146101d9575b600080fd5b61016c60048036038101906101679190611a10565b610417565b005b61018860048036038101906101839190611a10565b61064c565b604051610196929190611ae5565b60405180910390f35b6101b960048036038101906101b49190611b73565b610708565b005b6101c3610932565b6040516101d09190611ba0565b60405180910390f35b6101e1610938565b005b6101eb610a3d565b6040516101f89190611ba0565b60405180910390f35b61021b60048036038101906102169190611a10565b610a43565b6040516102289190611bca565b60405180910390f35b610239610a82565b6040516102469190611ca3565b60405180910390f35b61026960048036038101906102649190611dfa565b610c14565b005b61028560048036038101906102809190611b73565b610db8565b6040516102929190611e5e565b60405180910390f35b6102b560048036038101906102b09190611b73565b610e0e565b005b6102bf611099565b6040516102cc9190611e79565b60405180910390f35b6102dd611127565b6040516102ea9190611fa7565b60405180910390f35b61030d60048036038101906103089190611dfa565b611278565b005b6103176113c9565b6040516103249190611e5e565b60405180910390f35b61034760048036038101906103429190611a10565b6113dc565b005b61035161151d565b60405161035e9190611e5e565b60405180910390f35b61036f611530565b60405161037c9190611bca565b60405180910390f35b61038d611556565b60405161039a9190611e5e565b60405180910390f35b6103bd60048036038101906103b89190611fc9565b611592565b005b6103c7611707565b005b6103e360048036038101906103de9190611b73565b611805565b6040516103f09190611e5e565b60405180910390f35b61040161185b565b60405161040e9190611ba0565b60405180910390f35b60011515600260003373ffffffffffffffffffffffffffffffffffffffff1673ffffffffffffffffffffffffffffffffffffffff16815260200190815260200160002060009054906101000a900460ff161515146104aa576040517f08c379a00000000000000000000000000000000000000000000000000000000081526004016104a190612097565b60405180910390fd5b6005546006546104ba91906120e6565b42106104fb576040517f08c379a00000000000000000000000000000000000000000000000000000000081526004016104f290612188565b60405180910390fd5b6000600160003373ffffffffffffffffffffffffffffffffffffffff1673ffffffffffffffffffffffffffffffffffffffff168152602001908152602001600020541161057d576040517f08c379a00000000000000000000000000000000000000000000000000000000081526004016105749061221a565b60405180910390fd5b60003390506000600160008373ffffffffffffffffffffffffffffffffffffffff1673ffffffffffffffffffffffffffffffffffffffff16815260200190815260200160002054905080600484815481106105db576105da61223a565b5b906000526020600020906002020160010160008282546105fb91906120e6565b925050819055506000600160008473ffffffffffffffffffffffffffffffffffffffff1673ffffffffffffffffffffffffffffffffffffffff16815260200190815260200160002081905550505050565b6004818154811061065c57600080fd5b906000526020600020906002020160009150905080600001805461067f90612298565b80601f01602080910402602001604051908101604052809291908181526020018280546106ab90612298565b80156106f85780601f106106cd576101008083540402835291602001916106f8565b820191906000526020600020905b8154815290600101906020018083116106db57829003601f168201915b5050505050908060010154905082565b600760029054906101000a900473ffffffffffffffffffffffffffffffffffffffff1673ffffffffffffffffffffffffffffffffffffffff163373ffffffffffffffffffffffffffffffffffffffff1614610798576040517f08c379a000000000000000000000000000000000000000000000000000000000815260040161078f9061233b565b60405180910390fd5b60001515600760019054906101000a900460ff161515146107ee576040517f08c379a00000000000000000000000000000000000000000000000000000000081526004016107e5906123a7565b60405180910390fd5b6005546006546107fe91906120e6565b421061083f576040517f08c379a000000000000000000000000000000000000000000000000000000000815260040161083690612188565b60405180910390fd5b600260008273ffffffffffffffffffffffffffffffffffffffff1673ffffffffffffffffffffffffffffffffffffffff16815260200190815260200160002060009054906101000a900460ff161561092f576000600160008373ffffffffffffffffffffffffffffffffffffffff1673ffffffffffffffffffffffffffffffffffffffff168152602001908152602001600020819055506000600260008373ffffffffffffffffffffffffffffffffffffffff1673ffffffffffffffffffffffffffffffffffffffff16815260200190815260200160002060006101000a81548160ff0219169083151502179055505b50565b60055481565b600760029054906101000a900473ffffffffffffffffffffffffffffffffffffffff1673ffffffffffffffffffffffffffffffffffffffff163373ffffffffffffffffffffffffffffffffffffffff16146109c8576040517f08c379a00000000000000000000000000000000000000000000000000000000081526004016109bf9061233b565b60405180910390fd5b6005546006546109d891906120e6565b4210610a19576040517f08c379a0000000000000000000000000000000000000000000000000000000008152600401610a1090612188565b60405180910390fd5b426006819055506001600760016101000a81548160ff021916908315150217905550565b60065481565b60038181548110610a5357600080fd5b906000526020600020016000915054906101000a900473ffffffffffffffffffffffffffffffffffffffff1681565b60606000600380549050905060008167ffffffffffffffff811115610aaa57610aa9611ccf565b5b604051908082528060200260200182016040528015610ad85781602001602082028036833780820191505090505b50905060005b82811015610b855760038181548110610afa57610af961223a565b5b9060005260206000200160009054906101000a900473ffffffffffffffffffffffffffffffffffffffff16828281518110610b3857610b3761223a565b5b602002602001019073ffffffffffffffffffffffffffffffffffffffff16908173ffffffffffffffffffffffffffffffffffffffff16815250508080610b7d906123c7565b915050610ade565b506003805480602002602001604051908101604052809291908181526020018280548015610c0857602002820191906000526020600020905b8160009054906101000a900473ffffffffffffffffffffffffffffffffffffffff1673ffffffffffffffffffffffffffffffffffffffff1681526020019060010190808311610bbe575b50505050509250505090565b600760029054906101000a900473ffffffffffffffffffffffffffffffffffffffff1673ffffffffffffffffffffffffffffffffffffffff163373ffffffffffffffffffffffffffffffffffffffff1614610ca4576040517f08c379a0000000000000000000000000000000000000000000000000000000008152600401610c9b9061233b565b60405180910390fd5b60001515600760019054906101000a900460ff16151514610cfa576040517f08c379a0000000000000000000000000000000000000000000000000000000008152600401610cf1906123a7565b60405180910390fd5b600554600654610d0a91906120e6565b4210610d4b576040517f08c379a0000000000000000000000000000000000000000000000000000000008152600401610d4290612188565b60405180910390fd5b60046040518060400160405280838152602001600081525090806001815401808255809150506001900390600052602060002090600202016000909190919091506000820151816000019080519060200190610da8929190611923565b5060208201518160010155505050565b6000600260008373ffffffffffffffffffffffffffffffffffffffff1673ffffffffffffffffffffffffffffffffffffffff16815260200190815260200160002060009054906101000a900460ff169050919050565b600760029054906101000a900473ffffffffffffffffffffffffffffffffffffffff1673ffffffffffffffffffffffffffffffffffffffff163373ffffffffffffffffffffffffffffffffffffffff1614610e9e576040517f08c379a0000000000000000000000000000000000000000000000000000000008152600401610e959061233b565b60405180910390fd5b60001515600760019054906101000a900460ff16151514610ef4576040517f08c379a0000000000000000000000000000000000000000000000000000000008152600401610eeb906123a7565b60405180910390fd5b600554600654610f0491906120e6565b4210610f45576040517f08c379a0000000000000000000000000000000000000000000000000000000008152600401610f3c90612188565b60405180910390fd5b600260008273ffffffffffffffffffffffffffffffffffffffff1673ffffffffffffffffffffffffffffffffffffffff16815260200190815260200160002060009054906101000a900460ff166110965760018060008373ffffffffffffffffffffffffffffffffffffffff1673ffffffffffffffffffffffffffffffffffffffff168152602001908152602001600020819055506003819080600181540180825580915050600190039060005260206000200160009091909190916101000a81548173ffffffffffffffffffffffffffffffffffffffff021916908373ffffffffffffffffffffffffffffffffffffffff1602179055506001600260008373ffffffffffffffffffffffffffffffffffffffff1673ffffffffffffffffffffffffffffffffffffffff16815260200190815260200160002060006101000a81548160ff0219169083151502179055505b50565b600080546110a690612298565b80601f01602080910402602001604051908101604052809291908181526020018280546110d290612298565b801561111f5780601f106110f45761010080835404028352916020019161111f565b820191906000526020600020905b81548152906001019060200180831161110257829003601f168201915b505050505081565b60606000600480549050905060008167ffffffffffffffff81111561114f5761114e611ccf565b5b60405190808252806020026020018201604052801561118257816020015b606081526020019060019003908161116d5790505b50905060005b8281101561126f57600481815481106111a4576111a361223a565b5b906000526020600020906002020160000180546111c090612298565b80601f01602080910402602001604051908101604052809291908181526020018280546111ec90612298565b80156112395780601f1061120e57610100808354040283529160200191611239565b820191906000526020600020905b81548152906001019060200180831161121c57829003601f168201915b50505050508282815181106112515761125061223a565b5b60200260200101819052508080611267906123c7565b915050611188565b50809250505090565b600760029054906101000a900473ffffffffffffffffffffffffffffffffffffffff1673ffffffffffffffffffffffffffffffffffffffff163373ffffffffffffffffffffffffffffffffffffffff1614611308576040517f08c379a00000000000000000000000000000000000000000000000000000000081526004016112ff9061233b565b60405180910390fd5b60001515600760019054906101000a900460ff1615151461135e576040517f08c379a0000000000000000000000000000000000000000000000000000000008152600401611355906123a7565b60405180910390fd5b60055460065461136e91906120e6565b42106113af576040517f08c379a00000000000000000000000000000000000000000000000000000000081526004016113a690612188565b60405180910390fd5b80600090805190602001906113c5929190611923565b5050565b600760019054906101000a900460ff1681565b600760029054906101000a900473ffffffffffffffffffffffffffffffffffffffff1673ffffffffffffffffffffffffffffffffffffffff163373ffffffffffffffffffffffffffffffffffffffff161461146c576040517f08c379a00000000000000000000000000000000000000000000000000000000081526004016114639061233b565b60405180910390fd5b60001515600760019054906101000a900460ff161515146114c2576040517f08c379a00000000000000000000000000000000000000000000000000000000081526004016114b9906123a7565b60405180910390fd5b6005546006546114d291906120e6565b4210611513576040517f08c379a000000000000000000000000000000000000000000000000000000000815260040161150a90612188565b60405180910390fd5b8060058190555050565b600760009054906101000a900460ff1681565b600760029054906101000a900473ffffffffffffffffffffffffffffffffffffffff1681565b6000801515600760009054906101000a900460ff16151514801561158d575060011515600760019054906101000a900460ff161515145b905090565b600760029054906101000a900473ffffffffffffffffffffffffffffffffffffffff1673ffffffffffffffffffffffffffffffffffffffff163373ffffffffffffffffffffffffffffffffffffffff1614611622576040517f08c379a00000000000000000000000000000000000000000000000000000000081526004016116199061233b565b60405180910390fd5b60001515600760019054906101000a900460ff16151514611678576040517f08c379a000000000000000000000000000000000000000000000000000000000815260040161166f906123a7565b60405180910390fd5b60055460065461168891906120e6565b42106116c9576040517f08c379a00000000000000000000000000000000000000000000000000000000081526004016116c090612188565b60405180910390fd5b80600483815481106116de576116dd61223a565b5b90600052602060002090600202016000019080519060200190611702929190611923565b505050565b600760029054906101000a900473ffffffffffffffffffffffffffffffffffffffff1673ffffffffffffffffffffffffffffffffffffffff163373ffffffffffffffffffffffffffffffffffffffff1614611797576040517f08c379a000000000000000000000000000000000000000000000000000000000815260040161178e9061233b565b60405180910390fd5b6005546006546117a791906120e6565b42106117e8576040517f08c379a00000000000000000000000000000000000000000000000000000000081526004016117df90612188565b60405180910390fd5b6001600760006101000a81548160ff021916908315150217905550565b6000600260008373ffffffffffffffffffffffffffffffffffffffff1673ffffffffffffffffffffffffffffffffffffffff16815260200190815260200160002060009054906101000a900460ff169050919050565b600060055442116118a1576040517f08c379a00000000000000000000000000000000000000000000000000000000081526004016118989061245b565b60405180910390fd5b6000805b60048054905081101561191e5781600482815481106118c7576118c661223a565b5b906000526020600020906002020160010154111561190b57600481815481106118f3576118f261223a565b5b90600052602060002090600202016001015491508092505b8080611916906123c7565b9150506118a5565b505090565b82805461192f90612298565b90600052602060002090601f0160209004810192826119515760008555611998565b82601f1061196a57805160ff1916838001178555611998565b82800160010185558215611998579182015b8281111561199757825182559160200191906001019061197c565b5b5090506119a591906119a9565b5090565b5b808211156119c25760008160009055506001016119aa565b5090565b6000604051905090565b600080fd5b600080fd5b6000819050919050565b6119ed816119da565b81146119f857600080fd5b50565b600081359050611a0a816119e4565b92915050565b600060208284031215611a2657611a256119d0565b5b6000611a34848285016119fb565b91505092915050565b600081519050919050565b600082825260208201905092915050565b60005b83811015611a77578082015181840152602081019050611a5c565b83811115611a86576000848401525b50505050565b6000601f19601f8301169050919050565b6000611aa882611a3d565b611ab28185611a48565b9350611ac2818560208601611a59565b611acb81611a8c565b840191505092915050565b611adf816119da565b82525050565b60006040820190508181036000830152611aff8185611a9d565b9050611b0e6020830184611ad6565b9392505050565b600073ffffffffffffffffffffffffffffffffffffffff82169050919050565b6000611b4082611b15565b9050919050565b611b5081611b35565b8114611b5b57600080fd5b50565b600081359050611b6d81611b47565b92915050565b600060208284031215611b8957611b886119d0565b5b6000611b9784828501611b5e565b91505092915050565b6000602082019050611bb56000830184611ad6565b92915050565b611bc481611b35565b82525050565b6000602082019050611bdf6000830184611bbb565b92915050565b600081519050919050565b600082825260208201905092915050565b6000819050602082019050919050565b611c1a81611b35565b82525050565b6000611c2c8383611c11565b60208301905092915050565b6000602082019050919050565b6000611c5082611be5565b611c5a8185611bf0565b9350611c6583611c01565b8060005b83811015611c96578151611c7d8882611c20565b9750611c8883611c38565b925050600181019050611c69565b5085935050505092915050565b60006020820190508181036000830152611cbd8184611c45565b905092915050565b600080fd5b600080fd5b7f4e487b7100000000000000000000000000000000000000000000000000000000600052604160045260246000fd5b611d0782611a8c565b810181811067ffffffffffffffff82111715611d2657611d25611ccf565b5b80604052505050565b6000611d396119c6565b9050611d458282611cfe565b919050565b600067ffffffffffffffff821115611d6557611d64611ccf565b5b611d6e82611a8c565b9050602081019050919050565b82818337600083830152505050565b6000611d9d611d9884611d4a565b611d2f565b905082815260208101848484011115611db957611db8611cca565b5b611dc4848285611d7b565b509392505050565b600082601f830112611de157611de0611cc5565b5b8135611df1848260208601611d8a565b91505092915050565b600060208284031215611e1057611e0f6119d0565b5b600082013567ffffffffffffffff811115611e2e57611e2d6119d5565b5b611e3a84828501611dcc565b91505092915050565b60008115159050919050565b611e5881611e43565b82525050565b6000602082019050611e736000830184611e4f565b92915050565b60006020820190508181036000830152611e938184611a9d565b905092915050565b600081519050919050565b600082825260208201905092915050565b6000819050602082019050919050565b600082825260208201905092915050565b6000611ee382611a3d565b611eed8185611ec7565b9350611efd818560208601611a59565b611f0681611a8c565b840191505092915050565b6000611f1d8383611ed8565b905092915050565b6000602082019050919050565b6000611f3d82611e9b565b611f478185611ea6565b935083602082028501611f5985611eb7565b8060005b85811015611f955784840389528151611f768582611f11565b9450611f8183611f25565b925060208a01995050600181019050611f5d565b50829750879550505050505092915050565b60006020820190508181036000830152611fc18184611f32565b905092915050565b60008060408385031215611fe057611fdf6119d0565b5b6000611fee858286016119fb565b925050602083013567ffffffffffffffff81111561200f5761200e6119d5565b5b61201b85828601611dcc565b9150509250929050565b7f596f7520617265206e6f7420616c6c6f77656420746f20766f746520696e207460008201527f68697320656c656374696f6e2e00000000000000000000000000000000000000602082015250565b6000612081602d83611a48565b915061208c82612025565b604082019050919050565b600060208201905081810360008301526120b081612074565b9050919050565b7f4e487b7100000000000000000000000000000000000000000000000000000000600052601160045260246000fd5b60006120f1826119da565b91506120fc836119da565b9250827fffffffffffffffffffffffffffffffffffffffffffffffffffffffffffffffff03821115612131576121306120b7565b5b828201905092915050565b7f566f74696e672068617320616c726561647920656e6465642e00000000000000600082015250565b6000612172601983611a48565b915061217d8261213c565b602082019050919050565b600060208201905081810360008301526121a181612165565b9050919050565b7f596f75206861766520616c726561647920766f74656420696e2074686973206560008201527f6c656374696f6e2e000000000000000000000000000000000000000000000000602082015250565b6000612204602883611a48565b915061220f826121a8565b604082019050919050565b60006020820190508181036000830152612233816121f7565b9050919050565b7f4e487b7100000000000000000000000000000000000000000000000000000000600052603260045260246000fd5b7f4e487b7100000000000000000000000000000000000000000000000000000000600052602260045260246000fd5b600060028204905060018216806122b057607f821691505b6020821081036122c3576122c2612269565b5b50919050565b7f4f6e6c7920456c656374696f6e20436f6d6d697373696f6e2063616e2067697660008201527f6520726967687420746f20766f74652e00000000000000000000000000000000602082015250565b6000612325603083611a48565b9150612330826122c9565b604082019050919050565b6000602082019050818103600083015261235481612318565b9050919050565b7f566f74696e672068617320616c726561647920737461727465642e0000000000600082015250565b6000612391601b83611a48565b915061239c8261235b565b602082019050919050565b600060208201905081810360008301526123c081612384565b9050919050565b60006123d2826119da565b91507fffffffffffffffffffffffffffffffffffffffffffffffffffffffffffffffff8203612404576124036120b7565b5b600182019050919050565b7f566f74696e6720686173206e6f7420656e646564207965742e00000000000000600082015250565b6000612445601983611a48565b91506124508261240f565b602082019050919050565b6000602082019050818103600083015261247481612438565b905091905056fea264697066735822122062d9e5f1f535b6a31d1c0776b99b2ce1ae9413c09e0dcc9fca313e9077a284f964736f6c634300080d0033",
  "immutableReferences": {},
  "source": "// SPDX-License-Identifier: MIT\n// Tells the Solidity compiler to compile only from v0.8.0 to v0.9.0\npragma solidity ^0.8.0;\n\ncontract Voting {\n    string public title;\n\n    mapping(address => uint) whiteList;\n    mapping(address => bool) exists;\n\n    address[] public whiteListedAddresses;\n\n    struct Proposal {\n        string name;\n        uint voteCount;\n    }\n    Proposal[] public proposals;\n\n    uint256 public votingDuration;\n    uint256 public votingStartTime;\n    bool public votingEnded; // Stores whether the voting has ended or not\n    bool public votingStarted; // Stores whether the voting has started or not\n\n    address public electionCommission;\n\n    constructor(\n        address _electionCommission,\n        string memory _title,\n        string[] memory _proposals,\n        address[] memory _whiteList,\n        uint256 duration\n    ) {\n        electionCommission = _electionCommission;\n        title = _title;\n        votingDuration = duration;\n        votingEnded = false;\n        votingStarted = false;\n\n        for (uint i = 0; i < _proposals.length; i++) {\n            proposals.push(Proposal({name: _proposals[i], voteCount: 0}));\n        }\n\n        for (uint i = 0; i < _whiteList.length; i++) {\n            whiteList[_whiteList[i]] = 1;\n            exists[_whiteList[i]] = true;\n            whiteListedAddresses.push(_whiteList[i]);\n        }\n    }\n\n    modifier onlyElectionCommission() {\n        require(\n            msg.sender == electionCommission,\n            \"Only Election Commission can give right to vote.\"\n        );\n        _;\n    }\n\n    modifier onlyBeforeStart() {\n        require(votingStarted == false, \"Voting has already started.\");\n        _;\n    }\n\n    modifier onlyBeforeVotingEnd() {\n        require(\n            block.timestamp < (votingStartTime + votingDuration),\n            \"Voting has already ended.\"\n        );\n        _;\n    }\n\n    modifier onlyAfterVotingEnd() {\n        require(block.timestamp > votingDuration, \"Voting has not ended yet.\");\n        _;\n    }\n\n    modifier onlyWhiteListed() {\n        require(\n            exists[msg.sender] == true,\n            \"You are not allowed to vote in this election.\"\n        );\n        _;\n    }\n\n    modifier onlyOnce() {\n        require(\n            whiteList[msg.sender] > 0,\n            \"You have already voted in this election.\"\n        );\n        _;\n    }\n\n    function getExists(address key) public view returns (bool) {\n        return exists[key];\n    }\n\n    function addToWhiteList(\n        address voter\n    ) public onlyElectionCommission onlyBeforeStart onlyBeforeVotingEnd {\n        if (exists[voter]) return;\n\n        whiteList[voter] = 1;\n        whiteListedAddresses.push(voter);\n        exists[voter] = true;\n    }\n\n    function removeFromWhiteList(\n        address voter\n    ) public onlyElectionCommission onlyBeforeStart onlyBeforeVotingEnd {\n        if (!exists[voter]) return;\n\n        whiteList[voter] = 0;\n        exists[voter] = false;\n    }\n\n    function getProposals() public view returns (string[] memory) {\n        uint arrayLength = proposals.length;\n\n        string[] memory proposalNames = new string[](arrayLength);\n\n        for (uint i = 0; i < arrayLength; i++) {\n            proposalNames[i] = proposals[i].name;\n        }\n\n        return proposalNames;\n    }\n\n    function getWhiteListedAddresses() public view returns (address[] memory) {\n        uint arrayLength = whiteListedAddresses.length;\n\n        address[] memory addresses = new address[](arrayLength);\n\n        for (uint i = 0; i < arrayLength; i++) {\n            addresses[i] = whiteListedAddresses[i];\n        }\n\n        return whiteListedAddresses;\n    }\n\n    function editProposal(\n        uint proposal,\n        string memory newName\n    ) public onlyElectionCommission onlyBeforeStart onlyBeforeVotingEnd {\n        proposals[proposal].name = newName;\n    }\n\n    function addProposal(\n        string memory newName\n    ) public onlyElectionCommission onlyBeforeStart onlyBeforeVotingEnd {\n        proposals.push(Proposal({name: newName, voteCount: 0}));\n    }\n\n    function editTitle(\n        string memory newTitle\n    ) public onlyElectionCommission onlyBeforeStart onlyBeforeVotingEnd {\n        title = newTitle;\n    }\n\n    function editDeadline(\n        uint256 newDeadline\n    ) public onlyElectionCommission onlyBeforeStart onlyBeforeVotingEnd {\n        votingDuration = newDeadline;\n    }\n\n    function vote(\n        uint proposal\n    ) public onlyWhiteListed onlyBeforeVotingEnd onlyOnce {\n        address voter = msg.sender;\n        // require(exists[voter] == true, \"You are not allowed to vote\");\n        // require(whiteList[voter] > 0, \"You have already voted\");\n\n        uint voteWeight = whiteList[voter];\n\n        proposals[proposal].voteCount += voteWeight;\n        whiteList[voter] = 0;\n    }\n\n    function getIsWhiteListed(address key) external view returns (bool) {\n        return exists[key];\n    }\n\n    function startVoting() public onlyElectionCommission onlyBeforeVotingEnd {\n        votingStartTime = block.timestamp;\n        votingStarted = true;\n    }\n\n    function endVoting() public onlyElectionCommission onlyBeforeVotingEnd {\n        votingEnded = true;\n    }\n\n    function getIsOpen() public view returns (bool) {\n        return votingEnded == false && votingStarted == true;\n    }\n\n    function getResult()\n        external\n        view\n        onlyAfterVotingEnd\n        returns (uint winningProposal_)\n    {\n        uint winningVoteCount = 0;\n        for (uint p = 0; p < proposals.length; p++) {\n            if (proposals[p].voteCount > winningVoteCount) {\n                winningVoteCount = proposals[p].voteCount;\n                winningProposal_ = p;\n            }\n        }\n    }\n}\n",
  "sourcePath": "/home/lucas/Documentos/faculdade/TCC/TCC_blockchain_voting/blockchain/contracts/Voting.sol",
  "compiler": {
    "name": "solc",
    "version": "0.8.13+commit.abaa5c0e.Emscripten.clang"
  },
  "schemaVersion": "3.4.10",
  "updatedAt": "2023-06-10T15:31:45.255Z",
  "devdoc": {
    "kind": "dev",
    "methods": {},
    "version": 1
  },
  "userdoc": {
    "kind": "user",
    "methods": {},
    "version": 1
  }
}