{
  "contractName": "Voting",
  "abi": [
    {
      "inputs": [
        {
          "internalType": "address",
          "name": "_electionCommission",
          "type": "address"
        },
        {
          "internalType": "string",
          "name": "_title",
          "type": "string"
        },
        {
          "internalType": "string[]",
          "name": "_proposals",
          "type": "string[]"
        },
        {
          "internalType": "address[]",
          "name": "_whiteList",
          "type": "address[]"
        },
        {
          "internalType": "uint256",
          "name": "duration",
          "type": "uint256"
        }
      ],
      "stateMutability": "nonpayable",
      "type": "constructor"
    },
    {
      "inputs": [],
      "name": "electionCommission",
      "outputs": [
        {
          "internalType": "address",
          "name": "",
          "type": "address"
        }
      ],
      "stateMutability": "view",
      "type": "function"
    },
    {
      "inputs": [
        {
          "internalType": "uint256",
          "name": "",
          "type": "uint256"
        }
      ],
      "name": "proposals",
      "outputs": [
        {
          "internalType": "string",
          "name": "name",
          "type": "string"
        },
        {
          "internalType": "uint256",
          "name": "voteCount",
          "type": "uint256"
        }
      ],
      "stateMutability": "view",
      "type": "function"
    },
    {
      "inputs": [],
      "name": "title",
      "outputs": [
        {
          "internalType": "string",
          "name": "",
          "type": "string"
        }
      ],
      "stateMutability": "view",
      "type": "function"
    },
    {
      "inputs": [],
      "name": "votingDuration",
      "outputs": [
        {
          "internalType": "uint256",
          "name": "",
          "type": "uint256"
        }
      ],
      "stateMutability": "view",
      "type": "function"
    },
    {
      "inputs": [],
      "name": "votingEnded",
      "outputs": [
        {
          "internalType": "bool",
          "name": "",
          "type": "bool"
        }
      ],
      "stateMutability": "view",
      "type": "function"
    },
    {
      "inputs": [],
      "name": "votingStartTime",
      "outputs": [
        {
          "internalType": "uint256",
          "name": "",
          "type": "uint256"
        }
      ],
      "stateMutability": "view",
      "type": "function"
    },
    {
      "inputs": [],
      "name": "votingStarted",
      "outputs": [
        {
          "internalType": "bool",
          "name": "",
          "type": "bool"
        }
      ],
      "stateMutability": "view",
      "type": "function"
    },
    {
      "inputs": [
        {
          "internalType": "address",
          "name": "key",
          "type": "address"
        }
      ],
      "name": "getExists",
      "outputs": [
        {
          "internalType": "bool",
          "name": "",
          "type": "bool"
        }
      ],
      "stateMutability": "view",
      "type": "function"
    },
    {
      "inputs": [
        {
          "internalType": "address",
          "name": "voter",
          "type": "address"
        }
      ],
      "name": "addToWhiteList",
      "outputs": [],
      "stateMutability": "nonpayable",
      "type": "function"
    },
    {
      "inputs": [
        {
          "internalType": "address",
          "name": "voter",
          "type": "address"
        }
      ],
      "name": "removeFromWhiteList",
      "outputs": [],
      "stateMutability": "nonpayable",
      "type": "function"
    },
    {
      "inputs": [],
      "name": "getProposals",
      "outputs": [
        {
          "internalType": "string[]",
          "name": "",
          "type": "string[]"
        }
      ],
      "stateMutability": "view",
      "type": "function"
    },
    {
      "inputs": [
        {
          "internalType": "uint256",
          "name": "proposal",
          "type": "uint256"
        },
        {
          "internalType": "string",
          "name": "newName",
          "type": "string"
        }
      ],
      "name": "editProposal",
      "outputs": [],
      "stateMutability": "nonpayable",
      "type": "function"
    },
    {
      "inputs": [
        {
          "internalType": "string",
          "name": "newName",
          "type": "string"
        }
      ],
      "name": "addProposal",
      "outputs": [],
      "stateMutability": "nonpayable",
      "type": "function"
    },
    {
      "inputs": [
        {
          "internalType": "string",
          "name": "newTitle",
          "type": "string"
        }
      ],
      "name": "editTitle",
      "outputs": [],
      "stateMutability": "nonpayable",
      "type": "function"
    },
    {
      "inputs": [
        {
          "internalType": "uint256",
          "name": "newDeadline",
          "type": "uint256"
        }
      ],
      "name": "editDeadline",
      "outputs": [],
      "stateMutability": "nonpayable",
      "type": "function"
    },
    {
      "inputs": [
        {
          "internalType": "uint256",
          "name": "proposal",
          "type": "uint256"
        }
      ],
      "name": "vote",
      "outputs": [],
      "stateMutability": "nonpayable",
      "type": "function"
    },
    {
      "inputs": [
        {
          "internalType": "address",
          "name": "key",
          "type": "address"
        }
      ],
      "name": "getIsWhiteListed",
      "outputs": [
        {
          "internalType": "bool",
          "name": "",
          "type": "bool"
        }
      ],
      "stateMutability": "view",
      "type": "function"
    },
    {
      "inputs": [],
      "name": "startVoting",
      "outputs": [],
      "stateMutability": "nonpayable",
      "type": "function"
    },
    {
      "inputs": [],
      "name": "endVoting",
      "outputs": [],
      "stateMutability": "nonpayable",
      "type": "function"
    },
    {
      "inputs": [],
      "name": "getIsOpen",
      "outputs": [
        {
          "internalType": "bool",
          "name": "",
          "type": "bool"
        }
      ],
      "stateMutability": "view",
      "type": "function"
    },
    {
      "inputs": [],
      "name": "getResult",
      "outputs": [
        {
          "internalType": "uint256",
          "name": "winningProposal_",
          "type": "uint256"
        }
      ],
      "stateMutability": "view",
      "type": "function"
    }
  ],
  "bytecode": "0x60806040523480156200001157600080fd5b5060405162002a7c38038062002a7c83398181016040528101906200003791906200073f565b84600660026101000a81548173ffffffffffffffffffffffffffffffffffffffff021916908373ffffffffffffffffffffffffffffffffffffffff16021790555083600090805190602001906200009092919062000280565b50806004819055506000600660006101000a81548160ff0219169083151502179055506000600660016101000a81548160ff02191690831515021790555060005b83518110156200017a5760036040518060400160405280868481518110620000fe57620000fd62000824565b5b602002602001015181526020016000815250908060018154018082558091505060019003906000526020600020906002020160009091909190915060008201518160000190805190602001906200015792919062000280565b506020820151816001015550508080620001719062000882565b915050620000d1565b5060005b825181101562000274576001806000858481518110620001a357620001a262000824565b5b602002602001015173ffffffffffffffffffffffffffffffffffffffff1673ffffffffffffffffffffffffffffffffffffffff1681526020019081526020016000208190555060016002600085848151811062000205576200020462000824565b5b602002602001015173ffffffffffffffffffffffffffffffffffffffff1673ffffffffffffffffffffffffffffffffffffffff16815260200190815260200160002060006101000a81548160ff02191690831515021790555080806200026b9062000882565b9150506200017e565b50505050505062000933565b8280546200028e90620008fe565b90600052602060002090601f016020900481019282620002b25760008555620002fe565b82601f10620002cd57805160ff1916838001178555620002fe565b82800160010185558215620002fe579182015b82811115620002fd578251825591602001919060010190620002e0565b5b5090506200030d919062000311565b5090565b5b808211156200032c57600081600090555060010162000312565b5090565b6000604051905090565b600080fd5b600080fd5b600073ffffffffffffffffffffffffffffffffffffffff82169050919050565b6000620003718262000344565b9050919050565b620003838162000364565b81146200038f57600080fd5b50565b600081519050620003a38162000378565b92915050565b600080fd5b600080fd5b6000601f19601f8301169050919050565b7f4e487b7100000000000000000000000000000000000000000000000000000000600052604160045260246000fd5b620003fe82620003b3565b810181811067ffffffffffffffff8211171562000420576200041f620003c4565b5b80604052505050565b60006200043562000330565b9050620004438282620003f3565b919050565b600067ffffffffffffffff821115620004665762000465620003c4565b5b6200047182620003b3565b9050602081019050919050565b60005b838110156200049e57808201518184015260208101905062000481565b83811115620004ae576000848401525b50505050565b6000620004cb620004c58462000448565b62000429565b905082815260208101848484011115620004ea57620004e9620003ae565b5b620004f78482856200047e565b509392505050565b600082601f830112620005175762000516620003a9565b5b815162000529848260208601620004b4565b91505092915050565b600067ffffffffffffffff82111562000550576200054f620003c4565b5b602082029050602081019050919050565b600080fd5b60006200057d620005778462000532565b62000429565b90508083825260208201905060208402830185811115620005a357620005a262000561565b5b835b81811015620005f157805167ffffffffffffffff811115620005cc57620005cb620003a9565b5b808601620005db8982620004ff565b85526020850194505050602081019050620005a5565b5050509392505050565b600082601f830112620006135762000612620003a9565b5b81516200062584826020860162000566565b91505092915050565b600067ffffffffffffffff8211156200064c576200064b620003c4565b5b602082029050602081019050919050565b6000620006746200066e846200062e565b62000429565b905080838252602082019050602084028301858111156200069a576200069962000561565b5b835b81811015620006c75780620006b2888262000392565b8452602084019350506020810190506200069c565b5050509392505050565b600082601f830112620006e957620006e8620003a9565b5b8151620006fb8482602086016200065d565b91505092915050565b6000819050919050565b620007198162000704565b81146200072557600080fd5b50565b60008151905062000739816200070e565b92915050565b600080600080600060a086880312156200075e576200075d6200033a565b5b60006200076e8882890162000392565b955050602086015167ffffffffffffffff8111156200079257620007916200033f565b5b620007a088828901620004ff565b945050604086015167ffffffffffffffff811115620007c457620007c36200033f565b5b620007d288828901620005fb565b935050606086015167ffffffffffffffff811115620007f657620007f56200033f565b5b6200080488828901620006d1565b9250506080620008178882890162000728565b9150509295509295909350565b7f4e487b7100000000000000000000000000000000000000000000000000000000600052603260045260246000fd5b7f4e487b7100000000000000000000000000000000000000000000000000000000600052601160045260246000fd5b60006200088f8262000704565b91507fffffffffffffffffffffffffffffffffffffffffffffffffffffffffffffffff8203620008c457620008c362000853565b5b600182019050919050565b7f4e487b7100000000000000000000000000000000000000000000000000000000600052602260045260246000fd5b600060028204905060018216806200091757607f821691505b6020821081036200092d576200092c620008cf565b5b50919050565b61213980620009436000396000f3fe608060405234801561001057600080fd5b50600436106101375760003560e01c806362564c48116100b8578063aab46b7f1161007c578063aab46b7f14610303578063b1b0be2f14610321578063bfae21721461033f578063c3403ddf1461035b578063d7d4e63114610365578063de2927891461039557610137565b806362564c48146102715780636eb836891461028f57806383d948b7146102ab5780639bd4dd3c146102c95780639d5a0529146102e557610137565b80632019a608116100ff5780632019a608146101cd5780632fdae3c5146101eb57806337b7b9b81461020757806347ee0394146102375780634a79d50c1461025357610137565b80630121b93f1461013c578063013cf08b1461015857806301bf664814610189578063132002fc146101a55780631ec6b60a146101c3575b600080fd5b61015660048036038101906101519190611778565b6103b3565b005b610172600480360381019061016d9190611778565b6105e8565b60405161018092919061184d565b60405180910390f35b6101a3600480360381019061019e91906118db565b6106a4565b005b6101ad6108ce565b6040516101ba9190611908565b60405180910390f35b6101cb6108d4565b005b6101d56109d9565b6040516101e29190611908565b60405180910390f35b61020560048036038101906102009190611a58565b6109df565b005b610221600480360381019061021c91906118db565b610b83565b60405161022e9190611abc565b60405180910390f35b610251600480360381019061024c91906118db565b610bd9565b005b61025b610e01565b6040516102689190611ad7565b60405180910390f35b610279610e8f565b6040516102869190611c05565b60405180910390f35b6102a960048036038101906102a49190611a58565b610fe0565b005b6102b3611131565b6040516102c09190611abc565b60405180910390f35b6102e360048036038101906102de9190611778565b611144565b005b6102ed611285565b6040516102fa9190611abc565b60405180910390f35b61030b611298565b6040516103189190611c36565b60405180910390f35b6103296112be565b6040516103369190611abc565b60405180910390f35b61035960048036038101906103549190611c51565b6112fa565b005b61036361146f565b005b61037f600480360381019061037a91906118db565b61156d565b60405161038c9190611abc565b60405180910390f35b61039d6115c3565b6040516103aa9190611908565b60405180910390f35b60011515600260003373ffffffffffffffffffffffffffffffffffffffff1673ffffffffffffffffffffffffffffffffffffffff16815260200190815260200160002060009054906101000a900460ff16151514610446576040517f08c379a000000000000000000000000000000000000000000000000000000000815260040161043d90611d1f565b60405180910390fd5b6004546005546104569190611d6e565b4210610497576040517f08c379a000000000000000000000000000000000000000000000000000000000815260040161048e90611e10565b60405180910390fd5b6000600160003373ffffffffffffffffffffffffffffffffffffffff1673ffffffffffffffffffffffffffffffffffffffff1681526020019081526020016000205411610519576040517f08c379a000000000000000000000000000000000000000000000000000000000815260040161051090611ea2565b60405180910390fd5b60003390506000600160008373ffffffffffffffffffffffffffffffffffffffff1673ffffffffffffffffffffffffffffffffffffffff168152602001908152602001600020549050806003848154811061057757610576611ec2565b5b906000526020600020906002020160010160008282546105979190611d6e565b925050819055506000600160008473ffffffffffffffffffffffffffffffffffffffff1673ffffffffffffffffffffffffffffffffffffffff16815260200190815260200160002081905550505050565b600381815481106105f857600080fd5b906000526020600020906002020160009150905080600001805461061b90611f20565b80601f016020809104026020016040519081016040528092919081815260200182805461064790611f20565b80156106945780601f1061066957610100808354040283529160200191610694565b820191906000526020600020905b81548152906001019060200180831161067757829003601f168201915b5050505050908060010154905082565b600660029054906101000a900473ffffffffffffffffffffffffffffffffffffffff1673ffffffffffffffffffffffffffffffffffffffff163373ffffffffffffffffffffffffffffffffffffffff1614610734576040517f08c379a000000000000000000000000000000000000000000000000000000000815260040161072b90611fc3565b60405180910390fd5b60001515600660019054906101000a900460ff1615151461078a576040517f08c379a00000000000000000000000000000000000000000000000000000000081526004016107819061202f565b60405180910390fd5b60045460055461079a9190611d6e565b42106107db576040517f08c379a00000000000000000000000000000000000000000000000000000000081526004016107d290611e10565b60405180910390fd5b600260008273ffffffffffffffffffffffffffffffffffffffff1673ffffffffffffffffffffffffffffffffffffffff16815260200190815260200160002060009054906101000a900460ff16156108cb576000600160008373ffffffffffffffffffffffffffffffffffffffff1673ffffffffffffffffffffffffffffffffffffffff168152602001908152602001600020819055506000600260008373ffffffffffffffffffffffffffffffffffffffff1673ffffffffffffffffffffffffffffffffffffffff16815260200190815260200160002060006101000a81548160ff0219169083151502179055505b50565b60045481565b600660029054906101000a900473ffffffffffffffffffffffffffffffffffffffff1673ffffffffffffffffffffffffffffffffffffffff163373ffffffffffffffffffffffffffffffffffffffff1614610964576040517f08c379a000000000000000000000000000000000000000000000000000000000815260040161095b90611fc3565b60405180910390fd5b6004546005546109749190611d6e565b42106109b5576040517f08c379a00000000000000000000000000000000000000000000000000000000081526004016109ac90611e10565b60405180910390fd5b426005819055506001600660016101000a81548160ff021916908315150217905550565b60055481565b600660029054906101000a900473ffffffffffffffffffffffffffffffffffffffff1673ffffffffffffffffffffffffffffffffffffffff163373ffffffffffffffffffffffffffffffffffffffff1614610a6f576040517f08c379a0000000000000000000000000000000000000000000000000000000008152600401610a6690611fc3565b60405180910390fd5b60001515600660019054906101000a900460ff16151514610ac5576040517f08c379a0000000000000000000000000000000000000000000000000000000008152600401610abc9061202f565b60405180910390fd5b600454600554610ad59190611d6e565b4210610b16576040517f08c379a0000000000000000000000000000000000000000000000000000000008152600401610b0d90611e10565b60405180910390fd5b60036040518060400160405280838152602001600081525090806001815401808255809150506001900390600052602060002090600202016000909190919091506000820151816000019080519060200190610b7392919061168b565b5060208201518160010155505050565b6000600260008373ffffffffffffffffffffffffffffffffffffffff1673ffffffffffffffffffffffffffffffffffffffff16815260200190815260200160002060009054906101000a900460ff169050919050565b600660029054906101000a900473ffffffffffffffffffffffffffffffffffffffff1673ffffffffffffffffffffffffffffffffffffffff163373ffffffffffffffffffffffffffffffffffffffff1614610c69576040517f08c379a0000000000000000000000000000000000000000000000000000000008152600401610c6090611fc3565b60405180910390fd5b60001515600660019054906101000a900460ff16151514610cbf576040517f08c379a0000000000000000000000000000000000000000000000000000000008152600401610cb69061202f565b60405180910390fd5b600454600554610ccf9190611d6e565b4210610d10576040517f08c379a0000000000000000000000000000000000000000000000000000000008152600401610d0790611e10565b60405180910390fd5b600260008273ffffffffffffffffffffffffffffffffffffffff1673ffffffffffffffffffffffffffffffffffffffff16815260200190815260200160002060009054906101000a900460ff16610dfe5760018060008373ffffffffffffffffffffffffffffffffffffffff1673ffffffffffffffffffffffffffffffffffffffff168152602001908152602001600020819055506001600260008373ffffffffffffffffffffffffffffffffffffffff1673ffffffffffffffffffffffffffffffffffffffff16815260200190815260200160002060006101000a81548160ff0219169083151502179055505b50565b60008054610e0e90611f20565b80601f0160208091040260200160405190810160405280929190818152602001828054610e3a90611f20565b8015610e875780601f10610e5c57610100808354040283529160200191610e87565b820191906000526020600020905b815481529060010190602001808311610e6a57829003601f168201915b505050505081565b60606000600380549050905060008167ffffffffffffffff811115610eb757610eb661192d565b5b604051908082528060200260200182016040528015610eea57816020015b6060815260200190600190039081610ed55790505b50905060005b82811015610fd75760038181548110610f0c57610f0b611ec2565b5b90600052602060002090600202016000018054610f2890611f20565b80601f0160208091040260200160405190810160405280929190818152602001828054610f5490611f20565b8015610fa15780601f10610f7657610100808354040283529160200191610fa1565b820191906000526020600020905b815481529060010190602001808311610f8457829003601f168201915b5050505050828281518110610fb957610fb8611ec2565b5b60200260200101819052508080610fcf9061204f565b915050610ef0565b50809250505090565b600660029054906101000a900473ffffffffffffffffffffffffffffffffffffffff1673ffffffffffffffffffffffffffffffffffffffff163373ffffffffffffffffffffffffffffffffffffffff1614611070576040517f08c379a000000000000000000000000000000000000000000000000000000000815260040161106790611fc3565b60405180910390fd5b60001515600660019054906101000a900460ff161515146110c6576040517f08c379a00000000000000000000000000000000000000000000000000000000081526004016110bd9061202f565b60405180910390fd5b6004546005546110d69190611d6e565b4210611117576040517f08c379a000000000000000000000000000000000000000000000000000000000815260040161110e90611e10565b60405180910390fd5b806000908051906020019061112d92919061168b565b5050565b600660019054906101000a900460ff1681565b600660029054906101000a900473ffffffffffffffffffffffffffffffffffffffff1673ffffffffffffffffffffffffffffffffffffffff163373ffffffffffffffffffffffffffffffffffffffff16146111d4576040517f08c379a00000000000000000000000000000000000000000000000000000000081526004016111cb90611fc3565b60405180910390fd5b60001515600660019054906101000a900460ff1615151461122a576040517f08c379a00000000000000000000000000000000000000000000000000000000081526004016112219061202f565b60405180910390fd5b60045460055461123a9190611d6e565b421061127b576040517f08c379a000000000000000000000000000000000000000000000000000000000815260040161127290611e10565b60405180910390fd5b8060048190555050565b600660009054906101000a900460ff1681565b600660029054906101000a900473ffffffffffffffffffffffffffffffffffffffff1681565b6000801515600660009054906101000a900460ff1615151480156112f5575060011515600660019054906101000a900460ff161515145b905090565b600660029054906101000a900473ffffffffffffffffffffffffffffffffffffffff1673ffffffffffffffffffffffffffffffffffffffff163373ffffffffffffffffffffffffffffffffffffffff161461138a576040517f08c379a000000000000000000000000000000000000000000000000000000000815260040161138190611fc3565b60405180910390fd5b60001515600660019054906101000a900460ff161515146113e0576040517f08c379a00000000000000000000000000000000000000000000000000000000081526004016113d79061202f565b60405180910390fd5b6004546005546113f09190611d6e565b4210611431576040517f08c379a000000000000000000000000000000000000000000000000000000000815260040161142890611e10565b60405180910390fd5b806003838154811061144657611445611ec2565b5b9060005260206000209060020201600001908051906020019061146a92919061168b565b505050565b600660029054906101000a900473ffffffffffffffffffffffffffffffffffffffff1673ffffffffffffffffffffffffffffffffffffffff163373ffffffffffffffffffffffffffffffffffffffff16146114ff576040517f08c379a00000000000000000000000000000000000000000000000000000000081526004016114f690611fc3565b60405180910390fd5b60045460055461150f9190611d6e565b4210611550576040517f08c379a000000000000000000000000000000000000000000000000000000000815260040161154790611e10565b60405180910390fd5b6001600660006101000a81548160ff021916908315150217905550565b6000600260008373ffffffffffffffffffffffffffffffffffffffff1673ffffffffffffffffffffffffffffffffffffffff16815260200190815260200160002060009054906101000a900460ff169050919050565b60006004544211611609576040517f08c379a0000000000000000000000000000000000000000000000000000000008152600401611600906120e3565b60405180910390fd5b6000805b60038054905081101561168657816003828154811061162f5761162e611ec2565b5b9060005260206000209060020201600101541115611673576003818154811061165b5761165a611ec2565b5b90600052602060002090600202016001015491508092505b808061167e9061204f565b91505061160d565b505090565b82805461169790611f20565b90600052602060002090601f0160209004810192826116b95760008555611700565b82601f106116d257805160ff1916838001178555611700565b82800160010185558215611700579182015b828111156116ff5782518255916020019190600101906116e4565b5b50905061170d9190611711565b5090565b5b8082111561172a576000816000905550600101611712565b5090565b6000604051905090565b600080fd5b600080fd5b6000819050919050565b61175581611742565b811461176057600080fd5b50565b6000813590506117728161174c565b92915050565b60006020828403121561178e5761178d611738565b5b600061179c84828501611763565b91505092915050565b600081519050919050565b600082825260208201905092915050565b60005b838110156117df5780820151818401526020810190506117c4565b838111156117ee576000848401525b50505050565b6000601f19601f8301169050919050565b6000611810826117a5565b61181a81856117b0565b935061182a8185602086016117c1565b611833816117f4565b840191505092915050565b61184781611742565b82525050565b600060408201905081810360008301526118678185611805565b9050611876602083018461183e565b9392505050565b600073ffffffffffffffffffffffffffffffffffffffff82169050919050565b60006118a88261187d565b9050919050565b6118b88161189d565b81146118c357600080fd5b50565b6000813590506118d5816118af565b92915050565b6000602082840312156118f1576118f0611738565b5b60006118ff848285016118c6565b91505092915050565b600060208201905061191d600083018461183e565b92915050565b600080fd5b600080fd5b7f4e487b7100000000000000000000000000000000000000000000000000000000600052604160045260246000fd5b611965826117f4565b810181811067ffffffffffffffff821117156119845761198361192d565b5b80604052505050565b600061199761172e565b90506119a3828261195c565b919050565b600067ffffffffffffffff8211156119c3576119c261192d565b5b6119cc826117f4565b9050602081019050919050565b82818337600083830152505050565b60006119fb6119f6846119a8565b61198d565b905082815260208101848484011115611a1757611a16611928565b5b611a228482856119d9565b509392505050565b600082601f830112611a3f57611a3e611923565b5b8135611a4f8482602086016119e8565b91505092915050565b600060208284031215611a6e57611a6d611738565b5b600082013567ffffffffffffffff811115611a8c57611a8b61173d565b5b611a9884828501611a2a565b91505092915050565b60008115159050919050565b611ab681611aa1565b82525050565b6000602082019050611ad16000830184611aad565b92915050565b60006020820190508181036000830152611af18184611805565b905092915050565b600081519050919050565b600082825260208201905092915050565b6000819050602082019050919050565b600082825260208201905092915050565b6000611b41826117a5565b611b4b8185611b25565b9350611b5b8185602086016117c1565b611b64816117f4565b840191505092915050565b6000611b7b8383611b36565b905092915050565b6000602082019050919050565b6000611b9b82611af9565b611ba58185611b04565b935083602082028501611bb785611b15565b8060005b85811015611bf35784840389528151611bd48582611b6f565b9450611bdf83611b83565b925060208a01995050600181019050611bbb565b50829750879550505050505092915050565b60006020820190508181036000830152611c1f8184611b90565b905092915050565b611c308161189d565b82525050565b6000602082019050611c4b6000830184611c27565b92915050565b60008060408385031215611c6857611c67611738565b5b6000611c7685828601611763565b925050602083013567ffffffffffffffff811115611c9757611c9661173d565b5b611ca385828601611a2a565b9150509250929050565b7f596f7520617265206e6f7420616c6c6f77656420746f20766f746520696e207460008201527f68697320656c656374696f6e2e00000000000000000000000000000000000000602082015250565b6000611d09602d836117b0565b9150611d1482611cad565b604082019050919050565b60006020820190508181036000830152611d3881611cfc565b9050919050565b7f4e487b7100000000000000000000000000000000000000000000000000000000600052601160045260246000fd5b6000611d7982611742565b9150611d8483611742565b9250827fffffffffffffffffffffffffffffffffffffffffffffffffffffffffffffffff03821115611db957611db8611d3f565b5b828201905092915050565b7f566f74696e672068617320616c726561647920656e6465642e00000000000000600082015250565b6000611dfa6019836117b0565b9150611e0582611dc4565b602082019050919050565b60006020820190508181036000830152611e2981611ded565b9050919050565b7f596f75206861766520616c726561647920766f74656420696e2074686973206560008201527f6c656374696f6e2e000000000000000000000000000000000000000000000000602082015250565b6000611e8c6028836117b0565b9150611e9782611e30565b604082019050919050565b60006020820190508181036000830152611ebb81611e7f565b9050919050565b7f4e487b7100000000000000000000000000000000000000000000000000000000600052603260045260246000fd5b7f4e487b7100000000000000000000000000000000000000000000000000000000600052602260045260246000fd5b60006002820490506001821680611f3857607f821691505b602082108103611f4b57611f4a611ef1565b5b50919050565b7f4f6e6c7920456c656374696f6e20436f6d6d697373696f6e2063616e2067697660008201527f6520726967687420746f20766f74652e00000000000000000000000000000000602082015250565b6000611fad6030836117b0565b9150611fb882611f51565b604082019050919050565b60006020820190508181036000830152611fdc81611fa0565b9050919050565b7f566f74696e672068617320616c726561647920737461727465642e0000000000600082015250565b6000612019601b836117b0565b915061202482611fe3565b602082019050919050565b600060208201905081810360008301526120488161200c565b9050919050565b600061205a82611742565b91507fffffffffffffffffffffffffffffffffffffffffffffffffffffffffffffffff820361208c5761208b611d3f565b5b600182019050919050565b7f566f74696e6720686173206e6f7420656e646564207965742e00000000000000600082015250565b60006120cd6019836117b0565b91506120d882612097565b602082019050919050565b600060208201905081810360008301526120fc816120c0565b905091905056fea264697066735822122003175e3013b313fbba432c7610c0581c09e3c67cc9edbb87ded56d5b68602f4164736f6c634300080d0033",
  "immutableReferences": {},
  "source": "// SPDX-License-Identifier: MIT\n// Tells the Solidity compiler to compile only from v0.8.0 to v0.9.0\npragma solidity ^0.8.0;\n\ncontract Voting {\n    string public title;\n\n    mapping(address => uint) whiteList;\n    mapping(address => bool) exists;\n\n    struct Proposal {\n        string name;\n        uint voteCount;\n    }\n    Proposal[] public proposals;\n\n    uint256 public votingDuration;\n    uint256 public votingStartTime;\n    bool public votingEnded; // Stores whether the voting has ended or not\n    bool public votingStarted; // Stores whether the voting has started or not\n\n    address public electionCommission;\n\n    constructor(\n        address _electionCommission,\n        string memory _title,\n        string[] memory _proposals,\n        address[] memory _whiteList,\n        uint256 duration\n    ) {\n        electionCommission = _electionCommission;\n        title = _title;\n        votingDuration = duration;\n        votingEnded = false;\n        votingStarted = false;\n\n        for (uint i = 0; i < _proposals.length; i++) {\n            proposals.push(Proposal({name: _proposals[i], voteCount: 0}));\n        }\n\n        for (uint i = 0; i < _whiteList.length; i++) {\n            whiteList[_whiteList[i]] = 1;\n            exists[_whiteList[i]] = true;\n        }\n    }\n\n    modifier onlyElectionCommission() {\n        require(\n            msg.sender == electionCommission,\n            \"Only Election Commission can give right to vote.\"\n        );\n        _;\n    }\n\n    modifier onlyBeforeStart() {\n        require(votingStarted == false, \"Voting has already started.\");\n        _;\n    }\n\n    modifier onlyBeforeVotingEnd() {\n        require(\n            block.timestamp < (votingStartTime + votingDuration),\n            \"Voting has already ended.\"\n        );\n        _;\n    }\n\n    modifier onlyAfterVotingEnd() {\n        require(block.timestamp > votingDuration, \"Voting has not ended yet.\");\n        _;\n    }\n\n    modifier onlyWhiteListed() {\n        require(\n            exists[msg.sender] == true,\n            \"You are not allowed to vote in this election.\"\n        );\n        _;\n    }\n\n    modifier onlyOnce() {\n        require(\n            whiteList[msg.sender] > 0,\n            \"You have already voted in this election.\"\n        );\n        _;\n    }\n\n    function getExists(address key) public view returns (bool) {\n        return exists[key];\n    }\n\n    function addToWhiteList(\n        address voter\n    ) public onlyElectionCommission onlyBeforeStart onlyBeforeVotingEnd {\n        if (exists[voter]) return;\n\n        whiteList[voter] = 1;\n        exists[voter] = true;\n    }\n\n    function removeFromWhiteList(\n        address voter\n    ) public onlyElectionCommission onlyBeforeStart onlyBeforeVotingEnd {\n        if (!exists[voter]) return;\n\n        whiteList[voter] = 0;\n        exists[voter] = false;\n    }\n\n    function getProposals() public view returns (string[] memory) {\n        uint arrayLength = proposals.length;\n\n        string[] memory proposalNames = new string[](arrayLength);\n\n        for (uint i = 0; i < arrayLength; i++) {\n            proposalNames[i] = proposals[i].name;\n        }\n\n        return proposalNames;\n    }\n\n    function editProposal(\n        uint proposal,\n        string memory newName\n    ) public onlyElectionCommission onlyBeforeStart onlyBeforeVotingEnd {\n        proposals[proposal].name = newName;\n    }\n\n    function addProposal(\n        string memory newName\n    ) public onlyElectionCommission onlyBeforeStart onlyBeforeVotingEnd {\n        proposals.push(Proposal({name: newName, voteCount: 0}));\n    }\n\n    function editTitle(\n        string memory newTitle\n    ) public onlyElectionCommission onlyBeforeStart onlyBeforeVotingEnd {\n        title = newTitle;\n    }\n\n    function editDeadline(\n        uint256 newDeadline\n    ) public onlyElectionCommission onlyBeforeStart onlyBeforeVotingEnd {\n        votingDuration = newDeadline;\n    }\n\n    function vote(\n        uint proposal\n    ) public onlyWhiteListed onlyBeforeVotingEnd onlyOnce {\n        address voter = msg.sender;\n        // require(exists[voter] == true, \"You are not allowed to vote\");\n        // require(whiteList[voter] > 0, \"You have already voted\");\n\n        uint voteWeight = whiteList[voter];\n\n        proposals[proposal].voteCount += voteWeight;\n        whiteList[voter] = 0;\n    }\n\n    function getIsWhiteListed(address key) external view returns (bool) {\n        return exists[key];\n    }\n\n    function startVoting() public onlyElectionCommission onlyBeforeVotingEnd {\n        votingStartTime = block.timestamp;\n        votingStarted = true;\n    }\n\n    function endVoting() public onlyElectionCommission onlyBeforeVotingEnd {\n        votingEnded = true;\n    }\n\n    function getIsOpen() public view returns (bool) {\n        return votingEnded == false && votingStarted == true;\n    }\n\n    function getResult()\n        external\n        view\n        onlyAfterVotingEnd\n        returns (uint winningProposal_)\n    {\n        uint winningVoteCount = 0;\n        for (uint p = 0; p < proposals.length; p++) {\n            if (proposals[p].voteCount > winningVoteCount) {\n                winningVoteCount = proposals[p].voteCount;\n                winningProposal_ = p;\n            }\n        }\n    }\n}\n",
  "sourcePath": "/home/eduardo/TCC_blockchain_voting/blockchain/contracts/Voting.sol",
  "compiler": {
    "name": "solc",
    "version": "0.8.13+commit.abaa5c0e.Emscripten.clang"
  },
  "schemaVersion": "3.4.14",
  "updatedAt": "2023-05-31T01:48:55.162Z",
  "devdoc": {
    "kind": "dev",
    "methods": {},
    "version": 1
  },
  "userdoc": {
    "kind": "user",
    "methods": {},
    "version": 1
  }
}