{
  "contractName": "Voting",
  "abi": [
    {
      "inputs": [
        {
          "internalType": "string",
          "name": "_title",
          "type": "string"
        },
        {
          "internalType": "string[]",
          "name": "_proposals",
          "type": "string[]"
        },
        {
          "internalType": "address[]",
          "name": "_whiteList",
          "type": "address[]"
        },
        {
          "internalType": "uint256",
          "name": "duration",
          "type": "uint256"
        }
      ],
      "stateMutability": "nonpayable",
      "type": "constructor"
    },
    {
      "inputs": [],
      "name": "electionCommission",
      "outputs": [
        {
          "internalType": "address",
          "name": "",
          "type": "address"
        }
      ],
      "stateMutability": "view",
      "type": "function"
    },
    {
      "inputs": [
        {
          "internalType": "uint256",
          "name": "",
          "type": "uint256"
        }
      ],
      "name": "proposals",
      "outputs": [
        {
          "internalType": "string",
          "name": "name",
          "type": "string"
        },
        {
          "internalType": "uint256",
          "name": "voteCount",
          "type": "uint256"
        }
      ],
      "stateMutability": "view",
      "type": "function"
    },
    {
      "inputs": [],
      "name": "title",
      "outputs": [
        {
          "internalType": "string",
          "name": "",
          "type": "string"
        }
      ],
      "stateMutability": "view",
      "type": "function"
    },
    {
      "inputs": [],
      "name": "votingDuration",
      "outputs": [
        {
          "internalType": "uint256",
          "name": "",
          "type": "uint256"
        }
      ],
      "stateMutability": "view",
      "type": "function"
    },
    {
      "inputs": [],
      "name": "votingEnded",
      "outputs": [
        {
          "internalType": "bool",
          "name": "",
          "type": "bool"
        }
      ],
      "stateMutability": "view",
      "type": "function"
    },
    {
      "inputs": [],
      "name": "votingStartTime",
      "outputs": [
        {
          "internalType": "uint256",
          "name": "",
          "type": "uint256"
        }
      ],
      "stateMutability": "view",
      "type": "function"
    },
    {
      "inputs": [],
      "name": "votingStarted",
      "outputs": [
        {
          "internalType": "bool",
          "name": "",
          "type": "bool"
        }
      ],
      "stateMutability": "view",
      "type": "function"
    },
    {
      "inputs": [
        {
          "internalType": "address",
          "name": "key",
          "type": "address"
        }
      ],
      "name": "getExists",
      "outputs": [
        {
          "internalType": "bool",
          "name": "",
          "type": "bool"
        }
      ],
      "stateMutability": "view",
      "type": "function"
    },
    {
      "inputs": [
        {
          "internalType": "address",
          "name": "voter",
          "type": "address"
        }
      ],
      "name": "addToWhiteList",
      "outputs": [],
      "stateMutability": "nonpayable",
      "type": "function"
    },
    {
      "inputs": [
        {
          "internalType": "address",
          "name": "voter",
          "type": "address"
        }
      ],
      "name": "removeFromWhiteList",
      "outputs": [],
      "stateMutability": "nonpayable",
      "type": "function"
    },
    {
      "inputs": [],
      "name": "getProposals",
      "outputs": [
        {
          "internalType": "string[]",
          "name": "",
          "type": "string[]"
        }
      ],
      "stateMutability": "view",
      "type": "function"
    },
    {
      "inputs": [
        {
          "internalType": "uint256",
          "name": "proposal",
          "type": "uint256"
        },
        {
          "internalType": "string",
          "name": "newName",
          "type": "string"
        }
      ],
      "name": "editProposal",
      "outputs": [],
      "stateMutability": "nonpayable",
      "type": "function"
    },
    {
      "inputs": [
        {
          "internalType": "string",
          "name": "newName",
          "type": "string"
        }
      ],
      "name": "addProposal",
      "outputs": [],
      "stateMutability": "nonpayable",
      "type": "function"
    },
    {
      "inputs": [
        {
          "internalType": "string",
          "name": "newTitle",
          "type": "string"
        }
      ],
      "name": "editTitle",
      "outputs": [],
      "stateMutability": "nonpayable",
      "type": "function"
    },
    {
      "inputs": [
        {
          "internalType": "uint256",
          "name": "newDeadline",
          "type": "uint256"
        }
      ],
      "name": "editDeadline",
      "outputs": [],
      "stateMutability": "nonpayable",
      "type": "function"
    },
    {
      "inputs": [
        {
          "internalType": "uint256",
          "name": "proposal",
          "type": "uint256"
        }
      ],
      "name": "vote",
      "outputs": [],
      "stateMutability": "nonpayable",
      "type": "function"
    },
    {
      "inputs": [
        {
          "internalType": "address",
          "name": "key",
          "type": "address"
        }
      ],
      "name": "getIsWhiteListed",
      "outputs": [
        {
          "internalType": "bool",
          "name": "",
          "type": "bool"
        }
      ],
      "stateMutability": "view",
      "type": "function"
    },
    {
      "inputs": [],
      "name": "startVoting",
      "outputs": [],
      "stateMutability": "nonpayable",
      "type": "function"
    },
    {
      "inputs": [],
      "name": "endVoting",
      "outputs": [],
      "stateMutability": "nonpayable",
      "type": "function"
    },
    {
      "inputs": [],
      "name": "getResult",
      "outputs": [
        {
          "internalType": "uint256",
          "name": "winningProposal_",
          "type": "uint256"
        }
      ],
      "stateMutability": "view",
      "type": "function"
    }
  ],
  "bytecode": "0x60806040523480156200001157600080fd5b5060405162002a0738038062002a0783398181016040528101906200003791906200073e565b33600660026101000a81548173ffffffffffffffffffffffffffffffffffffffff021916908373ffffffffffffffffffffffffffffffffffffffff1602179055508360009080519060200190620000909291906200027f565b50806004819055506000600660006101000a81548160ff0219169083151502179055506000600660016101000a81548160ff02191690831515021790555060005b83518110156200017a5760036040518060400160405280868481518110620000fe57620000fd6200080d565b5b60200260200101518152602001600081525090806001815401808255809150506001900390600052602060002090600202016000909190919091506000820151816000019080519060200190620001579291906200027f565b50602082015181600101555050808062000171906200086b565b915050620000d1565b5060005b825181101562000274576001806000858481518110620001a357620001a26200080d565b5b602002602001015173ffffffffffffffffffffffffffffffffffffffff1673ffffffffffffffffffffffffffffffffffffffff168152602001908152602001600020819055506001600260008584815181106200020557620002046200080d565b5b602002602001015173ffffffffffffffffffffffffffffffffffffffff1673ffffffffffffffffffffffffffffffffffffffff16815260200190815260200160002060006101000a81548160ff02191690831515021790555080806200026b906200086b565b9150506200017e565b50505050506200091c565b8280546200028d90620008e7565b90600052602060002090601f016020900481019282620002b15760008555620002fd565b82601f10620002cc57805160ff1916838001178555620002fd565b82800160010185558215620002fd579182015b82811115620002fc578251825591602001919060010190620002df565b5b5090506200030c919062000310565b5090565b5b808211156200032b57600081600090555060010162000311565b5090565b6000604051905090565b600080fd5b600080fd5b600080fd5b600080fd5b6000601f19601f8301169050919050565b7f4e487b7100000000000000000000000000000000000000000000000000000000600052604160045260246000fd5b62000398826200034d565b810181811067ffffffffffffffff82111715620003ba57620003b96200035e565b5b80604052505050565b6000620003cf6200032f565b9050620003dd82826200038d565b919050565b600067ffffffffffffffff8211156200040057620003ff6200035e565b5b6200040b826200034d565b9050602081019050919050565b60005b83811015620004385780820151818401526020810190506200041b565b8381111562000448576000848401525b50505050565b6000620004656200045f84620003e2565b620003c3565b90508281526020810184848401111562000484576200048362000348565b5b6200049184828562000418565b509392505050565b600082601f830112620004b157620004b062000343565b5b8151620004c38482602086016200044e565b91505092915050565b600067ffffffffffffffff821115620004ea57620004e96200035e565b5b602082029050602081019050919050565b600080fd5b6000620005176200051184620004cc565b620003c3565b905080838252602082019050602084028301858111156200053d576200053c620004fb565b5b835b818110156200058b57805167ffffffffffffffff81111562000566576200056562000343565b5b80860162000575898262000499565b855260208501945050506020810190506200053f565b5050509392505050565b600082601f830112620005ad57620005ac62000343565b5b8151620005bf84826020860162000500565b91505092915050565b600067ffffffffffffffff821115620005e657620005e56200035e565b5b602082029050602081019050919050565b600073ffffffffffffffffffffffffffffffffffffffff82169050919050565b60006200062482620005f7565b9050919050565b620006368162000617565b81146200064257600080fd5b50565b60008151905062000656816200062b565b92915050565b6000620006736200066d84620005c8565b620003c3565b90508083825260208201905060208402830185811115620006995762000698620004fb565b5b835b81811015620006c65780620006b1888262000645565b8452602084019350506020810190506200069b565b5050509392505050565b600082601f830112620006e857620006e762000343565b5b8151620006fa8482602086016200065c565b91505092915050565b6000819050919050565b620007188162000703565b81146200072457600080fd5b50565b60008151905062000738816200070d565b92915050565b600080600080608085870312156200075b576200075a62000339565b5b600085015167ffffffffffffffff8111156200077c576200077b6200033e565b5b6200078a8782880162000499565b945050602085015167ffffffffffffffff811115620007ae57620007ad6200033e565b5b620007bc8782880162000595565b935050604085015167ffffffffffffffff811115620007e057620007df6200033e565b5b620007ee87828801620006d0565b9250506060620008018782880162000727565b91505092959194509250565b7f4e487b7100000000000000000000000000000000000000000000000000000000600052603260045260246000fd5b7f4e487b7100000000000000000000000000000000000000000000000000000000600052601160045260246000fd5b6000620008788262000703565b91507fffffffffffffffffffffffffffffffffffffffffffffffffffffffffffffffff8203620008ad57620008ac6200083c565b5b600182019050919050565b7f4e487b7100000000000000000000000000000000000000000000000000000000600052602260045260246000fd5b600060028204905060018216806200090057607f821691505b602082108103620009165762000915620008b8565b5b50919050565b6120db806200092c6000396000f3fe608060405234801561001057600080fd5b506004361061012c5760003560e01c806362564c48116100ad578063aab46b7f11610071578063aab46b7f146102f8578063bfae217214610316578063c3403ddf14610332578063d7d4e6311461033c578063de2927891461036c5761012c565b806362564c48146102665780636eb836891461028457806383d948b7146102a05780639bd4dd3c146102be5780639d5a0529146102da5761012c565b80632019a608116100f45780632019a608146101c25780632fdae3c5146101e057806337b7b9b8146101fc57806347ee03941461022c5780634a79d50c146102485761012c565b80630121b93f14610131578063013cf08b1461014d57806301bf66481461017e578063132002fc1461019a5780631ec6b60a146101b8575b600080fd5b61014b6004803603810190610146919061171a565b61038a565b005b6101676004803603810190610162919061171a565b6105bf565b6040516101759291906117ef565b60405180910390f35b6101986004803603810190610193919061187d565b61067b565b005b6101a26108a5565b6040516101af91906118aa565b60405180910390f35b6101c06108ab565b005b6101ca6109b0565b6040516101d791906118aa565b60405180910390f35b6101fa60048036038101906101f591906119fa565b6109b6565b005b6102166004803603810190610211919061187d565b610b5a565b6040516102239190611a5e565b60405180910390f35b6102466004803603810190610241919061187d565b610bb7565b005b610250610ddf565b60405161025d9190611a79565b60405180910390f35b61026e610e6d565b60405161027b9190611ba7565b60405180910390f35b61029e600480360381019061029991906119fa565b610fbe565b005b6102a861110f565b6040516102b59190611a5e565b60405180910390f35b6102d860048036038101906102d3919061171a565b611122565b005b6102e2611263565b6040516102ef9190611a5e565b60405180910390f35b610300611276565b60405161030d9190611bd8565b60405180910390f35b610330600480360381019061032b9190611bf3565b61129c565b005b61033a611411565b005b6103566004803603810190610351919061187d565b61150f565b6040516103639190611a5e565b60405180910390f35b610374611565565b60405161038191906118aa565b60405180910390f35b60011515600260003373ffffffffffffffffffffffffffffffffffffffff1673ffffffffffffffffffffffffffffffffffffffff16815260200190815260200160002060009054906101000a900460ff1615151461041d576040517f08c379a000000000000000000000000000000000000000000000000000000000815260040161041490611cc1565b60405180910390fd5b60045460055461042d9190611d10565b421061046e576040517f08c379a000000000000000000000000000000000000000000000000000000000815260040161046590611db2565b60405180910390fd5b6000600160003373ffffffffffffffffffffffffffffffffffffffff1673ffffffffffffffffffffffffffffffffffffffff16815260200190815260200160002054116104f0576040517f08c379a00000000000000000000000000000000000000000000000000000000081526004016104e790611e44565b60405180910390fd5b60003390506000600160008373ffffffffffffffffffffffffffffffffffffffff1673ffffffffffffffffffffffffffffffffffffffff168152602001908152602001600020549050806003848154811061054e5761054d611e64565b5b9060005260206000209060020201600101600082825461056e9190611d10565b925050819055506000600160008473ffffffffffffffffffffffffffffffffffffffff1673ffffffffffffffffffffffffffffffffffffffff16815260200190815260200160002081905550505050565b600381815481106105cf57600080fd5b90600052602060002090600202016000915090508060000180546105f290611ec2565b80601f016020809104026020016040519081016040528092919081815260200182805461061e90611ec2565b801561066b5780601f106106405761010080835404028352916020019161066b565b820191906000526020600020905b81548152906001019060200180831161064e57829003601f168201915b5050505050908060010154905082565b600660029054906101000a900473ffffffffffffffffffffffffffffffffffffffff1673ffffffffffffffffffffffffffffffffffffffff163373ffffffffffffffffffffffffffffffffffffffff161461070b576040517f08c379a000000000000000000000000000000000000000000000000000000000815260040161070290611f65565b60405180910390fd5b60001515600660019054906101000a900460ff16151514610761576040517f08c379a000000000000000000000000000000000000000000000000000000000815260040161075890611fd1565b60405180910390fd5b6004546005546107719190611d10565b42106107b2576040517f08c379a00000000000000000000000000000000000000000000000000000000081526004016107a990611db2565b60405180910390fd5b600260008273ffffffffffffffffffffffffffffffffffffffff1673ffffffffffffffffffffffffffffffffffffffff16815260200190815260200160002060009054906101000a900460ff16156108a2576000600160008373ffffffffffffffffffffffffffffffffffffffff1673ffffffffffffffffffffffffffffffffffffffff168152602001908152602001600020819055506000600260008373ffffffffffffffffffffffffffffffffffffffff1673ffffffffffffffffffffffffffffffffffffffff16815260200190815260200160002060006101000a81548160ff0219169083151502179055505b50565b60045481565b600660029054906101000a900473ffffffffffffffffffffffffffffffffffffffff1673ffffffffffffffffffffffffffffffffffffffff163373ffffffffffffffffffffffffffffffffffffffff161461093b576040517f08c379a000000000000000000000000000000000000000000000000000000000815260040161093290611f65565b60405180910390fd5b60045460055461094b9190611d10565b421061098c576040517f08c379a000000000000000000000000000000000000000000000000000000000815260040161098390611db2565b60405180910390fd5b426005819055506001600660016101000a81548160ff021916908315150217905550565b60055481565b600660029054906101000a900473ffffffffffffffffffffffffffffffffffffffff1673ffffffffffffffffffffffffffffffffffffffff163373ffffffffffffffffffffffffffffffffffffffff1614610a46576040517f08c379a0000000000000000000000000000000000000000000000000000000008152600401610a3d90611f65565b60405180910390fd5b60001515600660019054906101000a900460ff16151514610a9c576040517f08c379a0000000000000000000000000000000000000000000000000000000008152600401610a9390611fd1565b60405180910390fd5b600454600554610aac9190611d10565b4210610aed576040517f08c379a0000000000000000000000000000000000000000000000000000000008152600401610ae490611db2565b60405180910390fd5b60036040518060400160405280838152602001600081525090806001815401808255809150506001900390600052602060002090600202016000909190919091506000820151816000019080519060200190610b4a92919061162d565b5060208201518160010155505050565b600060011515600260008473ffffffffffffffffffffffffffffffffffffffff1673ffffffffffffffffffffffffffffffffffffffff16815260200190815260200160002060009054906101000a900460ff161515149050919050565b600660029054906101000a900473ffffffffffffffffffffffffffffffffffffffff1673ffffffffffffffffffffffffffffffffffffffff163373ffffffffffffffffffffffffffffffffffffffff1614610c47576040517f08c379a0000000000000000000000000000000000000000000000000000000008152600401610c3e90611f65565b60405180910390fd5b60001515600660019054906101000a900460ff16151514610c9d576040517f08c379a0000000000000000000000000000000000000000000000000000000008152600401610c9490611fd1565b60405180910390fd5b600454600554610cad9190611d10565b4210610cee576040517f08c379a0000000000000000000000000000000000000000000000000000000008152600401610ce590611db2565b60405180910390fd5b600260008273ffffffffffffffffffffffffffffffffffffffff1673ffffffffffffffffffffffffffffffffffffffff16815260200190815260200160002060009054906101000a900460ff16610ddc5760018060008373ffffffffffffffffffffffffffffffffffffffff1673ffffffffffffffffffffffffffffffffffffffff168152602001908152602001600020819055506001600260008373ffffffffffffffffffffffffffffffffffffffff1673ffffffffffffffffffffffffffffffffffffffff16815260200190815260200160002060006101000a81548160ff0219169083151502179055505b50565b60008054610dec90611ec2565b80601f0160208091040260200160405190810160405280929190818152602001828054610e1890611ec2565b8015610e655780601f10610e3a57610100808354040283529160200191610e65565b820191906000526020600020905b815481529060010190602001808311610e4857829003601f168201915b505050505081565b60606000600380549050905060008167ffffffffffffffff811115610e9557610e946118cf565b5b604051908082528060200260200182016040528015610ec857816020015b6060815260200190600190039081610eb35790505b50905060005b82811015610fb55760038181548110610eea57610ee9611e64565b5b90600052602060002090600202016000018054610f0690611ec2565b80601f0160208091040260200160405190810160405280929190818152602001828054610f3290611ec2565b8015610f7f5780601f10610f5457610100808354040283529160200191610f7f565b820191906000526020600020905b815481529060010190602001808311610f6257829003601f168201915b5050505050828281518110610f9757610f96611e64565b5b60200260200101819052508080610fad90611ff1565b915050610ece565b50809250505090565b600660029054906101000a900473ffffffffffffffffffffffffffffffffffffffff1673ffffffffffffffffffffffffffffffffffffffff163373ffffffffffffffffffffffffffffffffffffffff161461104e576040517f08c379a000000000000000000000000000000000000000000000000000000000815260040161104590611f65565b60405180910390fd5b60001515600660019054906101000a900460ff161515146110a4576040517f08c379a000000000000000000000000000000000000000000000000000000000815260040161109b90611fd1565b60405180910390fd5b6004546005546110b49190611d10565b42106110f5576040517f08c379a00000000000000000000000000000000000000000000000000000000081526004016110ec90611db2565b60405180910390fd5b806000908051906020019061110b92919061162d565b5050565b600660019054906101000a900460ff1681565b600660029054906101000a900473ffffffffffffffffffffffffffffffffffffffff1673ffffffffffffffffffffffffffffffffffffffff163373ffffffffffffffffffffffffffffffffffffffff16146111b2576040517f08c379a00000000000000000000000000000000000000000000000000000000081526004016111a990611f65565b60405180910390fd5b60001515600660019054906101000a900460ff16151514611208576040517f08c379a00000000000000000000000000000000000000000000000000000000081526004016111ff90611fd1565b60405180910390fd5b6004546005546112189190611d10565b4210611259576040517f08c379a000000000000000000000000000000000000000000000000000000000815260040161125090611db2565b60405180910390fd5b8060048190555050565b600660009054906101000a900460ff1681565b600660029054906101000a900473ffffffffffffffffffffffffffffffffffffffff1681565b600660029054906101000a900473ffffffffffffffffffffffffffffffffffffffff1673ffffffffffffffffffffffffffffffffffffffff163373ffffffffffffffffffffffffffffffffffffffff161461132c576040517f08c379a000000000000000000000000000000000000000000000000000000000815260040161132390611f65565b60405180910390fd5b60001515600660019054906101000a900460ff16151514611382576040517f08c379a000000000000000000000000000000000000000000000000000000000815260040161137990611fd1565b60405180910390fd5b6004546005546113929190611d10565b42106113d3576040517f08c379a00000000000000000000000000000000000000000000000000000000081526004016113ca90611db2565b60405180910390fd5b80600383815481106113e8576113e7611e64565b5b9060005260206000209060020201600001908051906020019061140c92919061162d565b505050565b600660029054906101000a900473ffffffffffffffffffffffffffffffffffffffff1673ffffffffffffffffffffffffffffffffffffffff163373ffffffffffffffffffffffffffffffffffffffff16146114a1576040517f08c379a000000000000000000000000000000000000000000000000000000000815260040161149890611f65565b60405180910390fd5b6004546005546114b19190611d10565b42106114f2576040517f08c379a00000000000000000000000000000000000000000000000000000000081526004016114e990611db2565b60405180910390fd5b6001600660006101000a81548160ff021916908315150217905550565b6000600260008373ffffffffffffffffffffffffffffffffffffffff1673ffffffffffffffffffffffffffffffffffffffff16815260200190815260200160002060009054906101000a900460ff169050919050565b600060045442116115ab576040517f08c379a00000000000000000000000000000000000000000000000000000000081526004016115a290612085565b60405180910390fd5b6000805b6003805490508110156116285781600382815481106115d1576115d0611e64565b5b906000526020600020906002020160010154111561161557600381815481106115fd576115fc611e64565b5b90600052602060002090600202016001015491508092505b808061162090611ff1565b9150506115af565b505090565b82805461163990611ec2565b90600052602060002090601f01602090048101928261165b57600085556116a2565b82601f1061167457805160ff19168380011785556116a2565b828001600101855582156116a2579182015b828111156116a1578251825591602001919060010190611686565b5b5090506116af91906116b3565b5090565b5b808211156116cc5760008160009055506001016116b4565b5090565b6000604051905090565b600080fd5b600080fd5b6000819050919050565b6116f7816116e4565b811461170257600080fd5b50565b600081359050611714816116ee565b92915050565b6000602082840312156117305761172f6116da565b5b600061173e84828501611705565b91505092915050565b600081519050919050565b600082825260208201905092915050565b60005b83811015611781578082015181840152602081019050611766565b83811115611790576000848401525b50505050565b6000601f19601f8301169050919050565b60006117b282611747565b6117bc8185611752565b93506117cc818560208601611763565b6117d581611796565b840191505092915050565b6117e9816116e4565b82525050565b6000604082019050818103600083015261180981856117a7565b905061181860208301846117e0565b9392505050565b600073ffffffffffffffffffffffffffffffffffffffff82169050919050565b600061184a8261181f565b9050919050565b61185a8161183f565b811461186557600080fd5b50565b60008135905061187781611851565b92915050565b600060208284031215611893576118926116da565b5b60006118a184828501611868565b91505092915050565b60006020820190506118bf60008301846117e0565b92915050565b600080fd5b600080fd5b7f4e487b7100000000000000000000000000000000000000000000000000000000600052604160045260246000fd5b61190782611796565b810181811067ffffffffffffffff82111715611926576119256118cf565b5b80604052505050565b60006119396116d0565b905061194582826118fe565b919050565b600067ffffffffffffffff821115611965576119646118cf565b5b61196e82611796565b9050602081019050919050565b82818337600083830152505050565b600061199d6119988461194a565b61192f565b9050828152602081018484840111156119b9576119b86118ca565b5b6119c484828561197b565b509392505050565b600082601f8301126119e1576119e06118c5565b5b81356119f184826020860161198a565b91505092915050565b600060208284031215611a1057611a0f6116da565b5b600082013567ffffffffffffffff811115611a2e57611a2d6116df565b5b611a3a848285016119cc565b91505092915050565b60008115159050919050565b611a5881611a43565b82525050565b6000602082019050611a736000830184611a4f565b92915050565b60006020820190508181036000830152611a9381846117a7565b905092915050565b600081519050919050565b600082825260208201905092915050565b6000819050602082019050919050565b600082825260208201905092915050565b6000611ae382611747565b611aed8185611ac7565b9350611afd818560208601611763565b611b0681611796565b840191505092915050565b6000611b1d8383611ad8565b905092915050565b6000602082019050919050565b6000611b3d82611a9b565b611b478185611aa6565b935083602082028501611b5985611ab7565b8060005b85811015611b955784840389528151611b768582611b11565b9450611b8183611b25565b925060208a01995050600181019050611b5d565b50829750879550505050505092915050565b60006020820190508181036000830152611bc18184611b32565b905092915050565b611bd28161183f565b82525050565b6000602082019050611bed6000830184611bc9565b92915050565b60008060408385031215611c0a57611c096116da565b5b6000611c1885828601611705565b925050602083013567ffffffffffffffff811115611c3957611c386116df565b5b611c45858286016119cc565b9150509250929050565b7f596f7520617265206e6f7420616c6c6f77656420746f20766f746520696e207460008201527f68697320656c656374696f6e2e00000000000000000000000000000000000000602082015250565b6000611cab602d83611752565b9150611cb682611c4f565b604082019050919050565b60006020820190508181036000830152611cda81611c9e565b9050919050565b7f4e487b7100000000000000000000000000000000000000000000000000000000600052601160045260246000fd5b6000611d1b826116e4565b9150611d26836116e4565b9250827fffffffffffffffffffffffffffffffffffffffffffffffffffffffffffffffff03821115611d5b57611d5a611ce1565b5b828201905092915050565b7f566f74696e672068617320616c726561647920656e6465642e00000000000000600082015250565b6000611d9c601983611752565b9150611da782611d66565b602082019050919050565b60006020820190508181036000830152611dcb81611d8f565b9050919050565b7f596f75206861766520616c726561647920766f74656420696e2074686973206560008201527f6c656374696f6e2e000000000000000000000000000000000000000000000000602082015250565b6000611e2e602883611752565b9150611e3982611dd2565b604082019050919050565b60006020820190508181036000830152611e5d81611e21565b9050919050565b7f4e487b7100000000000000000000000000000000000000000000000000000000600052603260045260246000fd5b7f4e487b7100000000000000000000000000000000000000000000000000000000600052602260045260246000fd5b60006002820490506001821680611eda57607f821691505b602082108103611eed57611eec611e93565b5b50919050565b7f4f6e6c7920456c656374696f6e20436f6d6d697373696f6e2063616e2067697660008201527f6520726967687420746f20766f74652e00000000000000000000000000000000602082015250565b6000611f4f603083611752565b9150611f5a82611ef3565b604082019050919050565b60006020820190508181036000830152611f7e81611f42565b9050919050565b7f566f74696e672068617320616c726561647920737461727465642e0000000000600082015250565b6000611fbb601b83611752565b9150611fc682611f85565b602082019050919050565b60006020820190508181036000830152611fea81611fae565b9050919050565b6000611ffc826116e4565b91507fffffffffffffffffffffffffffffffffffffffffffffffffffffffffffffffff820361202e5761202d611ce1565b5b600182019050919050565b7f566f74696e6720686173206e6f7420656e646564207965742e00000000000000600082015250565b600061206f601983611752565b915061207a82612039565b602082019050919050565b6000602082019050818103600083015261209e81612062565b905091905056fea2646970667358221220b3db8e27d4274cfc44e4d0cc6cb80ac70df744201b2bd1ab1107288c15d5486d64736f6c634300080d0033",
  "immutableReferences": {},
  "source": "// SPDX-License-Identifier: MIT\n// Tells the Solidity compiler to compile only from v0.8.0 to v0.9.0\npragma solidity ^0.8.0;\n\ncontract Voting {\n    string public title;\n\n    mapping(address => uint) whiteList;\n    mapping(address => bool) exists;\n\n    struct Proposal {\n        string name;\n        uint voteCount;\n    }\n    Proposal[] public proposals;\n\n    uint256 public votingDuration;\n    uint256 public votingStartTime;\n    bool public votingEnded; // Stores whether the voting has ended or not\n    bool public votingStarted; // Stores whether the voting has started or not\n\n    address public electionCommission;\n\n    constructor(\n        string memory _title,\n        string[] memory _proposals,\n        address[] memory _whiteList,\n        uint256 duration\n    ) {\n        electionCommission = msg.sender;\n        title = _title;\n        votingDuration = duration;\n        votingEnded = false;\n        votingStarted = false;\n\n        for (uint i = 0; i < _proposals.length; i++) {\n            proposals.push(Proposal({name: _proposals[i], voteCount: 0}));\n        }\n\n        for (uint i = 0; i < _whiteList.length; i++) {\n            whiteList[_whiteList[i]] = 1;\n            exists[_whiteList[i]] = true;\n        }\n    }\n\n    modifier onlyElectionCommission() {\n        require(\n            msg.sender == electionCommission,\n            \"Only Election Commission can give right to vote.\"\n        );\n        _;\n    }\n\n    modifier onlyBeforeStart() {\n        require(votingStarted == false, \"Voting has already started.\");\n        _;\n    }\n\n    modifier onlyBeforeVotingEnd() {\n        require(\n            block.timestamp < (votingStartTime + votingDuration),\n            \"Voting has already ended.\"\n        );\n        _;\n    }\n\n    modifier onlyAfterVotingEnd() {\n        require(block.timestamp > votingDuration, \"Voting has not ended yet.\");\n        _;\n    }\n\n    modifier onlyWhiteListed() {\n        require(\n            exists[msg.sender] == true,\n            \"You are not allowed to vote in this election.\"\n        );\n        _;\n    }\n\n    modifier onlyOnce() {\n        require(\n            whiteList[msg.sender] > 0,\n            \"You have already voted in this election.\"\n        );\n        _;\n    }\n\n    function getExists(address key) public view returns (bool) {\n        return exists[key];\n    }\n\n    function addToWhiteList(\n        address voter\n    ) public onlyElectionCommission onlyBeforeStart onlyBeforeVotingEnd {\n        if (exists[voter]) return;\n\n        whiteList[voter] = 1;\n        exists[voter] = true;\n    }\n\n    function removeFromWhiteList(\n        address voter\n    ) public onlyElectionCommission onlyBeforeStart onlyBeforeVotingEnd {\n        if (!exists[voter]) return;\n\n        whiteList[voter] = 0;\n        exists[voter] = false;\n    }\n\n    function getProposals() public view returns (string[] memory) {\n        uint arrayLength = proposals.length;\n\n        string[] memory proposalNames = new string[](arrayLength);\n\n        for (uint i = 0; i < arrayLength; i++) {\n            proposalNames[i] = proposals[i].name;\n        }\n\n        return proposalNames;\n    }\n\n    function editProposal(\n        uint proposal,\n        string memory newName\n    ) public onlyElectionCommission onlyBeforeStart onlyBeforeVotingEnd {\n        proposals[proposal].name = newName;\n    }\n\n    function addProposal(\n        string memory newName\n    ) public onlyElectionCommission onlyBeforeStart onlyBeforeVotingEnd {\n        proposals.push(Proposal({name: newName, voteCount: 0}));\n    }\n\n    function editTitle(\n        string memory newTitle\n    ) public onlyElectionCommission onlyBeforeStart onlyBeforeVotingEnd {\n        title = newTitle;\n    }\n\n    function editDeadline(\n        uint256 newDeadline\n    ) public onlyElectionCommission onlyBeforeStart onlyBeforeVotingEnd {\n        votingDuration = newDeadline;\n    }\n\n    function vote(\n        uint proposal\n    ) public onlyWhiteListed onlyBeforeVotingEnd onlyOnce {\n        address voter = msg.sender;\n        // require(exists[voter] == true, \"You are not allowed to vote\");\n        // require(whiteList[voter] > 0, \"You have already voted\");\n\n        uint voteWeight = whiteList[voter];\n\n        proposals[proposal].voteCount += voteWeight;\n        whiteList[voter] = 0;\n    }\n\n    function getIsWhiteListed(address key) external view returns (bool) {\n        return exists[key] == true;\n    }\n\n    function startVoting() public onlyElectionCommission onlyBeforeVotingEnd {\n        votingStartTime = block.timestamp;\n        votingStarted = true;\n    }\n\n    function endVoting() public onlyElectionCommission onlyBeforeVotingEnd {\n        votingEnded = true;\n    }\n\n    function getResult()\n        external\n        view\n        onlyAfterVotingEnd\n        returns (uint winningProposal_)\n    {\n        uint winningVoteCount = 0;\n        for (uint p = 0; p < proposals.length; p++) {\n            if (proposals[p].voteCount > winningVoteCount) {\n                winningVoteCount = proposals[p].voteCount;\n                winningProposal_ = p;\n            }\n        }\n    }\n}\n",
  "sourcePath": "/home/eduardo/TCC_blockchain_voting/blockchain/contracts/Voting.sol",
  "compiler": {
    "name": "solc",
    "version": "0.8.13+commit.abaa5c0e.Emscripten.clang"
  },
  "schemaVersion": "3.4.14",
  "updatedAt": "2023-05-31T00:40:56.740Z",
  "devdoc": {
    "kind": "dev",
    "methods": {},
    "version": 1
  },
  "userdoc": {
    "kind": "user",
    "methods": {},
    "version": 1
  }
}