{
  "contractName": "VotingFactory",
  "abi": [
    {
      "anonymous": false,
      "inputs": [
        {
          "indexed": false,
          "internalType": "address",
          "name": "deployedAddress",
          "type": "address"
        }
      ],
      "name": "ContractDeployed",
      "type": "event"
    },
    {
      "inputs": [
        {
          "internalType": "uint256",
          "name": "",
          "type": "uint256"
        }
      ],
      "name": "deployedContracts",
      "outputs": [
        {
          "internalType": "address",
          "name": "",
          "type": "address"
        }
      ],
      "stateMutability": "view",
      "type": "function",
      "constant": true
    },
    {
      "inputs": [
        {
          "internalType": "string",
          "name": "name",
          "type": "string"
        },
        {
          "internalType": "string[]",
          "name": "proposalNames",
          "type": "string[]"
        },
        {
          "internalType": "address[]",
          "name": "whiteList_",
          "type": "address[]"
        }
      ],
      "name": "deploy",
      "outputs": [],
      "stateMutability": "nonpayable",
      "type": "function"
    },
    {
      "inputs": [],
      "name": "getDeployedContracts",
      "outputs": [
        {
          "internalType": "address[]",
          "name": "",
          "type": "address[]"
        }
      ],
      "stateMutability": "view",
      "type": "function",
      "constant": true
    }
  ],
  "bytecode": "0x608060405234801561001057600080fd5b50611f2a806100206000396000f3fe60806040523480156200001157600080fd5b5060043610620000465760003560e01c806340f7d223146200004b5780639ad1ee10146200006b578063aa9a068f14620000a1575b600080fd5b62000069600480360381019062000063919062000631565b620000c3565b005b62000089600480360381019062000083919062000725565b620001a6565b60405162000098919062000768565b60405180910390f35b620000ab620001e6565b604051620000ba919062000853565b60405180910390f35b6000838383604051620000d69062000276565b620000e49392919062000a2c565b604051809103906000f08015801562000101573d6000803e3d6000fd5b5090506000819080600181540180825580915050600190039060005260206000200160009091909190916101000a81548173ffffffffffffffffffffffffffffffffffffffff021916908373ffffffffffffffffffffffffffffffffffffffff1602179055507f8ffcdc15a283d706d38281f500270d8b5a656918f555de0913d7455e3e6bc1bf8160405162000198919062000768565b60405180910390a150505050565b60008181548110620001b757600080fd5b906000526020600020016000915054906101000a900473ffffffffffffffffffffffffffffffffffffffff1681565b606060008054806020026020016040519081016040528092919081815260200182805480156200026c57602002820191906000526020600020905b8160009054906101000a900473ffffffffffffffffffffffffffffffffffffffff1673ffffffffffffffffffffffffffffffffffffffff168152602001906001019080831162000221575b5050505050905090565b6114768062000a7f83390190565b6000604051905090565b600080fd5b600080fd5b600080fd5b600080fd5b6000601f19601f8301169050919050565b7f4e487b7100000000000000000000000000000000000000000000000000000000600052604160045260246000fd5b620002ed82620002a2565b810181811067ffffffffffffffff821117156200030f576200030e620002b3565b5b80604052505050565b60006200032462000284565b9050620003328282620002e2565b919050565b600067ffffffffffffffff821115620003555762000354620002b3565b5b6200036082620002a2565b9050602081019050919050565b82818337600083830152505050565b6000620003936200038d8462000337565b62000318565b905082815260208101848484011115620003b257620003b16200029d565b5b620003bf8482856200036d565b509392505050565b600082601f830112620003df57620003de62000298565b5b8135620003f18482602086016200037c565b91505092915050565b600067ffffffffffffffff821115620004185762000417620002b3565b5b602082029050602081019050919050565b600080fd5b6000620004456200043f84620003fa565b62000318565b905080838252602082019050602084028301858111156200046b576200046a62000429565b5b835b81811015620004b957803567ffffffffffffffff81111562000494576200049362000298565b5b808601620004a38982620003c7565b855260208501945050506020810190506200046d565b5050509392505050565b600082601f830112620004db57620004da62000298565b5b8135620004ed8482602086016200042e565b91505092915050565b600067ffffffffffffffff821115620005145762000513620002b3565b5b602082029050602081019050919050565b600073ffffffffffffffffffffffffffffffffffffffff82169050919050565b6000620005528262000525565b9050919050565b620005648162000545565b81146200057057600080fd5b50565b600081359050620005848162000559565b92915050565b6000620005a16200059b84620004f6565b62000318565b90508083825260208201905060208402830185811115620005c757620005c662000429565b5b835b81811015620005f45780620005df888262000573565b845260208401935050602081019050620005c9565b5050509392505050565b600082601f83011262000616576200061562000298565b5b8135620006288482602086016200058a565b91505092915050565b6000806000606084860312156200064d576200064c6200028e565b5b600084013567ffffffffffffffff8111156200066e576200066d62000293565b5b6200067c86828701620003c7565b935050602084013567ffffffffffffffff811115620006a0576200069f62000293565b5b620006ae86828701620004c3565b925050604084013567ffffffffffffffff811115620006d257620006d162000293565b5b620006e086828701620005fe565b9150509250925092565b6000819050919050565b620006ff81620006ea565b81146200070b57600080fd5b50565b6000813590506200071f81620006f4565b92915050565b6000602082840312156200073e576200073d6200028e565b5b60006200074e848285016200070e565b91505092915050565b620007628162000545565b82525050565b60006020820190506200077f600083018462000757565b92915050565b600081519050919050565b600082825260208201905092915050565b6000819050602082019050919050565b620007bc8162000545565b82525050565b6000620007d08383620007b1565b60208301905092915050565b6000602082019050919050565b6000620007f68262000785565b62000802818562000790565b93506200080f83620007a1565b8060005b83811015620008465781516200082a8882620007c2565b97506200083783620007dc565b92505060018101905062000813565b5085935050505092915050565b600060208201905081810360008301526200086f8184620007e9565b905092915050565b600081519050919050565b600082825260208201905092915050565b60005b83811015620008b357808201518184015260208101905062000896565b83811115620008c3576000848401525b50505050565b6000620008d68262000877565b620008e2818562000882565b9350620008f481856020860162000893565b620008ff81620002a2565b840191505092915050565b600081519050919050565b600082825260208201905092915050565b6000819050602082019050919050565b600082825260208201905092915050565b6000620009548262000877565b62000960818562000936565b93506200097281856020860162000893565b6200097d81620002a2565b840191505092915050565b600062000996838362000947565b905092915050565b6000602082019050919050565b6000620009b8826200090a565b620009c4818562000915565b935083602082028501620009d88562000926565b8060005b8581101562000a1a5784840389528151620009f8858262000988565b945062000a05836200099e565b925060208a01995050600181019050620009dc565b50829750879550505050505092915050565b6000606082019050818103600083015262000a488186620008c9565b9050818103602083015262000a5e8185620009ab565b9050818103604083015262000a748184620007e9565b905094935050505056fe60806040523480156200001157600080fd5b506040516200147638038062001476833981810160405281019062000037919062000650565b33600360006101000a81548173ffffffffffffffffffffffffffffffffffffffff021916908373ffffffffffffffffffffffffffffffffffffffff160217905550826002908051906020019062000090929190620001cc565b5060005b82518110156200013d5760046040518060400160405280858481518110620000c157620000c062000709565b5b602002602001015181526020016000815250908060018154018082558091505060019003906000526020600020906002020160009091909190915060008201518160000190805190602001906200011a929190620001cc565b506020820151816001015550508080620001349062000771565b91505062000094565b5060005b8151811015620001c257600160008084848151811062000166576200016562000709565b5b602002602001015173ffffffffffffffffffffffffffffffffffffffff1673ffffffffffffffffffffffffffffffffffffffff168152602001908152602001600020819055508080620001b99062000771565b91505062000141565b5050505062000822565b828054620001da90620007ed565b90600052602060002090601f016020900481019282620001fe57600085556200024a565b82601f106200021957805160ff19168380011785556200024a565b828001600101855582156200024a579182015b82811115620002495782518255916020019190600101906200022c565b5b5090506200025991906200025d565b5090565b5b80821115620002785760008160009055506001016200025e565b5090565b6000604051905090565b600080fd5b600080fd5b600080fd5b600080fd5b6000601f19601f8301169050919050565b7f4e487b7100000000000000000000000000000000000000000000000000000000600052604160045260246000fd5b620002e5826200029a565b810181811067ffffffffffffffff82111715620003075762000306620002ab565b5b80604052505050565b60006200031c6200027c565b90506200032a8282620002da565b919050565b600067ffffffffffffffff8211156200034d576200034c620002ab565b5b62000358826200029a565b9050602081019050919050565b60005b838110156200038557808201518184015260208101905062000368565b8381111562000395576000848401525b50505050565b6000620003b2620003ac846200032f565b62000310565b905082815260208101848484011115620003d157620003d062000295565b5b620003de84828562000365565b509392505050565b600082601f830112620003fe57620003fd62000290565b5b8151620004108482602086016200039b565b91505092915050565b600067ffffffffffffffff821115620004375762000436620002ab565b5b602082029050602081019050919050565b600080fd5b6000620004646200045e8462000419565b62000310565b905080838252602082019050602084028301858111156200048a576200048962000448565b5b835b81811015620004d857805167ffffffffffffffff811115620004b357620004b262000290565b5b808601620004c28982620003e6565b855260208501945050506020810190506200048c565b5050509392505050565b600082601f830112620004fa57620004f962000290565b5b81516200050c8482602086016200044d565b91505092915050565b600067ffffffffffffffff821115620005335762000532620002ab565b5b602082029050602081019050919050565b600073ffffffffffffffffffffffffffffffffffffffff82169050919050565b6000620005718262000544565b9050919050565b620005838162000564565b81146200058f57600080fd5b50565b600081519050620005a38162000578565b92915050565b6000620005c0620005ba8462000515565b62000310565b90508083825260208201905060208402830185811115620005e657620005e562000448565b5b835b81811015620006135780620005fe888262000592565b845260208401935050602081019050620005e8565b5050509392505050565b600082601f83011262000635576200063462000290565b5b815162000647848260208601620005a9565b91505092915050565b6000806000606084860312156200066c576200066b62000286565b5b600084015167ffffffffffffffff8111156200068d576200068c6200028b565b5b6200069b86828701620003e6565b935050602084015167ffffffffffffffff811115620006bf57620006be6200028b565b5b620006cd86828701620004e2565b925050604084015167ffffffffffffffff811115620006f157620006f06200028b565b5b620006ff868287016200061d565b9150509250925092565b7f4e487b7100000000000000000000000000000000000000000000000000000000600052603260045260246000fd5b7f4e487b7100000000000000000000000000000000000000000000000000000000600052601160045260246000fd5b6000819050919050565b60006200077e8262000767565b91507fffffffffffffffffffffffffffffffffffffffffffffffffffffffffffffffff8203620007b357620007b262000738565b5b600182019050919050565b7f4e487b7100000000000000000000000000000000000000000000000000000000600052602260045260246000fd5b600060028204905060018216806200080657607f821691505b6020821081036200081c576200081b620007be565b5b50919050565b610c4480620008326000396000f3fe608060405234801561001057600080fd5b506004361061007d5760003560e01c806347ee03941161005b57806347ee0394146100ed578063643e94c4146101095780639dfe9d6814610127578063de292789146101575761007d565b80630121b93f14610082578063013cf08b1461009e57806306fdde03146100cf575b600080fd5b61009c60048036038101906100979190610751565b610175565b005b6100b860048036038101906100b39190610751565b610356565b6040516100c6929190610826565b60405180910390f35b6100d7610412565b6040516100e49190610856565b60405180910390f35b610107600480360381019061010291906108d6565b6104a0565b005b610111610620565b60405161011e9190610912565b60405180910390f35b610141600480360381019061013c91906108d6565b610646565b60405161014e919061092d565b60405180910390f35b61015f61068e565b60405161016c919061092d565b60405180910390f35b600033905060011515600160008373ffffffffffffffffffffffffffffffffffffffff1673ffffffffffffffffffffffffffffffffffffffff16815260200190815260200160002060009054906101000a900460ff1615151461020d576040517f08c379a000000000000000000000000000000000000000000000000000000000815260040161020490610994565b60405180910390fd5b60008060008373ffffffffffffffffffffffffffffffffffffffff1673ffffffffffffffffffffffffffffffffffffffff168152602001908152602001600020541161028e576040517f08c379a000000000000000000000000000000000000000000000000000000000815260040161028590610a00565b60405180910390fd5b60008060008373ffffffffffffffffffffffffffffffffffffffff1673ffffffffffffffffffffffffffffffffffffffff16815260200190815260200160002054905080600484815481106102e6576102e5610a20565b5b906000526020600020906002020160010160008282546103069190610a7e565b9250508190555060008060008473ffffffffffffffffffffffffffffffffffffffff1673ffffffffffffffffffffffffffffffffffffffff16815260200190815260200160002081905550505050565b6004818154811061036657600080fd5b906000526020600020906002020160009150905080600001805461038990610b03565b80601f01602080910402602001604051908101604052809291908181526020018280546103b590610b03565b80156104025780601f106103d757610100808354040283529160200191610402565b820191906000526020600020905b8154815290600101906020018083116103e557829003601f168201915b5050505050908060010154905082565b6002805461041f90610b03565b80601f016020809104026020016040519081016040528092919081815260200182805461044b90610b03565b80156104985780601f1061046d57610100808354040283529160200191610498565b820191906000526020600020905b81548152906001019060200180831161047b57829003601f168201915b505050505081565b600360009054906101000a900473ffffffffffffffffffffffffffffffffffffffff1673ffffffffffffffffffffffffffffffffffffffff163373ffffffffffffffffffffffffffffffffffffffff1614610530576040517f08c379a000000000000000000000000000000000000000000000000000000000815260040161052790610ba6565b60405180910390fd5b600160008273ffffffffffffffffffffffffffffffffffffffff1673ffffffffffffffffffffffffffffffffffffffff16815260200190815260200160002060009054906101000a900460ff1661061d5760016000808373ffffffffffffffffffffffffffffffffffffffff1673ffffffffffffffffffffffffffffffffffffffff1681526020019081526020016000208190555060018060008373ffffffffffffffffffffffffffffffffffffffff1673ffffffffffffffffffffffffffffffffffffffff16815260200190815260200160002060006101000a81548160ff0219169083151502179055505b50565b600360009054906101000a900473ffffffffffffffffffffffffffffffffffffffff1681565b60008060008373ffffffffffffffffffffffffffffffffffffffff1673ffffffffffffffffffffffffffffffffffffffff168152602001908152602001600020549050919050565b6000806000905060005b6004805490508110156107115781600482815481106106ba576106b9610a20565b5b90600052602060002090600202016001015411156106fe57600481815481106106e6576106e5610a20565b5b90600052602060002090600202016001015491508092505b808061070990610bc6565b915050610698565b505090565b600080fd5b6000819050919050565b61072e8161071b565b811461073957600080fd5b50565b60008135905061074b81610725565b92915050565b60006020828403121561076757610766610716565b5b60006107758482850161073c565b91505092915050565b600081519050919050565b600082825260208201905092915050565b60005b838110156107b857808201518184015260208101905061079d565b838111156107c7576000848401525b50505050565b6000601f19601f8301169050919050565b60006107e98261077e565b6107f38185610789565b935061080381856020860161079a565b61080c816107cd565b840191505092915050565b6108208161071b565b82525050565b6000604082019050818103600083015261084081856107de565b905061084f6020830184610817565b9392505050565b6000602082019050818103600083015261087081846107de565b905092915050565b600073ffffffffffffffffffffffffffffffffffffffff82169050919050565b60006108a382610878565b9050919050565b6108b381610898565b81146108be57600080fd5b50565b6000813590506108d0816108aa565b92915050565b6000602082840312156108ec576108eb610716565b5b60006108fa848285016108c1565b91505092915050565b61090c81610898565b82525050565b60006020820190506109276000830184610903565b92915050565b60006020820190506109426000830184610817565b92915050565b7f596f7520617265206e6f7420616c6c6f77656420746f20766f74650000000000600082015250565b600061097e601b83610789565b915061098982610948565b602082019050919050565b600060208201905081810360008301526109ad81610971565b9050919050565b7f596f75206861766520616c726561647920766f74656400000000000000000000600082015250565b60006109ea601683610789565b91506109f5826109b4565b602082019050919050565b60006020820190508181036000830152610a19816109dd565b9050919050565b7f4e487b7100000000000000000000000000000000000000000000000000000000600052603260045260246000fd5b7f4e487b7100000000000000000000000000000000000000000000000000000000600052601160045260246000fd5b6000610a898261071b565b9150610a948361071b565b9250827fffffffffffffffffffffffffffffffffffffffffffffffffffffffffffffffff03821115610ac957610ac8610a4f565b5b828201905092915050565b7f4e487b7100000000000000000000000000000000000000000000000000000000600052602260045260246000fd5b60006002820490506001821680610b1b57607f821691505b602082108103610b2e57610b2d610ad4565b5b50919050565b7f4f6e6c7920456c656374696f6e436f6d6d697373696f6e2063616e206769766560008201527f20726967687420746f20766f74652e0000000000000000000000000000000000602082015250565b6000610b90602f83610789565b9150610b9b82610b34565b604082019050919050565b60006020820190508181036000830152610bbf81610b83565b9050919050565b6000610bd18261071b565b91507fffffffffffffffffffffffffffffffffffffffffffffffffffffffffffffffff8203610c0357610c02610a4f565b5b60018201905091905056fea2646970667358221220df29421d197856b2f38d9eb43aa0f9288879409d87db0f4d8d2b820e0dbf597264736f6c634300080d0033a2646970667358221220c917650d57d6d7b0fd892d2f110a9c3aec9246349b26628e195a7c056bc82bd464736f6c634300080d0033",
  "immutableReferences": {},
  "source": "// SPDX-License-Identifier: MIT\npragma solidity ^0.8.0;\n\nimport {Voting} from \"./Voting.sol\";\n\ncontract VotingFactory {\n    address[] public deployedContracts;\n    event ContractDeployed(address deployedAddress);\n\n    function deploy(\n        string memory name,\n        string[] memory proposalNames,\n        address[] memory whiteList_\n    ) public {\n        address newContract = address(\n            new Voting(name, proposalNames, whiteList_)\n        );\n        deployedContracts.push(newContract);\n        emit ContractDeployed(newContract);\n    }\n\n    function getDeployedContracts() public view returns (address[] memory) {\n        return deployedContracts;\n    }\n}\n",
  "sourcePath": "/home/lucas/Documentos/faculdade/TCC/TCC_blockchain_voting/blockchain/contracts/VotingFactory.sol",
  "compiler": {
    "name": "solc",
    "version": "0.8.13+commit.abaa5c0e.Emscripten.clang"
  },
  "schemaVersion": "3.4.10",
  "updatedAt": "2023-05-12T18:47:36.677Z",
  "networkType": "ethereum",
  "devdoc": {
    "kind": "dev",
    "methods": {},
    "version": 1
  },
  "userdoc": {
    "kind": "user",
    "methods": {},
    "version": 1
  }
}