{
  "contractName": "Voting",
  "abi": [
    {
      "inputs": [
        {
          "internalType": "string",
          "name": "_title",
          "type": "string"
        },
        {
          "internalType": "string[]",
          "name": "_proposals",
          "type": "string[]"
        },
        {
          "internalType": "address[]",
          "name": "_whiteList",
          "type": "address[]"
        },
        {
          "internalType": "uint256",
          "name": "duration",
          "type": "uint256"
        }
      ],
      "stateMutability": "nonpayable",
      "type": "constructor"
    },
    {
      "inputs": [],
      "name": "electionCommission",
      "outputs": [
        {
          "internalType": "address",
          "name": "",
          "type": "address"
        }
      ],
      "stateMutability": "view",
      "type": "function"
    },
    {
      "inputs": [
        {
          "internalType": "uint256",
          "name": "",
          "type": "uint256"
        }
      ],
      "name": "proposals",
      "outputs": [
        {
          "internalType": "string",
          "name": "name",
          "type": "string"
        },
        {
          "internalType": "uint256",
          "name": "voteCount",
          "type": "uint256"
        }
      ],
      "stateMutability": "view",
      "type": "function"
    },
    {
      "inputs": [],
      "name": "title",
      "outputs": [
        {
          "internalType": "string",
          "name": "",
          "type": "string"
        }
      ],
      "stateMutability": "view",
      "type": "function"
    },
    {
      "inputs": [],
      "name": "votingDuration",
      "outputs": [
        {
          "internalType": "uint256",
          "name": "",
          "type": "uint256"
        }
      ],
      "stateMutability": "view",
      "type": "function"
    },
    {
      "inputs": [],
      "name": "votingEnded",
      "outputs": [
        {
          "internalType": "bool",
          "name": "",
          "type": "bool"
        }
      ],
      "stateMutability": "view",
      "type": "function"
    },
    {
      "inputs": [],
      "name": "votingStartTime",
      "outputs": [
        {
          "internalType": "uint256",
          "name": "",
          "type": "uint256"
        }
      ],
      "stateMutability": "view",
      "type": "function"
    },
    {
      "inputs": [],
      "name": "votingStarted",
      "outputs": [
        {
          "internalType": "bool",
          "name": "",
          "type": "bool"
        }
      ],
      "stateMutability": "view",
      "type": "function"
    },
    {
      "inputs": [
        {
          "internalType": "address",
          "name": "voter",
          "type": "address"
        }
      ],
      "name": "addToWhiteList",
      "outputs": [],
      "stateMutability": "nonpayable",
      "type": "function"
    },
    {
      "inputs": [
        {
          "internalType": "address",
          "name": "voter",
          "type": "address"
        }
      ],
      "name": "removeFromWhiteList",
      "outputs": [],
      "stateMutability": "nonpayable",
      "type": "function"
    },
    {
      "inputs": [
        {
          "internalType": "uint256",
          "name": "proposal",
          "type": "uint256"
        },
        {
          "internalType": "string",
          "name": "newName",
          "type": "string"
        }
      ],
      "name": "editProposal",
      "outputs": [],
      "stateMutability": "nonpayable",
      "type": "function"
    },
    {
      "inputs": [
        {
          "internalType": "string",
          "name": "newName",
          "type": "string"
        }
      ],
      "name": "addProposal",
      "outputs": [],
      "stateMutability": "nonpayable",
      "type": "function"
    },
    {
      "inputs": [
        {
          "internalType": "string",
          "name": "newTitle",
          "type": "string"
        }
      ],
      "name": "editTitle",
      "outputs": [],
      "stateMutability": "nonpayable",
      "type": "function"
    },
    {
      "inputs": [
        {
          "internalType": "uint256",
          "name": "newDeadline",
          "type": "uint256"
        }
      ],
      "name": "editDeadline",
      "outputs": [],
      "stateMutability": "nonpayable",
      "type": "function"
    },
    {
      "inputs": [
        {
          "internalType": "uint256",
          "name": "proposal",
          "type": "uint256"
        }
      ],
      "name": "vote",
      "outputs": [],
      "stateMutability": "nonpayable",
      "type": "function"
    },
    {
      "inputs": [
        {
          "internalType": "address",
          "name": "key",
          "type": "address"
        }
      ],
      "name": "getIsWhiteListed",
      "outputs": [
        {
          "internalType": "bool",
          "name": "",
          "type": "bool"
        }
      ],
      "stateMutability": "view",
      "type": "function"
    },
    {
      "inputs": [],
      "name": "startVoting",
      "outputs": [],
      "stateMutability": "nonpayable",
      "type": "function"
    },
    {
      "inputs": [],
      "name": "endVoting",
      "outputs": [],
      "stateMutability": "nonpayable",
      "type": "function"
    },
    {
      "inputs": [],
      "name": "getResult",
      "outputs": [
        {
          "internalType": "uint256",
          "name": "winningProposal_",
          "type": "uint256"
        }
      ],
      "stateMutability": "view",
      "type": "function"
    }
  ],
  "bytecode": "0x60806040523480156200001157600080fd5b5060405162002652380380620026528339818101604052810190620000379190620006c9565b33600660026101000a81548173ffffffffffffffffffffffffffffffffffffffff021916908373ffffffffffffffffffffffffffffffffffffffff1602179055508360009080519060200190620000909291906200020a565b50806004819055506000600660006101000a81548160ff0219169083151502179055506000600660016101000a81548160ff02191690831515021790555060005b83518110156200017a5760036040518060400160405280868481518110620000fe57620000fd62000798565b5b60200260200101518152602001600081525090806001815401808255809150506001900390600052602060002090600202016000909190919091506000820151816000019080519060200190620001579291906200020a565b5060208201518160010155505080806200017190620007f6565b915050620000d1565b5060005b8251811015620001ff576001806000858481518110620001a357620001a262000798565b5b602002602001015173ffffffffffffffffffffffffffffffffffffffff1673ffffffffffffffffffffffffffffffffffffffff168152602001908152602001600020819055508080620001f690620007f6565b9150506200017e565b5050505050620008a7565b828054620002189062000872565b90600052602060002090601f0160209004810192826200023c576000855562000288565b82601f106200025757805160ff191683800117855562000288565b8280016001018555821562000288579182015b82811115620002875782518255916020019190600101906200026a565b5b5090506200029791906200029b565b5090565b5b80821115620002b65760008160009055506001016200029c565b5090565b6000604051905090565b600080fd5b600080fd5b600080fd5b600080fd5b6000601f19601f8301169050919050565b7f4e487b7100000000000000000000000000000000000000000000000000000000600052604160045260246000fd5b6200032382620002d8565b810181811067ffffffffffffffff82111715620003455762000344620002e9565b5b80604052505050565b60006200035a620002ba565b905062000368828262000318565b919050565b600067ffffffffffffffff8211156200038b576200038a620002e9565b5b6200039682620002d8565b9050602081019050919050565b60005b83811015620003c3578082015181840152602081019050620003a6565b83811115620003d3576000848401525b50505050565b6000620003f0620003ea846200036d565b6200034e565b9050828152602081018484840111156200040f576200040e620002d3565b5b6200041c848285620003a3565b509392505050565b600082601f8301126200043c576200043b620002ce565b5b81516200044e848260208601620003d9565b91505092915050565b600067ffffffffffffffff821115620004755762000474620002e9565b5b602082029050602081019050919050565b600080fd5b6000620004a26200049c8462000457565b6200034e565b90508083825260208201905060208402830185811115620004c857620004c762000486565b5b835b818110156200051657805167ffffffffffffffff811115620004f157620004f0620002ce565b5b80860162000500898262000424565b85526020850194505050602081019050620004ca565b5050509392505050565b600082601f830112620005385762000537620002ce565b5b81516200054a8482602086016200048b565b91505092915050565b600067ffffffffffffffff821115620005715762000570620002e9565b5b602082029050602081019050919050565b600073ffffffffffffffffffffffffffffffffffffffff82169050919050565b6000620005af8262000582565b9050919050565b620005c181620005a2565b8114620005cd57600080fd5b50565b600081519050620005e181620005b6565b92915050565b6000620005fe620005f88462000553565b6200034e565b9050808382526020820190506020840283018581111562000624576200062362000486565b5b835b818110156200065157806200063c8882620005d0565b84526020840193505060208101905062000626565b5050509392505050565b600082601f830112620006735762000672620002ce565b5b815162000685848260208601620005e7565b91505092915050565b6000819050919050565b620006a3816200068e565b8114620006af57600080fd5b50565b600081519050620006c38162000698565b92915050565b60008060008060808587031215620006e657620006e5620002c4565b5b600085015167ffffffffffffffff811115620007075762000706620002c9565b5b620007158782880162000424565b945050602085015167ffffffffffffffff811115620007395762000738620002c9565b5b620007478782880162000520565b935050604085015167ffffffffffffffff8111156200076b576200076a620002c9565b5b62000779878288016200065b565b92505060606200078c87828801620006b2565b91505092959194509250565b7f4e487b7100000000000000000000000000000000000000000000000000000000600052603260045260246000fd5b7f4e487b7100000000000000000000000000000000000000000000000000000000600052601160045260246000fd5b600062000803826200068e565b91507fffffffffffffffffffffffffffffffffffffffffffffffffffffffffffffffff8203620008385762000837620007c7565b5b600182019050919050565b7f4e487b7100000000000000000000000000000000000000000000000000000000600052602260045260246000fd5b600060028204905060018216806200088b57607f821691505b602082108103620008a157620008a062000843565b5b50919050565b611d9b80620008b76000396000f3fe608060405234801561001057600080fd5b50600436106101165760003560e01c80634a79d50c116100a25780639d5a0529116100715780639d5a0529146102a6578063aab46b7f146102c4578063bfae2172146102e2578063c3403ddf146102fe578063de2927891461030857610116565b80634a79d50c146102325780636eb836891461025057806383d948b71461026c5780639bd4dd3c1461028a57610116565b80631ec6b60a116100e95780631ec6b60a146101a25780632019a608146101ac5780632fdae3c5146101ca57806337b7b9b8146101e657806347ee03941461021657610116565b80630121b93f1461011b578063013cf08b1461013757806301bf664814610168578063132002fc14610184575b600080fd5b61013560048036038101906101309190611508565b610326565b005b610151600480360381019061014c9190611508565b61055b565b60405161015f9291906115dd565b60405180910390f35b610182600480360381019061017d919061166b565b610617565b005b61018c610841565b6040516101999190611698565b60405180910390f35b6101aa610847565b005b6101b461094c565b6040516101c19190611698565b60405180910390f35b6101e460048036038101906101df91906117e8565b610952565b005b61020060048036038101906101fb919061166b565b610af6565b60405161020d919061184c565b60405180910390f35b610230600480360381019061022b919061166b565b610b4c565b005b61023a610d74565b6040516102479190611867565b60405180910390f35b61026a600480360381019061026591906117e8565b610e02565b005b610274610f53565b604051610281919061184c565b60405180910390f35b6102a4600480360381019061029f9190611508565b610f66565b005b6102ae6110a7565b6040516102bb919061184c565b60405180910390f35b6102cc6110ba565b6040516102d99190611898565b60405180910390f35b6102fc60048036038101906102f791906118b3565b6110e0565b005b610306611255565b005b610310611353565b60405161031d9190611698565b60405180910390f35b60011515600260003373ffffffffffffffffffffffffffffffffffffffff1673ffffffffffffffffffffffffffffffffffffffff16815260200190815260200160002060009054906101000a900460ff161515146103b9576040517f08c379a00000000000000000000000000000000000000000000000000000000081526004016103b090611981565b60405180910390fd5b6004546005546103c991906119d0565b421061040a576040517f08c379a000000000000000000000000000000000000000000000000000000000815260040161040190611a72565b60405180910390fd5b6000600160003373ffffffffffffffffffffffffffffffffffffffff1673ffffffffffffffffffffffffffffffffffffffff168152602001908152602001600020541161048c576040517f08c379a000000000000000000000000000000000000000000000000000000000815260040161048390611b04565b60405180910390fd5b60003390506000600160008373ffffffffffffffffffffffffffffffffffffffff1673ffffffffffffffffffffffffffffffffffffffff16815260200190815260200160002054905080600384815481106104ea576104e9611b24565b5b9060005260206000209060020201600101600082825461050a91906119d0565b925050819055506000600160008473ffffffffffffffffffffffffffffffffffffffff1673ffffffffffffffffffffffffffffffffffffffff16815260200190815260200160002081905550505050565b6003818154811061056b57600080fd5b906000526020600020906002020160009150905080600001805461058e90611b82565b80601f01602080910402602001604051908101604052809291908181526020018280546105ba90611b82565b80156106075780601f106105dc57610100808354040283529160200191610607565b820191906000526020600020905b8154815290600101906020018083116105ea57829003601f168201915b5050505050908060010154905082565b600660029054906101000a900473ffffffffffffffffffffffffffffffffffffffff1673ffffffffffffffffffffffffffffffffffffffff163373ffffffffffffffffffffffffffffffffffffffff16146106a7576040517f08c379a000000000000000000000000000000000000000000000000000000000815260040161069e90611c25565b60405180910390fd5b60001515600660019054906101000a900460ff161515146106fd576040517f08c379a00000000000000000000000000000000000000000000000000000000081526004016106f490611c91565b60405180910390fd5b60045460055461070d91906119d0565b421061074e576040517f08c379a000000000000000000000000000000000000000000000000000000000815260040161074590611a72565b60405180910390fd5b600260008273ffffffffffffffffffffffffffffffffffffffff1673ffffffffffffffffffffffffffffffffffffffff16815260200190815260200160002060009054906101000a900460ff161561083e576000600160008373ffffffffffffffffffffffffffffffffffffffff1673ffffffffffffffffffffffffffffffffffffffff168152602001908152602001600020819055506000600260008373ffffffffffffffffffffffffffffffffffffffff1673ffffffffffffffffffffffffffffffffffffffff16815260200190815260200160002060006101000a81548160ff0219169083151502179055505b50565b60045481565b600660029054906101000a900473ffffffffffffffffffffffffffffffffffffffff1673ffffffffffffffffffffffffffffffffffffffff163373ffffffffffffffffffffffffffffffffffffffff16146108d7576040517f08c379a00000000000000000000000000000000000000000000000000000000081526004016108ce90611c25565b60405180910390fd5b6004546005546108e791906119d0565b4210610928576040517f08c379a000000000000000000000000000000000000000000000000000000000815260040161091f90611a72565b60405180910390fd5b426005819055506001600660016101000a81548160ff021916908315150217905550565b60055481565b600660029054906101000a900473ffffffffffffffffffffffffffffffffffffffff1673ffffffffffffffffffffffffffffffffffffffff163373ffffffffffffffffffffffffffffffffffffffff16146109e2576040517f08c379a00000000000000000000000000000000000000000000000000000000081526004016109d990611c25565b60405180910390fd5b60001515600660019054906101000a900460ff16151514610a38576040517f08c379a0000000000000000000000000000000000000000000000000000000008152600401610a2f90611c91565b60405180910390fd5b600454600554610a4891906119d0565b4210610a89576040517f08c379a0000000000000000000000000000000000000000000000000000000008152600401610a8090611a72565b60405180910390fd5b60036040518060400160405280838152602001600081525090806001815401808255809150506001900390600052602060002090600202016000909190919091506000820151816000019080519060200190610ae692919061141b565b5060208201518160010155505050565b6000600260008373ffffffffffffffffffffffffffffffffffffffff1673ffffffffffffffffffffffffffffffffffffffff16815260200190815260200160002060009054906101000a900460ff169050919050565b600660029054906101000a900473ffffffffffffffffffffffffffffffffffffffff1673ffffffffffffffffffffffffffffffffffffffff163373ffffffffffffffffffffffffffffffffffffffff1614610bdc576040517f08c379a0000000000000000000000000000000000000000000000000000000008152600401610bd390611c25565b60405180910390fd5b60001515600660019054906101000a900460ff16151514610c32576040517f08c379a0000000000000000000000000000000000000000000000000000000008152600401610c2990611c91565b60405180910390fd5b600454600554610c4291906119d0565b4210610c83576040517f08c379a0000000000000000000000000000000000000000000000000000000008152600401610c7a90611a72565b60405180910390fd5b600260008273ffffffffffffffffffffffffffffffffffffffff1673ffffffffffffffffffffffffffffffffffffffff16815260200190815260200160002060009054906101000a900460ff16610d715760018060008373ffffffffffffffffffffffffffffffffffffffff1673ffffffffffffffffffffffffffffffffffffffff168152602001908152602001600020819055506001600260008373ffffffffffffffffffffffffffffffffffffffff1673ffffffffffffffffffffffffffffffffffffffff16815260200190815260200160002060006101000a81548160ff0219169083151502179055505b50565b60008054610d8190611b82565b80601f0160208091040260200160405190810160405280929190818152602001828054610dad90611b82565b8015610dfa5780601f10610dcf57610100808354040283529160200191610dfa565b820191906000526020600020905b815481529060010190602001808311610ddd57829003601f168201915b505050505081565b600660029054906101000a900473ffffffffffffffffffffffffffffffffffffffff1673ffffffffffffffffffffffffffffffffffffffff163373ffffffffffffffffffffffffffffffffffffffff1614610e92576040517f08c379a0000000000000000000000000000000000000000000000000000000008152600401610e8990611c25565b60405180910390fd5b60001515600660019054906101000a900460ff16151514610ee8576040517f08c379a0000000000000000000000000000000000000000000000000000000008152600401610edf90611c91565b60405180910390fd5b600454600554610ef891906119d0565b4210610f39576040517f08c379a0000000000000000000000000000000000000000000000000000000008152600401610f3090611a72565b60405180910390fd5b8060009080519060200190610f4f92919061141b565b5050565b600660019054906101000a900460ff1681565b600660029054906101000a900473ffffffffffffffffffffffffffffffffffffffff1673ffffffffffffffffffffffffffffffffffffffff163373ffffffffffffffffffffffffffffffffffffffff1614610ff6576040517f08c379a0000000000000000000000000000000000000000000000000000000008152600401610fed90611c25565b60405180910390fd5b60001515600660019054906101000a900460ff1615151461104c576040517f08c379a000000000000000000000000000000000000000000000000000000000815260040161104390611c91565b60405180910390fd5b60045460055461105c91906119d0565b421061109d576040517f08c379a000000000000000000000000000000000000000000000000000000000815260040161109490611a72565b60405180910390fd5b8060048190555050565b600660009054906101000a900460ff1681565b600660029054906101000a900473ffffffffffffffffffffffffffffffffffffffff1681565b600660029054906101000a900473ffffffffffffffffffffffffffffffffffffffff1673ffffffffffffffffffffffffffffffffffffffff163373ffffffffffffffffffffffffffffffffffffffff1614611170576040517f08c379a000000000000000000000000000000000000000000000000000000000815260040161116790611c25565b60405180910390fd5b60001515600660019054906101000a900460ff161515146111c6576040517f08c379a00000000000000000000000000000000000000000000000000000000081526004016111bd90611c91565b60405180910390fd5b6004546005546111d691906119d0565b4210611217576040517f08c379a000000000000000000000000000000000000000000000000000000000815260040161120e90611a72565b60405180910390fd5b806003838154811061122c5761122b611b24565b5b9060005260206000209060020201600001908051906020019061125092919061141b565b505050565b600660029054906101000a900473ffffffffffffffffffffffffffffffffffffffff1673ffffffffffffffffffffffffffffffffffffffff163373ffffffffffffffffffffffffffffffffffffffff16146112e5576040517f08c379a00000000000000000000000000000000000000000000000000000000081526004016112dc90611c25565b60405180910390fd5b6004546005546112f591906119d0565b4210611336576040517f08c379a000000000000000000000000000000000000000000000000000000000815260040161132d90611a72565b60405180910390fd5b6001600660006101000a81548160ff021916908315150217905550565b60006004544211611399576040517f08c379a000000000000000000000000000000000000000000000000000000000815260040161139090611cfd565b60405180910390fd5b6000805b6003805490508110156114165781600382815481106113bf576113be611b24565b5b906000526020600020906002020160010154111561140357600381815481106113eb576113ea611b24565b5b90600052602060002090600202016001015491508092505b808061140e90611d1d565b91505061139d565b505090565b82805461142790611b82565b90600052602060002090601f0160209004810192826114495760008555611490565b82601f1061146257805160ff1916838001178555611490565b82800160010185558215611490579182015b8281111561148f578251825591602001919060010190611474565b5b50905061149d91906114a1565b5090565b5b808211156114ba5760008160009055506001016114a2565b5090565b6000604051905090565b600080fd5b600080fd5b6000819050919050565b6114e5816114d2565b81146114f057600080fd5b50565b600081359050611502816114dc565b92915050565b60006020828403121561151e5761151d6114c8565b5b600061152c848285016114f3565b91505092915050565b600081519050919050565b600082825260208201905092915050565b60005b8381101561156f578082015181840152602081019050611554565b8381111561157e576000848401525b50505050565b6000601f19601f8301169050919050565b60006115a082611535565b6115aa8185611540565b93506115ba818560208601611551565b6115c381611584565b840191505092915050565b6115d7816114d2565b82525050565b600060408201905081810360008301526115f78185611595565b905061160660208301846115ce565b9392505050565b600073ffffffffffffffffffffffffffffffffffffffff82169050919050565b60006116388261160d565b9050919050565b6116488161162d565b811461165357600080fd5b50565b6000813590506116658161163f565b92915050565b600060208284031215611681576116806114c8565b5b600061168f84828501611656565b91505092915050565b60006020820190506116ad60008301846115ce565b92915050565b600080fd5b600080fd5b7f4e487b7100000000000000000000000000000000000000000000000000000000600052604160045260246000fd5b6116f582611584565b810181811067ffffffffffffffff82111715611714576117136116bd565b5b80604052505050565b60006117276114be565b905061173382826116ec565b919050565b600067ffffffffffffffff821115611753576117526116bd565b5b61175c82611584565b9050602081019050919050565b82818337600083830152505050565b600061178b61178684611738565b61171d565b9050828152602081018484840111156117a7576117a66116b8565b5b6117b2848285611769565b509392505050565b600082601f8301126117cf576117ce6116b3565b5b81356117df848260208601611778565b91505092915050565b6000602082840312156117fe576117fd6114c8565b5b600082013567ffffffffffffffff81111561181c5761181b6114cd565b5b611828848285016117ba565b91505092915050565b60008115159050919050565b61184681611831565b82525050565b6000602082019050611861600083018461183d565b92915050565b600060208201905081810360008301526118818184611595565b905092915050565b6118928161162d565b82525050565b60006020820190506118ad6000830184611889565b92915050565b600080604083850312156118ca576118c96114c8565b5b60006118d8858286016114f3565b925050602083013567ffffffffffffffff8111156118f9576118f86114cd565b5b611905858286016117ba565b9150509250929050565b7f596f7520617265206e6f7420616c6c6f77656420746f20766f746520696e207460008201527f68697320656c656374696f6e2e00000000000000000000000000000000000000602082015250565b600061196b602d83611540565b91506119768261190f565b604082019050919050565b6000602082019050818103600083015261199a8161195e565b9050919050565b7f4e487b7100000000000000000000000000000000000000000000000000000000600052601160045260246000fd5b60006119db826114d2565b91506119e6836114d2565b9250827fffffffffffffffffffffffffffffffffffffffffffffffffffffffffffffffff03821115611a1b57611a1a6119a1565b5b828201905092915050565b7f566f74696e672068617320616c726561647920656e6465642e00000000000000600082015250565b6000611a5c601983611540565b9150611a6782611a26565b602082019050919050565b60006020820190508181036000830152611a8b81611a4f565b9050919050565b7f596f75206861766520616c726561647920766f74656420696e2074686973206560008201527f6c656374696f6e2e000000000000000000000000000000000000000000000000602082015250565b6000611aee602883611540565b9150611af982611a92565b604082019050919050565b60006020820190508181036000830152611b1d81611ae1565b9050919050565b7f4e487b7100000000000000000000000000000000000000000000000000000000600052603260045260246000fd5b7f4e487b7100000000000000000000000000000000000000000000000000000000600052602260045260246000fd5b60006002820490506001821680611b9a57607f821691505b602082108103611bad57611bac611b53565b5b50919050565b7f4f6e6c7920456c656374696f6e20436f6d6d697373696f6e2063616e2067697660008201527f6520726967687420746f20766f74652e00000000000000000000000000000000602082015250565b6000611c0f603083611540565b9150611c1a82611bb3565b604082019050919050565b60006020820190508181036000830152611c3e81611c02565b9050919050565b7f566f74696e672068617320616c726561647920737461727465642e0000000000600082015250565b6000611c7b601b83611540565b9150611c8682611c45565b602082019050919050565b60006020820190508181036000830152611caa81611c6e565b9050919050565b7f566f74696e6720686173206e6f7420656e646564207965742e00000000000000600082015250565b6000611ce7601983611540565b9150611cf282611cb1565b602082019050919050565b60006020820190508181036000830152611d1681611cda565b9050919050565b6000611d28826114d2565b91507fffffffffffffffffffffffffffffffffffffffffffffffffffffffffffffffff8203611d5a57611d596119a1565b5b60018201905091905056fea2646970667358221220cdc6c80b6711a3ce360a94471a6db29fbb432abd655dc8e2bd2d2e5a4e221c5d64736f6c634300080d0033",
  "immutableReferences": {},
  "source": "// SPDX-License-Identifier: MIT\n// Tells the Solidity compiler to compile only from v0.8.0 to v0.9.0\npragma solidity ^0.8.0;\n\ncontract Voting {\n    string public title;\n\n    mapping(address => uint) whiteList;\n    mapping(address => bool) exists;\n\n    struct Proposal {\n        string name;\n        uint voteCount;\n    }\n    Proposal[] public proposals;\n\n    uint256 public votingDuration;\n    uint256 public votingStartTime;\n    bool public votingEnded; // Stores whether the voting has ended or not\n    bool public votingStarted; // Stores whether the voting has started or not\n\n    address public electionCommission;\n\n    constructor(\n        string memory _title,\n        string[] memory _proposals,\n        address[] memory _whiteList,\n        uint256 duration\n    ) {\n        electionCommission = msg.sender;\n        title = _title;\n        votingDuration = duration;\n        votingEnded = false;\n        votingStarted = false;\n\n        for (uint i = 0; i < _proposals.length; i++) {\n            proposals.push(Proposal({name: _proposals[i], voteCount: 0}));\n        }\n\n        for (uint i = 0; i < _whiteList.length; i++) {\n            whiteList[_whiteList[i]] = 1;\n        }\n    }\n\n    modifier onlyElectionCommission() {\n        require(\n            msg.sender == electionCommission,\n            \"Only Election Commission can give right to vote.\"\n        );\n        _;\n    }\n\n    modifier onlyBeforeStart() {\n        require(votingStarted == false, \"Voting has already started.\");\n        _;\n    }\n\n    modifier onlyBeforeVotingEnd() {\n        require(\n            block.timestamp < (votingStartTime + votingDuration),\n            \"Voting has already ended.\"\n        );\n        _;\n    }\n\n    modifier onlyAfterVotingEnd() {\n        require(block.timestamp > votingDuration, \"Voting has not ended yet.\");\n        _;\n    }\n\n    modifier onlyWhiteListed() {\n        require(\n            exists[msg.sender] == true,\n            \"You are not allowed to vote in this election.\"\n        );\n        _;\n    }\n\n    modifier onlyOnce() {\n        require(\n            whiteList[msg.sender] > 0,\n            \"You have already voted in this election.\"\n        );\n        _;\n    }\n\n    function addToWhiteList(\n        address voter\n    ) public onlyElectionCommission onlyBeforeStart onlyBeforeVotingEnd {\n        if (exists[voter]) return;\n\n        whiteList[voter] = 1;\n        exists[voter] = true;\n    }\n\n    function removeFromWhiteList(\n        address voter\n    ) public onlyElectionCommission onlyBeforeStart onlyBeforeVotingEnd {\n        if (!exists[voter]) return;\n\n        whiteList[voter] = 0;\n        exists[voter] = false;\n    }\n\n    function editProposal(\n        uint proposal,\n        string memory newName\n    ) public onlyElectionCommission onlyBeforeStart onlyBeforeVotingEnd {\n        proposals[proposal].name = newName;\n    }\n\n    function addProposal(\n        string memory newName\n    ) public onlyElectionCommission onlyBeforeStart onlyBeforeVotingEnd {\n        proposals.push(Proposal({name: newName, voteCount: 0}));\n    }\n\n    function editTitle(\n        string memory newTitle\n    ) public onlyElectionCommission onlyBeforeStart onlyBeforeVotingEnd {\n        title = newTitle;\n    }\n\n    function editDeadline(\n        uint256 newDeadline\n    ) public onlyElectionCommission onlyBeforeStart onlyBeforeVotingEnd {\n        votingDuration = newDeadline;\n    }\n\n    function vote(\n        uint proposal\n    ) public onlyWhiteListed onlyBeforeVotingEnd onlyOnce {\n        address voter = msg.sender;\n        // require(exists[voter] == true, \"You are not allowed to vote\");\n        // require(whiteList[voter] > 0, \"You have already voted\");\n\n        uint voteWeight = whiteList[voter];\n\n        proposals[proposal].voteCount += voteWeight;\n        whiteList[voter] = 0;\n    }\n\n    function getIsWhiteListed(address key) public view returns (bool) {\n        return exists[key];\n    }\n\n    function startVoting() public onlyElectionCommission onlyBeforeVotingEnd {\n        votingStartTime = block.timestamp;\n        votingStarted = true;\n    }\n\n    function endVoting() public onlyElectionCommission onlyBeforeVotingEnd {\n        votingEnded = true;\n    }\n\n    function getResult()\n        public\n        view\n        onlyAfterVotingEnd\n        returns (uint winningProposal_)\n    {\n        uint winningVoteCount = 0;\n        for (uint p = 0; p < proposals.length; p++) {\n            if (proposals[p].voteCount > winningVoteCount) {\n                winningVoteCount = proposals[p].voteCount;\n                winningProposal_ = p;\n            }\n        }\n    }\n}\n",
  "sourcePath": "/home/eduardo/TCC_blockchain_voting/blockchain/contracts/Voting.sol",
  "compiler": {
    "name": "solc",
    "version": "0.8.13+commit.abaa5c0e.Emscripten.clang"
  },
  "schemaVersion": "3.4.14",
  "updatedAt": "2023-05-26T17:03:49.510Z",
  "devdoc": {
    "kind": "dev",
    "methods": {},
    "version": 1
  },
  "userdoc": {
    "kind": "user",
    "methods": {},
    "version": 1
  }
}