{
  "contractName": "VotingFactory",
  "abi": [
    {
      "inputs": [
        {
          "internalType": "uint256",
          "name": "",
          "type": "uint256"
        }
      ],
      "name": "deployedContracts",
      "outputs": [
        {
          "internalType": "address",
          "name": "",
          "type": "address"
        }
      ],
      "stateMutability": "view",
      "type": "function",
      "constant": true
    },
    {
      "inputs": [
        {
          "internalType": "string",
          "name": "_title",
          "type": "string"
        },
        {
          "internalType": "string[]",
          "name": "_proposals",
          "type": "string[]"
        },
        {
          "internalType": "address[]",
          "name": "_whiteList",
          "type": "address[]"
        },
        {
          "internalType": "uint256",
          "name": "duration",
          "type": "uint256"
        }
      ],
      "name": "deploy",
      "outputs": [],
      "stateMutability": "nonpayable",
      "type": "function"
    },
    {
      "inputs": [],
      "name": "getDeployedContracts",
      "outputs": [
        {
          "internalType": "address[]",
          "name": "",
          "type": "address[]"
        }
      ],
      "stateMutability": "view",
      "type": "function",
      "constant": true
    },
    {
      "inputs": [],
      "name": "getVotings",
      "outputs": [
        {
          "internalType": "address[]",
          "name": "",
          "type": "address[]"
        }
      ],
      "stateMutability": "view",
      "type": "function",
      "constant": true
    }
  ],
  "bytecode": "0x608060405234801561001057600080fd5b50614910806100206000396000f3fe60806040523480156200001157600080fd5b5060043610620000525760003560e01c806305c1112d14620000575780639ad1ee101462000079578063a0abae8614620000af578063aa9a068f14620000cf575b600080fd5b62000061620000f1565b60405162000070919062000665565b60405180910390f35b620000976004803603810190620000919190620006d8565b620003d0565b604051620000a691906200071b565b60405180910390f35b620000cd6004803603810190620000c7919062000a9d565b62000410565b005b620000d9620004c5565b604051620000e8919062000665565b60405180910390f35b606060003390506000808054905067ffffffffffffffff8111156200011b576200011a62000753565b5b6040519080825280602002602001820160405280156200014a5781602001602082028036833780820191505090505b5090506000805b600080549050811015620002e357600080828154811062000177576200017662000b6c565b5b9060005260206000200160009054906101000a900473ffffffffffffffffffffffffffffffffffffffff1673ffffffffffffffffffffffffffffffffffffffff166337b7b9b8866040518263ffffffff1660e01b8152600401620001dc91906200071b565b602060405180830381865afa158015620001fa573d6000803e3d6000fd5b505050506040513d601f19601f8201168201806040525081019062000220919062000bd8565b90508015620002cc576000828154811062000240576200023f62000b6c565b5b9060005260206000200160009054906101000a900473ffffffffffffffffffffffffffffffffffffffff1684848151811062000281576200028062000b6c565b5b602002602001019073ffffffffffffffffffffffffffffffffffffffff16908173ffffffffffffffffffffffffffffffffffffffff16815250508280620002c89062000c39565b9350505b508080620002da9062000c39565b91505062000151565b5060008167ffffffffffffffff81111562000303576200030262000753565b5b604051908082528060200260200182016040528015620003325781602001602082028036833780820191505090505b50905060005b82811015620003c55783818151811062000357576200035662000b6c565b5b602002602001015182828151811062000375576200037462000b6c565b5b602002602001019073ffffffffffffffffffffffffffffffffffffffff16908173ffffffffffffffffffffffffffffffffffffffff16815250508080620003bc9062000c39565b91505062000338565b508094505050505090565b60008181548110620003e157600080fd5b906000526020600020016000915054906101000a900473ffffffffffffffffffffffffffffffffffffffff1681565b6000339050600081868686866040516200042a9062000555565b6200043a95949392919062000e4c565b604051809103906000f08015801562000457573d6000803e3d6000fd5b5090506000819080600181540180825580915050600190039060005260206000200160009091909190916101000a81548173ffffffffffffffffffffffffffffffffffffffff021916908373ffffffffffffffffffffffffffffffffffffffff160217905550505050505050565b606060008054806020026020016040519081016040528092919081815260200182805480156200054b57602002820191906000526020600020905b8160009054906101000a900473ffffffffffffffffffffffffffffffffffffffff1673ffffffffffffffffffffffffffffffffffffffff168152602001906001019080831162000500575b5050505050905090565b613a1c8062000ebf83390190565b600081519050919050565b600082825260208201905092915050565b6000819050602082019050919050565b600073ffffffffffffffffffffffffffffffffffffffff82169050919050565b6000620005bc826200058f565b9050919050565b620005ce81620005af565b82525050565b6000620005e28383620005c3565b60208301905092915050565b6000602082019050919050565b6000620006088262000563565b6200061481856200056e565b935062000621836200057f565b8060005b83811015620006585781516200063c8882620005d4565b97506200064983620005ee565b92505060018101905062000625565b5085935050505092915050565b60006020820190508181036000830152620006818184620005fb565b905092915050565b6000604051905090565b600080fd5b600080fd5b6000819050919050565b620006b2816200069d565b8114620006be57600080fd5b50565b600081359050620006d281620006a7565b92915050565b600060208284031215620006f157620006f062000693565b5b60006200070184828501620006c1565b91505092915050565b6200071581620005af565b82525050565b60006020820190506200073260008301846200070a565b92915050565b600080fd5b600080fd5b6000601f19601f8301169050919050565b7f4e487b7100000000000000000000000000000000000000000000000000000000600052604160045260246000fd5b6200078d8262000742565b810181811067ffffffffffffffff82111715620007af57620007ae62000753565b5b80604052505050565b6000620007c462000689565b9050620007d2828262000782565b919050565b600067ffffffffffffffff821115620007f557620007f462000753565b5b620008008262000742565b9050602081019050919050565b82818337600083830152505050565b6000620008336200082d84620007d7565b620007b8565b9050828152602081018484840111156200085257620008516200073d565b5b6200085f8482856200080d565b509392505050565b600082601f8301126200087f576200087e62000738565b5b8135620008918482602086016200081c565b91505092915050565b600067ffffffffffffffff821115620008b857620008b762000753565b5b602082029050602081019050919050565b600080fd5b6000620008e5620008df846200089a565b620007b8565b905080838252602082019050602084028301858111156200090b576200090a620008c9565b5b835b818110156200095957803567ffffffffffffffff81111562000934576200093362000738565b5b80860162000943898262000867565b855260208501945050506020810190506200090d565b5050509392505050565b600082601f8301126200097b576200097a62000738565b5b81356200098d848260208601620008ce565b91505092915050565b600067ffffffffffffffff821115620009b457620009b362000753565b5b602082029050602081019050919050565b620009d081620005af565b8114620009dc57600080fd5b50565b600081359050620009f081620009c5565b92915050565b600062000a0d62000a078462000996565b620007b8565b9050808382526020820190506020840283018581111562000a335762000a32620008c9565b5b835b8181101562000a60578062000a4b8882620009df565b84526020840193505060208101905062000a35565b5050509392505050565b600082601f83011262000a825762000a8162000738565b5b813562000a94848260208601620009f6565b91505092915050565b6000806000806080858703121562000aba5762000ab962000693565b5b600085013567ffffffffffffffff81111562000adb5762000ada62000698565b5b62000ae98782880162000867565b945050602085013567ffffffffffffffff81111562000b0d5762000b0c62000698565b5b62000b1b8782880162000963565b935050604085013567ffffffffffffffff81111562000b3f5762000b3e62000698565b5b62000b4d8782880162000a6a565b925050606062000b6087828801620006c1565b91505092959194509250565b7f4e487b7100000000000000000000000000000000000000000000000000000000600052603260045260246000fd5b60008115159050919050565b62000bb28162000b9b565b811462000bbe57600080fd5b50565b60008151905062000bd28162000ba7565b92915050565b60006020828403121562000bf15762000bf062000693565b5b600062000c018482850162000bc1565b91505092915050565b7f4e487b7100000000000000000000000000000000000000000000000000000000600052601160045260246000fd5b600062000c46826200069d565b91507fffffffffffffffffffffffffffffffffffffffffffffffffffffffffffffffff820362000c7b5762000c7a62000c0a565b5b600182019050919050565b600081519050919050565b600082825260208201905092915050565b60005b8381101562000cc257808201518184015260208101905062000ca5565b8381111562000cd2576000848401525b50505050565b600062000ce58262000c86565b62000cf1818562000c91565b935062000d0381856020860162000ca2565b62000d0e8162000742565b840191505092915050565b600081519050919050565b600082825260208201905092915050565b6000819050602082019050919050565b600082825260208201905092915050565b600062000d638262000c86565b62000d6f818562000d45565b935062000d8181856020860162000ca2565b62000d8c8162000742565b840191505092915050565b600062000da5838362000d56565b905092915050565b6000602082019050919050565b600062000dc78262000d19565b62000dd3818562000d24565b93508360208202850162000de78562000d35565b8060005b8581101562000e29578484038952815162000e07858262000d97565b945062000e148362000dad565b925060208a0199505060018101905062000deb565b50829750879550505050505092915050565b62000e46816200069d565b82525050565b600060a08201905062000e6360008301886200070a565b818103602083015262000e77818762000cd8565b9050818103604083015262000e8d818662000dba565b9050818103606083015262000ea38185620005fb565b905062000eb4608083018462000e3b565b969550505050505056fe60806040523480156200001157600080fd5b5060405162003a1c38038062003a1c8339818101604052810190620000379190620007e7565b84600760036101000a81548173ffffffffffffffffffffffffffffffffffffffff021916908373ffffffffffffffffffffffffffffffffffffffff16021790555083600090805190602001906200009092919062000299565b50806005819055506000600760006101000a81548160ff0219169083151502179055506000600760016101000a81548160ff02191690831515021790555060005b83518110156200017a5760046040518060400160405280868481518110620000fe57620000fd620008cc565b5b602002602001015181526020016000815250908060018154018082558091505060019003906000526020600020906002020160009091909190915060008201518160000190805190602001906200015792919062000299565b50602082015181600101555050808062000171906200092a565b915050620000d1565b5060005b825181101562000274576001806000858481518110620001a357620001a2620008cc565b5b602002602001015173ffffffffffffffffffffffffffffffffffffffff1673ffffffffffffffffffffffffffffffffffffffff16815260200190815260200160002081905550600160026000858481518110620002055762000204620008cc565b5b602002602001015173ffffffffffffffffffffffffffffffffffffffff1673ffffffffffffffffffffffffffffffffffffffff16815260200190815260200160002060006101000a81548160ff02191690831515021790555080806200026b906200092a565b9150506200017e565b5081600390805190602001906200028d9291906200032a565b505050505050620009db565b828054620002a790620009a6565b90600052602060002090601f016020900481019282620002cb576000855562000317565b82601f10620002e657805160ff191683800117855562000317565b8280016001018555821562000317579182015b8281111562000316578251825591602001919060010190620002f9565b5b509050620003269190620003b9565b5090565b828054828255906000526020600020908101928215620003a6579160200282015b82811115620003a55782518260006101000a81548173ffffffffffffffffffffffffffffffffffffffff021916908373ffffffffffffffffffffffffffffffffffffffff160217905550916020019190600101906200034b565b5b509050620003b59190620003b9565b5090565b5b80821115620003d4576000816000905550600101620003ba565b5090565b6000604051905090565b600080fd5b600080fd5b600073ffffffffffffffffffffffffffffffffffffffff82169050919050565b60006200041982620003ec565b9050919050565b6200042b816200040c565b81146200043757600080fd5b50565b6000815190506200044b8162000420565b92915050565b600080fd5b600080fd5b6000601f19601f8301169050919050565b7f4e487b7100000000000000000000000000000000000000000000000000000000600052604160045260246000fd5b620004a6826200045b565b810181811067ffffffffffffffff82111715620004c857620004c76200046c565b5b80604052505050565b6000620004dd620003d8565b9050620004eb82826200049b565b919050565b600067ffffffffffffffff8211156200050e576200050d6200046c565b5b62000519826200045b565b9050602081019050919050565b60005b838110156200054657808201518184015260208101905062000529565b8381111562000556576000848401525b50505050565b6000620005736200056d84620004f0565b620004d1565b90508281526020810184848401111562000592576200059162000456565b5b6200059f84828562000526565b509392505050565b600082601f830112620005bf57620005be62000451565b5b8151620005d18482602086016200055c565b91505092915050565b600067ffffffffffffffff821115620005f857620005f76200046c565b5b602082029050602081019050919050565b600080fd5b6000620006256200061f84620005da565b620004d1565b905080838252602082019050602084028301858111156200064b576200064a62000609565b5b835b818110156200069957805167ffffffffffffffff81111562000674576200067362000451565b5b808601620006838982620005a7565b855260208501945050506020810190506200064d565b5050509392505050565b600082601f830112620006bb57620006ba62000451565b5b8151620006cd8482602086016200060e565b91505092915050565b600067ffffffffffffffff821115620006f457620006f36200046c565b5b602082029050602081019050919050565b60006200071c6200071684620006d6565b620004d1565b9050808382526020820190506020840283018581111562000742576200074162000609565b5b835b818110156200076f57806200075a88826200043a565b84526020840193505060208101905062000744565b5050509392505050565b600082601f83011262000791576200079062000451565b5b8151620007a384826020860162000705565b91505092915050565b6000819050919050565b620007c181620007ac565b8114620007cd57600080fd5b50565b600081519050620007e181620007b6565b92915050565b600080600080600060a08688031215620008065762000805620003e2565b5b600062000816888289016200043a565b955050602086015167ffffffffffffffff8111156200083a5762000839620003e7565b5b6200084888828901620005a7565b945050604086015167ffffffffffffffff8111156200086c576200086b620003e7565b5b6200087a88828901620006a3565b935050606086015167ffffffffffffffff8111156200089e576200089d620003e7565b5b620008ac8882890162000779565b9250506080620008bf88828901620007d0565b9150509295509295909350565b7f4e487b7100000000000000000000000000000000000000000000000000000000600052603260045260246000fd5b7f4e487b7100000000000000000000000000000000000000000000000000000000600052601160045260246000fd5b60006200093782620007ac565b91507fffffffffffffffffffffffffffffffffffffffffffffffffffffffffffffffff82036200096c576200096b620008fb565b5b600182019050919050565b7f4e487b7100000000000000000000000000000000000000000000000000000000600052602260045260246000fd5b60006002820490506001821680620009bf57607f821691505b602082108103620009d557620009d462000977565b5b50919050565b61303180620009eb6000396000f3fe608060405234801561001057600080fd5b506004361061018e5760003560e01c80634aed3c3a116100de5780639d5a052911610097578063bfae217211610071578063bfae217214610428578063c3403ddf14610444578063d7d4e6311461044e578063de2927891461047e5761018e565b80639d5a0529146103ce578063aab46b7f146103ec578063b1b0be2f1461040a5761018e565b80634aed3c3a1461033457806362564c48146103505780636eb836891461036e57806381f4b2321461038a57806383d948b7146103945780639bd4dd3c146103b25761018e565b80632019a6081161014b5780632fdae3c5116101255780632fdae3c5146102ae57806337b7b9b8146102ca57806347ee0394146102fa5780634a79d50c146103165761018e565b80632019a608146102425780632c69953b146102605780632d9c73d9146102905761018e565b80630121b93f14610193578063013cf08b146101af57806301bf6648146101e05780630b226036146101fc578063132002fc1461021a5780631ec6b60a14610238575b600080fd5b6101ad60048036038101906101a891906120e2565b61049c565b005b6101c960048036038101906101c491906120e2565b6107c6565b6040516101d79291906121b7565b60405180910390f35b6101fa60048036038101906101f59190612245565b610882565b005b610204610a9f565b604051610211919061228d565b60405180910390f35b610222610ab2565b60405161022f91906122a8565b60405180910390f35b610240610ab8565b005b61024a610c5c565b60405161025791906122a8565b60405180910390f35b61027a600480360381019061027591906120e2565b610c62565b60405161028791906122d2565b60405180910390f35b610298610ca1565b6040516102a591906123ab565b60405180910390f35b6102c860048036038101906102c39190612502565b610dad565b005b6102e460048036038101906102df9190612245565b610f44565b6040516102f1919061228d565b60405180910390f35b610314600480360381019061030f9190612245565b610f9a565b005b61031e611218565b60405161032b919061254b565b60405180910390f35b61034e60048036038101906103499190612716565b6112a6565b005b610358611569565b60405161036591906128dd565b60405180910390f35b61038860048036038101906103839190612502565b6116ba565b005b6103926117fe565b005b61039c611945565b6040516103a9919061228d565b60405180910390f35b6103cc60048036038101906103c791906120e2565b611958565b005b6103d6611a8c565b6040516103e3919061228d565b60405180910390f35b6103f4611a9f565b60405161040191906122d2565b60405180910390f35b610412611ac5565b60405161041f919061228d565b60405180910390f35b610442600480360381019061043d91906128ff565b611b20565b005b61044c611c88565b005b61046860048036038101906104639190612245565b611d79565b604051610475919061228d565b60405180910390f35b610486611dcf565b6040516104939190612a19565b60405180910390f35b60011515600760019054906101000a900460ff161515146104f2576040517f08c379a00000000000000000000000000000000000000000000000000000000081526004016104e990612a87565b60405180910390fd5b60001515600760009054906101000a900460ff16151514610548576040517f08c379a000000000000000000000000000000000000000000000000000000000815260040161053f90612af3565b60405180910390fd5b60001515600760029054906101000a900460ff1615151461059e576040517f08c379a000000000000000000000000000000000000000000000000000000000815260040161059590612b5f565b60405180910390fd5b60011515600260003373ffffffffffffffffffffffffffffffffffffffff1673ffffffffffffffffffffffffffffffffffffffff16815260200190815260200160002060009054906101000a900460ff16151514610631576040517f08c379a000000000000000000000000000000000000000000000000000000000815260040161062890612bf1565b60405180910390fd5b6005544210610675576040517f08c379a000000000000000000000000000000000000000000000000000000000815260040161066c90612af3565b60405180910390fd5b6000600160003373ffffffffffffffffffffffffffffffffffffffff1673ffffffffffffffffffffffffffffffffffffffff16815260200190815260200160002054116106f7576040517f08c379a00000000000000000000000000000000000000000000000000000000081526004016106ee90612c83565b60405180910390fd5b60003390506000600160008373ffffffffffffffffffffffffffffffffffffffff1673ffffffffffffffffffffffffffffffffffffffff168152602001908152602001600020549050806004848154811061075557610754612ca3565b5b906000526020600020906002020160010160008282546107759190612d01565b925050819055506000600160008473ffffffffffffffffffffffffffffffffffffffff1673ffffffffffffffffffffffffffffffffffffffff16815260200190815260200160002081905550505050565b600481815481106107d657600080fd5b90600052602060002090600202016000915090508060000180546107f990612d86565b80601f016020809104026020016040519081016040528092919081815260200182805461082590612d86565b80156108725780601f1061084757610100808354040283529160200191610872565b820191906000526020600020905b81548152906001019060200180831161085557829003601f168201915b5050505050908060010154905082565b600760039054906101000a900473ffffffffffffffffffffffffffffffffffffffff1673ffffffffffffffffffffffffffffffffffffffff163373ffffffffffffffffffffffffffffffffffffffff1614610912576040517f08c379a000000000000000000000000000000000000000000000000000000000815260040161090990612e29565b60405180910390fd5b60001515600760019054906101000a900460ff16151514610968576040517f08c379a000000000000000000000000000000000000000000000000000000000815260040161095f90612e95565b60405180910390fd5b60055442106109ac576040517f08c379a00000000000000000000000000000000000000000000000000000000081526004016109a390612af3565b60405180910390fd5b600260008273ffffffffffffffffffffffffffffffffffffffff1673ffffffffffffffffffffffffffffffffffffffff16815260200190815260200160002060009054906101000a900460ff1615610a9c576000600160008373ffffffffffffffffffffffffffffffffffffffff1673ffffffffffffffffffffffffffffffffffffffff168152602001908152602001600020819055506000600260008373ffffffffffffffffffffffffffffffffffffffff1673ffffffffffffffffffffffffffffffffffffffff16815260200190815260200160002060006101000a81548160ff0219169083151502179055505b50565b600760029054906101000a900460ff1681565b60055481565b60001515600760019054906101000a900460ff16151514610b0e576040517f08c379a0000000000000000000000000000000000000000000000000000000008152600401610b0590612e95565b60405180910390fd5b600760039054906101000a900473ffffffffffffffffffffffffffffffffffffffff1673ffffffffffffffffffffffffffffffffffffffff163373ffffffffffffffffffffffffffffffffffffffff1614610b9e576040517f08c379a0000000000000000000000000000000000000000000000000000000008152600401610b9590612e29565b60405180910390fd5b6005544210610be2576040517f08c379a0000000000000000000000000000000000000000000000000000000008152600401610bd990612af3565b60405180910390fd5b60001515600760029054906101000a900460ff16151514610c38576040517f08c379a0000000000000000000000000000000000000000000000000000000008152600401610c2f90612b5f565b60405180910390fd5b426006819055506001600760016101000a81548160ff021916908315150217905550565b60065481565b60038181548110610c7257600080fd5b906000526020600020016000915054906101000a900473ffffffffffffffffffffffffffffffffffffffff1681565b60606000600380549050905060008167ffffffffffffffff811115610cc957610cc86123d7565b5b604051908082528060200260200182016040528015610cf75781602001602082028036833780820191505090505b50905060005b82811015610da45760038181548110610d1957610d18612ca3565b5b9060005260206000200160009054906101000a900473ffffffffffffffffffffffffffffffffffffffff16828281518110610d5757610d56612ca3565b5b602002602001019073ffffffffffffffffffffffffffffffffffffffff16908173ffffffffffffffffffffffffffffffffffffffff16815250508080610d9c90612eb5565b915050610cfd565b50809250505090565b600760039054906101000a900473ffffffffffffffffffffffffffffffffffffffff1673ffffffffffffffffffffffffffffffffffffffff163373ffffffffffffffffffffffffffffffffffffffff1614610e3d576040517f08c379a0000000000000000000000000000000000000000000000000000000008152600401610e3490612e29565b60405180910390fd5b60001515600760019054906101000a900460ff16151514610e93576040517f08c379a0000000000000000000000000000000000000000000000000000000008152600401610e8a90612e95565b60405180910390fd5b6005544210610ed7576040517f08c379a0000000000000000000000000000000000000000000000000000000008152600401610ece90612af3565b60405180910390fd5b60046040518060400160405280838152602001600081525090806001815401808255809150506001900390600052602060002090600202016000909190919091506000820151816000019080519060200190610f34929190611ed8565b5060208201518160010155505050565b6000600260008373ffffffffffffffffffffffffffffffffffffffff1673ffffffffffffffffffffffffffffffffffffffff16815260200190815260200160002060009054906101000a900460ff169050919050565b600760039054906101000a900473ffffffffffffffffffffffffffffffffffffffff1673ffffffffffffffffffffffffffffffffffffffff163373ffffffffffffffffffffffffffffffffffffffff161461102a576040517f08c379a000000000000000000000000000000000000000000000000000000000815260040161102190612e29565b60405180910390fd5b60001515600760019054906101000a900460ff16151514611080576040517f08c379a000000000000000000000000000000000000000000000000000000000815260040161107790612e95565b60405180910390fd5b60055442106110c4576040517f08c379a00000000000000000000000000000000000000000000000000000000081526004016110bb90612af3565b60405180910390fd5b600260008273ffffffffffffffffffffffffffffffffffffffff1673ffffffffffffffffffffffffffffffffffffffff16815260200190815260200160002060009054906101000a900460ff166112155760018060008373ffffffffffffffffffffffffffffffffffffffff1673ffffffffffffffffffffffffffffffffffffffff168152602001908152602001600020819055506003819080600181540180825580915050600190039060005260206000200160009091909190916101000a81548173ffffffffffffffffffffffffffffffffffffffff021916908373ffffffffffffffffffffffffffffffffffffffff1602179055506001600260008373ffffffffffffffffffffffffffffffffffffffff1673ffffffffffffffffffffffffffffffffffffffff16815260200190815260200160002060006101000a81548160ff0219169083151502179055505b50565b6000805461122590612d86565b80601f016020809104026020016040519081016040528092919081815260200182805461125190612d86565b801561129e5780601f106112735761010080835404028352916020019161129e565b820191906000526020600020905b81548152906001019060200180831161128157829003601f168201915b505050505081565b600760039054906101000a900473ffffffffffffffffffffffffffffffffffffffff1673ffffffffffffffffffffffffffffffffffffffff163373ffffffffffffffffffffffffffffffffffffffff1614611336576040517f08c379a000000000000000000000000000000000000000000000000000000000815260040161132d90612e29565b60405180910390fd5b60001515600760019054906101000a900460ff1615151461138c576040517f08c379a000000000000000000000000000000000000000000000000000000000815260040161138390612e95565b60405180910390fd5b83600090805190602001906113a2929190611ed8565b5080600581905550600460006113b89190611f5e565b60005b835181101561145b57600460405180604001604052808684815181106113e4576113e3612ca3565b5b6020026020010151815260200160008152509080600181540180825580915050600190039060005260206000209060020201600090919091909150600082015181600001908051906020019061143b929190611ed8565b50602082015181600101555050808061145390612eb5565b9150506113bb565b5060005b825181101561154b5760018060008584815181106114805761147f612ca3565b5b602002602001015173ffffffffffffffffffffffffffffffffffffffff1673ffffffffffffffffffffffffffffffffffffffff168152602001908152602001600020819055506001600260008584815181106114df576114de612ca3565b5b602002602001015173ffffffffffffffffffffffffffffffffffffffff1673ffffffffffffffffffffffffffffffffffffffff16815260200190815260200160002060006101000a81548160ff021916908315150217905550808061154390612eb5565b91505061145f565b508160039080519060200190611562929190611f82565b5050505050565b60606000600480549050905060008167ffffffffffffffff811115611591576115906123d7565b5b6040519080825280602002602001820160405280156115c457816020015b60608152602001906001900390816115af5790505b50905060005b828110156116b157600481815481106115e6576115e5612ca3565b5b9060005260206000209060020201600001805461160290612d86565b80601f016020809104026020016040519081016040528092919081815260200182805461162e90612d86565b801561167b5780601f106116505761010080835404028352916020019161167b565b820191906000526020600020905b81548152906001019060200180831161165e57829003601f168201915b505050505082828151811061169357611692612ca3565b5b602002602001018190525080806116a990612eb5565b9150506115ca565b50809250505090565b600760039054906101000a900473ffffffffffffffffffffffffffffffffffffffff1673ffffffffffffffffffffffffffffffffffffffff163373ffffffffffffffffffffffffffffffffffffffff161461174a576040517f08c379a000000000000000000000000000000000000000000000000000000000815260040161174190612e29565b60405180910390fd5b60001515600760019054906101000a900460ff161515146117a0576040517f08c379a000000000000000000000000000000000000000000000000000000000815260040161179790612e95565b60405180910390fd5b60055442106117e4576040517f08c379a00000000000000000000000000000000000000000000000000000000081526004016117db90612af3565b60405180910390fd5b80600090805190602001906117fa929190611ed8565b5050565b600760039054906101000a900473ffffffffffffffffffffffffffffffffffffffff1673ffffffffffffffffffffffffffffffffffffffff163373ffffffffffffffffffffffffffffffffffffffff161461188e576040517f08c379a000000000000000000000000000000000000000000000000000000000815260040161188590612e29565b60405180910390fd5b60055442106118d2576040517f08c379a00000000000000000000000000000000000000000000000000000000081526004016118c990612af3565b60405180910390fd5b60001515600760029054906101000a900460ff16151514611928576040517f08c379a000000000000000000000000000000000000000000000000000000000815260040161191f90612f6f565b60405180910390fd5b6001600760026101000a81548160ff021916908315150217905550565b600760019054906101000a900460ff1681565b600760039054906101000a900473ffffffffffffffffffffffffffffffffffffffff1673ffffffffffffffffffffffffffffffffffffffff163373ffffffffffffffffffffffffffffffffffffffff16146119e8576040517f08c379a00000000000000000000000000000000000000000000000000000000081526004016119df90612e29565b60405180910390fd5b60001515600760019054906101000a900460ff16151514611a3e576040517f08c379a0000000000000000000000000000000000000000000000000000000008152600401611a3590612e95565b60405180910390fd5b6005544210611a82576040517f08c379a0000000000000000000000000000000000000000000000000000000008152600401611a7990612af3565b60405180910390fd5b8060058190555050565b600760009054906101000a900460ff1681565b600760039054906101000a900473ffffffffffffffffffffffffffffffffffffffff1681565b6000801515600760009054906101000a900460ff161515148015611afc575060011515600760019054906101000a900460ff161515145b8015611b1b575060001515600760029054906101000a900460ff161515145b905090565b600760039054906101000a900473ffffffffffffffffffffffffffffffffffffffff1673ffffffffffffffffffffffffffffffffffffffff163373ffffffffffffffffffffffffffffffffffffffff1614611bb0576040517f08c379a0000000000000000000000000000000000000000000000000000000008152600401611ba790612e29565b60405180910390fd5b60001515600760019054906101000a900460ff16151514611c06576040517f08c379a0000000000000000000000000000000000000000000000000000000008152600401611bfd90612e95565b60405180910390fd5b6005544210611c4a576040517f08c379a0000000000000000000000000000000000000000000000000000000008152600401611c4190612af3565b60405180910390fd5b8060048381548110611c5f57611c5e612ca3565b5b90600052602060002090600202016000019080519060200190611c83929190611ed8565b505050565b600760039054906101000a900473ffffffffffffffffffffffffffffffffffffffff1673ffffffffffffffffffffffffffffffffffffffff163373ffffffffffffffffffffffffffffffffffffffff1614611d18576040517f08c379a0000000000000000000000000000000000000000000000000000000008152600401611d0f90612e29565b60405180910390fd5b6005544210611d5c576040517f08c379a0000000000000000000000000000000000000000000000000000000008152600401611d5390612af3565b60405180910390fd5b6001600760006101000a81548160ff021916908315150217905550565b6000600260008373ffffffffffffffffffffffffffffffffffffffff1673ffffffffffffffffffffffffffffffffffffffff16815260200190815260200160002060009054906101000a900460ff169050919050565b60606005544211611e15576040517f08c379a0000000000000000000000000000000000000000000000000000000008152600401611e0c90612fdb565b60405180910390fd5b6000600480549050905060008167ffffffffffffffff811115611e3b57611e3a6123d7565b5b604051908082528060200260200182016040528015611e695781602001602082028036833780820191505090505b50905060005b82811015611ecf5760048181548110611e8b57611e8a612ca3565b5b906000526020600020906002020160010154828281518110611eb057611eaf612ca3565b5b6020026020010181815250508080611ec790612eb5565b915050611e6f565b50809250505090565b828054611ee490612d86565b90600052602060002090601f016020900481019282611f065760008555611f4d565b82601f10611f1f57805160ff1916838001178555611f4d565b82800160010185558215611f4d579182015b82811115611f4c578251825591602001919060010190611f31565b5b509050611f5a919061200c565b5090565b5080546000825560020290600052602060002090810190611f7f9190612029565b50565b828054828255906000526020600020908101928215611ffb579160200282015b82811115611ffa5782518260006101000a81548173ffffffffffffffffffffffffffffffffffffffff021916908373ffffffffffffffffffffffffffffffffffffffff16021790555091602001919060010190611fa2565b5b509050612008919061200c565b5090565b5b8082111561202557600081600090555060010161200d565b5090565b5b8082111561205457600080820160006120439190612058565b60018201600090555060020161202a565b5090565b50805461206490612d86565b6000825580601f106120765750612095565b601f016020900490600052602060002090810190612094919061200c565b5b50565b6000604051905090565b600080fd5b600080fd5b6000819050919050565b6120bf816120ac565b81146120ca57600080fd5b50565b6000813590506120dc816120b6565b92915050565b6000602082840312156120f8576120f76120a2565b5b6000612106848285016120cd565b91505092915050565b600081519050919050565b600082825260208201905092915050565b60005b8381101561214957808201518184015260208101905061212e565b83811115612158576000848401525b50505050565b6000601f19601f8301169050919050565b600061217a8261210f565b612184818561211a565b935061219481856020860161212b565b61219d8161215e565b840191505092915050565b6121b1816120ac565b82525050565b600060408201905081810360008301526121d1818561216f565b90506121e060208301846121a8565b9392505050565b600073ffffffffffffffffffffffffffffffffffffffff82169050919050565b6000612212826121e7565b9050919050565b61222281612207565b811461222d57600080fd5b50565b60008135905061223f81612219565b92915050565b60006020828403121561225b5761225a6120a2565b5b600061226984828501612230565b91505092915050565b60008115159050919050565b61228781612272565b82525050565b60006020820190506122a2600083018461227e565b92915050565b60006020820190506122bd60008301846121a8565b92915050565b6122cc81612207565b82525050565b60006020820190506122e760008301846122c3565b92915050565b600081519050919050565b600082825260208201905092915050565b6000819050602082019050919050565b61232281612207565b82525050565b60006123348383612319565b60208301905092915050565b6000602082019050919050565b6000612358826122ed565b61236281856122f8565b935061236d83612309565b8060005b8381101561239e5781516123858882612328565b975061239083612340565b925050600181019050612371565b5085935050505092915050565b600060208201905081810360008301526123c5818461234d565b905092915050565b600080fd5b600080fd5b7f4e487b7100000000000000000000000000000000000000000000000000000000600052604160045260246000fd5b61240f8261215e565b810181811067ffffffffffffffff8211171561242e5761242d6123d7565b5b80604052505050565b6000612441612098565b905061244d8282612406565b919050565b600067ffffffffffffffff82111561246d5761246c6123d7565b5b6124768261215e565b9050602081019050919050565b82818337600083830152505050565b60006124a56124a084612452565b612437565b9050828152602081018484840111156124c1576124c06123d2565b5b6124cc848285612483565b509392505050565b600082601f8301126124e9576124e86123cd565b5b81356124f9848260208601612492565b91505092915050565b600060208284031215612518576125176120a2565b5b600082013567ffffffffffffffff811115612536576125356120a7565b5b612542848285016124d4565b91505092915050565b60006020820190508181036000830152612565818461216f565b905092915050565b600067ffffffffffffffff821115612588576125876123d7565b5b602082029050602081019050919050565b600080fd5b60006125b16125ac8461256d565b612437565b905080838252602082019050602084028301858111156125d4576125d3612599565b5b835b8181101561261b57803567ffffffffffffffff8111156125f9576125f86123cd565b5b80860161260689826124d4565b855260208501945050506020810190506125d6565b5050509392505050565b600082601f83011261263a576126396123cd565b5b813561264a84826020860161259e565b91505092915050565b600067ffffffffffffffff82111561266e5761266d6123d7565b5b602082029050602081019050919050565b600061269261268d84612653565b612437565b905080838252602082019050602084028301858111156126b5576126b4612599565b5b835b818110156126de57806126ca8882612230565b8452602084019350506020810190506126b7565b5050509392505050565b600082601f8301126126fd576126fc6123cd565b5b813561270d84826020860161267f565b91505092915050565b600080600080608085870312156127305761272f6120a2565b5b600085013567ffffffffffffffff81111561274e5761274d6120a7565b5b61275a878288016124d4565b945050602085013567ffffffffffffffff81111561277b5761277a6120a7565b5b61278787828801612625565b935050604085013567ffffffffffffffff8111156127a8576127a76120a7565b5b6127b4878288016126e8565b92505060606127c5878288016120cd565b91505092959194509250565b600081519050919050565b600082825260208201905092915050565b6000819050602082019050919050565b600082825260208201905092915050565b60006128198261210f565b61282381856127fd565b935061283381856020860161212b565b61283c8161215e565b840191505092915050565b6000612853838361280e565b905092915050565b6000602082019050919050565b6000612873826127d1565b61287d81856127dc565b93508360208202850161288f856127ed565b8060005b858110156128cb57848403895281516128ac8582612847565b94506128b78361285b565b925060208a01995050600181019050612893565b50829750879550505050505092915050565b600060208201905081810360008301526128f78184612868565b905092915050565b60008060408385031215612916576129156120a2565b5b6000612924858286016120cd565b925050602083013567ffffffffffffffff811115612945576129446120a7565b5b612951858286016124d4565b9150509250929050565b600081519050919050565b600082825260208201905092915050565b6000819050602082019050919050565b612990816120ac565b82525050565b60006129a28383612987565b60208301905092915050565b6000602082019050919050565b60006129c68261295b565b6129d08185612966565b93506129db83612977565b8060005b83811015612a0c5781516129f38882612996565b97506129fe836129ae565b9250506001810190506129df565b5085935050505092915050565b60006020820190508181036000830152612a3381846129bb565b905092915050565b7f566f74696e6720686173206e6f742073746172746564207965742e0000000000600082015250565b6000612a71601b8361211a565b9150612a7c82612a3b565b602082019050919050565b60006020820190508181036000830152612aa081612a64565b9050919050565b7f566f74696e672068617320616c726561647920656e6465642e00000000000000600082015250565b6000612add60198361211a565b9150612ae882612aa7565b602082019050919050565b60006020820190508181036000830152612b0c81612ad0565b9050919050565b7f566f74696e6720686173206265656e2063616e63656c6c65642e000000000000600082015250565b6000612b49601a8361211a565b9150612b5482612b13565b602082019050919050565b60006020820190508181036000830152612b7881612b3c565b9050919050565b7f596f7520617265206e6f7420616c6c6f77656420746f20766f746520696e207460008201527f68697320656c656374696f6e2e00000000000000000000000000000000000000602082015250565b6000612bdb602d8361211a565b9150612be682612b7f565b604082019050919050565b60006020820190508181036000830152612c0a81612bce565b9050919050565b7f596f75206861766520616c726561647920766f74656420696e2074686973206560008201527f6c656374696f6e2e000000000000000000000000000000000000000000000000602082015250565b6000612c6d60288361211a565b9150612c7882612c11565b604082019050919050565b60006020820190508181036000830152612c9c81612c60565b9050919050565b7f4e487b7100000000000000000000000000000000000000000000000000000000600052603260045260246000fd5b7f4e487b7100000000000000000000000000000000000000000000000000000000600052601160045260246000fd5b6000612d0c826120ac565b9150612d17836120ac565b9250827fffffffffffffffffffffffffffffffffffffffffffffffffffffffffffffffff03821115612d4c57612d4b612cd2565b5b828201905092915050565b7f4e487b7100000000000000000000000000000000000000000000000000000000600052602260045260246000fd5b60006002820490506001821680612d9e57607f821691505b602082108103612db157612db0612d57565b5b50919050565b7f4f6e6c7920456c656374696f6e20436f6d6d697373696f6e2063616e20696e7660008201527f6f6b65207468697320616374696f6e2e00000000000000000000000000000000602082015250565b6000612e1360308361211a565b9150612e1e82612db7565b604082019050919050565b60006020820190508181036000830152612e4281612e06565b9050919050565b7f566f74696e672068617320616c726561647920737461727465642e0000000000600082015250565b6000612e7f601b8361211a565b9150612e8a82612e49565b602082019050919050565b60006020820190508181036000830152612eae81612e72565b9050919050565b6000612ec0826120ac565b91507fffffffffffffffffffffffffffffffffffffffffffffffffffffffffffffffff8203612ef257612ef1612cd2565b5b600182019050919050565b7f566f74696e672068617320616c7265616479206265656e2063616e63656c6c6560008201527f642e000000000000000000000000000000000000000000000000000000000000602082015250565b6000612f5960228361211a565b9150612f6482612efd565b604082019050919050565b60006020820190508181036000830152612f8881612f4c565b9050919050565b7f566f74696e6720686173206e6f7420656e646564207965742e00000000000000600082015250565b6000612fc560198361211a565b9150612fd082612f8f565b602082019050919050565b60006020820190508181036000830152612ff481612fb8565b905091905056fea26469706673582212208a6974f03e4d76ab7691f8fbcefa137d0638af77eba39b0e311a33112ac688e764736f6c634300080d0033a26469706673582212202348457f920fead2c652016f051f73bbdb78fdfd03f9e5d8cec088f66b07a1a664736f6c634300080d0033",
  "immutableReferences": {},
  "source": "// SPDX-License-Identifier: MIT\npragma solidity ^0.8.0;\n\nimport {Voting} from \"./Voting.sol\";\n\ncontract VotingFactory {\n    address[] public deployedContracts;\n\n    // event ContractDeployed(address deployedAddress);\n\n    function deploy(\n        string memory _title,\n        string[] memory _proposals,\n        address[] memory _whiteList,\n        uint256 duration\n    ) public {\n        // if (bytes(_title).length == bytes(\"\").length) {\n        //     if (\n        //         keccak256(abi.encodePacked(_title)) ==\n        //         keccak256(abi.encodePacked(\"\"))\n        //     ) {\n        //         revert(\"Title cannot be empty.\");\n        //     }\n        // }\n\n        address electionCommission = msg.sender;\n        address newContract = address(\n            new Voting(\n                electionCommission,\n                _title,\n                _proposals,\n                _whiteList,\n                duration\n            )\n        );\n        deployedContracts.push(newContract);\n        // emit ContractDeployed(newContract);\n    }\n\n    function getDeployedContracts() public view returns (address[] memory) {\n        return deployedContracts;\n    }\n\n    function getVotings() public view returns (address[] memory) {\n        // Best Gas costs\n        address voter = msg.sender;\n\n        address[] memory votingContracts = new address[](\n            deployedContracts.length\n        );\n        uint validCount = 0;\n\n        for (uint i = 0; i < deployedContracts.length; i++) {\n            bool exists = Voting(deployedContracts[i]).getIsWhiteListed(voter);\n            if (exists) {\n                votingContracts[validCount] = deployedContracts[i];\n                validCount++;\n            }\n        }\n\n        // Create a new array with the correct length\n        address[] memory result = new address[](validCount);\n\n        // Copy the valid contracts to the new array\n        for (uint i = 0; i < validCount; i++) {\n            result[i] = votingContracts[i];\n        }\n\n        return result;\n    }\n}\n",
  "sourcePath": "/home/lucas/Documentos/faculdade/TCC/TCC_blockchain_voting/blockchain/contracts/VotingFactory.sol",
  "compiler": {
    "name": "solc",
    "version": "0.8.13+commit.abaa5c0e.Emscripten.clang"
  },
  "schemaVersion": "3.4.10",
  "updatedAt": "2023-07-15T22:45:51.602Z",
  "networkType": "ethereum",
  "devdoc": {
    "kind": "dev",
    "methods": {},
    "version": 1
  },
  "userdoc": {
    "kind": "user",
    "methods": {},
    "version": 1
  }
}